:020000040000FA
:100000000C9462060C948A060C948A060C948A0658
:100010000C948A060C948A060C948A060C948A0620
:100020000C948A060C948A060C948A060C948A0610
:100030000C948A060C948A060C948A060C948A0600
:100040000C94C4080C948A060C9434090C940E0980
:100050000C948A060C948A060C948A060C948A06E0
:100060000C948A060C948A06FFFEFDFCFBFAF9F854
:10007000F7F6F5F4F3F2F1F0EFEEEDECEBEBEAE985
:10008000E8E7E6E5E4E3E2E1E0E0DFDEDDDCDBDA61
:10009000D9D9D8D7D6D5D4D3D3D2D1D0CFCECECD2F
:1000A000CCCBCACAC9C8C7C6C6C5C4C3C2C2C1C0F0
:1000B000BFBFBEBDBCBCBBBAB9B9B8B7B6B6B5B4A4
:1000C000B3B3B2B1B1B0AFAEAEADACACABAAAAA94E
:1000D000A8A8A7A6A6A5A4A4A3A2A2A1A0A09F9EEB
:1000E0009E9D9D9C9B9B9A9999989897969695957D
:1000F00094939392929190908F8F8E8E8D8C8C8B07
:100100008B8A8A8988888787868685858484838385
:1001100082818180807F7F7E7E7D7D7C7C7B7B7AFF
:100120007A7979787877777676757575747473736C
:100130007272717170706F6F6F6E6E6D6D6C6C6BD3
:100140006B6B6A6A69696868686767666665656532
:100150006464636363626261616160605F5F5F5E8C
:100160005E5D5D5D5C5C5C5B5B5A5A5A59595958DF
:10017000585857575656565555555454545353532B
:100180005252525151515050504F4F4F4E4E4E4D72
:100190004D4D4C4C4C4B4B4B4A4A4A4A49494948B5
:1001A00048484747474746464645454545444444F1
:1001B0004343434342424241414141404040403F2A
:1001C0003F3F3E3E3E3E3D3D3D3D3C3C3C3C3B3B5F
:1001D0003B3B3A3A3A3A393939393838383838378E
:1001E00037373736363636353535353534343434B9
:1001F00033333333333232323231313131313030E3
:100200003030302F2F2F2F2F2E2E2E2E2E2D2D2D06
:100210002D2D2C2C2C2C2C2B2B2B2B2B2B2A2A2A28
:100220002A2A292929292929282828282828272746
:100230002727272626262626262525252525252562
:10024000242424242424232323232323222222227C
:100250002222222121212121212120202020202091
:10026000201F1F1F1F1F1F1F1E1E1E1E1E1E1E1DA6
:100270001D1D1D1D1D1D1D1C1C1C1C1C1C1C1C1BB8
:100280001B1B1B1B1B1B1B1A1A1A1A1A1A1A1A19C8
:1002900019191919191919191818181818181818D6
:1002A00017171717171717171717161616161616E4
:1002B00016161615151515151515151515141414EE
:1002C00014141414141414131313131313131313F7
:1002D00013131212121212121212121212121111FE
:1002E0001111111111111111111010101010101005
:1002F0001010101010100F0F0F0F0F0F0F0F0F0F08
:100300000F0F0F0E0E0E0E0E0E0E0E0E0E0E0E0E0A
:100310000D0D0D0D0D0D0D0D0D0D0D0D0D0D0D0C0E
:100320000C0C0C0C0C0C0C0C0C0C0C0C0C0C0B0B0F
:100330000B0B0B0B0B0B0B0B0B0B0B0B0B0B0A0A0F
:100340000A0A0A0A0A0A0A0A0A0A0A0A0A0A0A0A0D
:10035000090909090909090909090909090909090D
:10036000090908080808080808080808080808080B
:100370000808080808080707070707070707070707
:100380000707070707070707070707070606060601
:1003900006060606060606060606060606060606FD
:1003A00006060606050505050505050505050505F9
:1003B00005050505050505050505050505050404EF
:1003C00004040404040404040404040404040404ED
:1003D00004040404040404040404040303030303E2
:1003E00003030303030303030303030303030303DD
:1003F00003030303030303030303030302020202D1
:1004000002020202020202020202020202020202CC
:1004100002020202020202020202020202020202BC
:1004200002020101010101010101010101010101BA
:1004300001010101010101010101010101010101AC
:10044000010101010101010101010101010101009D
:10045000000000000000000000000000000000009C
:100460000000000000000000000005000A000F006E
:10047000140019001E00230027002C003100360054
:100480003B003F00440049004D00520057005B0014
:100490006000640069006D00720076007B007F00E0
:1004A000840088008C009100950099009E00A200B5
:1004B000A600AA00AE00B300B700BB00BF00C30097
:1004C000C700CB00CF00D300D700DB00DF00E30084
:1004D000E700EB00EF00F300F600FA00FE00020177
:1004E000060109010D011101140118011C011F0170
:1004F000230127012A012E013101350138013C0178
:100500003F01430146014A014D0150015401570189
:100510005B015E016101640168016B016E017101A3
:10052000750178017B017E018101850188018B01C4
:100530008E019101940197019A019D01A001A301EF
:10054000A601A901AC01AF01B201B501B801BB011F
:10055000BD01C001C301C601C901CB01CE01D1015A
:10056000D401D701D901DC01DF01E101E401E70198
:10057000E901EC01EF01F101F401F601F901FB01E0
:10058000FE0101020302060208020B020D020F0225
:1005900012021402170219021C021E022002230278
:1005A000250227022A022C022E02310233023502D2
:1005B00038023A023C023E02400243024502470230
:1005C00049024B024E025002520254025602580295
:1005D0005A025C025E0260026302650267026902FF
:1005E0006B026D026F02710273027502770278026C
:1005F0007A027C027E0280028202840286028802E3
:100600008A028B028D028F0291029302950296025A
:1006100098029A029C029D029F02A102A302A402D8
:10062000A602A802AA02AB02AD02AF02B002B20259
:10063000B402B502B702B902BA02BC02BD02BF02DF
:10064000C102C202C402C502C702C802CA02CC0269
:10065000CD02CF02D002D202D302D502D602D802F6
:10066000D902DB02DC02DD02DF02E002E202E30289
:10067000E502E602E702E902EA02EC02ED02EE021E
:10068000F002F102F202F402F502F602F802F902B7
:10069000FA02FC02FD02FE02FF0201030203030351
:1006A00005030603070308030A030B030C030D03EA
:1006B0000E0310031103120313031403160317038D
:1006C000180319031A031B031D031E031F03200332
:1006D00021032203230324032503270328032903DB
:1006E0002A032B032C032D032E032F033003310386
:1006F0003203330334033503360337033803390336
:100700003A033B033C033D033E033F0340034103E5
:100710004203430344034503460347034803490395
:100720004A034B034B034C034D034E034F0350034B
:100730005103520353035303540355035603570302
:100740005803590359035A035B035C035D035E03BB
:100750005E035F0360036103620363036303640377
:100760006503660366036703680369036A036A0334
:100770006B036C036D036D036E036F0370037003F3
:1007800071037203720373037403750375037603B5
:10079000770377037803790379037A037B037C0378
:1007A0007C037D037E037E037F037F03800381033D
:1007B0008103820383038303840385038503860304
:1007C000870387038803880389038A038A038B03CB
:1007D0008B038C038D038D038E038E038F03900395
:1007E0009003910391039203920393039403940360
:1007F000950395039603960397039703980398032D
:10080000990399039A039B039B039C039C039D03F9
:100810009D039E039E039F039F03A003A003A103C8
:10082000A103A203A203A303A303A403A403A50398
:10083000A503A503A603A603A703A703A803A8036C
:10084000A903A903AA03AA03AB03AB03AB03AC033D
:10085000AC03AD03AD03AE03AE03AE03AF03AF0312
:10086000B003B003B103B103B103B203B203B303E6
:10087000B303B303B403B403B503B503B503B603BD
:10088000B603B703B703B703B803B803B903B90393
:10089000B903BA03BA03BA03BB03BB03BB03BC036C
:1008A000BC03BD03BD03BD03BE03BE03BE03BF0344
:1008B000BF03BF03C003C003C003C103C103C1031F
:1008C000C203C203C203C303C303C303C403C403F9
:1008D000C403C503C503C503C603C603C603C703D4
:1008E000C703C703C703C803C803C803C903C903B1
:1008F000C903CA03CA03CA03CA03CB03CB03CB038E
:10090000CC03CC03CC03CC03CD03CD03CD03CE036A
:10091000CE03CE03CE03CF03CF03CF03CF03D00349
:10092000D003D003D103D103D103D103D203D20327
:10093000D203D203D303D303D303D303D403D40307
:10094000D403D403D503D503D503D503D503D603E8
:10095000D603D603D603D703D703D703D703D803C9
:10096000D803D803D803D803D903D903D903D903AB
:10097000DA03DA03DA03DA03DA03DB03DB03DB038C
:10098000DB03DB03DC03DC03DC03DC03DC03DD0370
:10099000DD03DD03DD03DD03DE03DE03DE03DE0353
:1009A000DE03DF03DF03DF03DF03DF03E003E00336
:1009B000E003E003E003E103E103E103E103E1031A
:1009C000E103E203E203E203E203E203E203E303FF
:1009D000E303E303E303E303E403E403E403E403E3
:1009E000E403E403E503E503E503E503E503E503C9
:1009F000E503E603E603E603E603E603E603E703AF
:100A0000E703E703E703E703E703E703E803E80394
:100A1000E803E803E803E803E803E903E903E9037B
:100A2000E903E903E903E903EA03EA03EA03EA0362
:100A3000EA03EA03EA03EB03EB03EB03EB03EB0349
:100A4000EB03EB03EB03EC03EC03EC03EC03EC0331
:100A5000EC03EC03ED03ED03ED03ED03ED03ED0318
:100A6000ED03ED03ED03EE03EE03EE03EE03EE0301
:100A7000EE03EE03EE03EF03EF03EF03EF03EF03E9
:100A8000EF03EF03EF03EF03F003F003F003F003D2
:100A9000F003F003F003F003F003F103F103F103BB
:100AA000F103F103F103F103F103F103F103F203A5
:100AB000F203F203F203F203F203F203F203F2038E
:100AC000F203F203F303F303F303F303F303F30378
:100AD000F303F303F303F303F403F403F403F40362
:100AE000F403F403F403F403F403F403F403F4034E
:100AF000F503F503F503F503F503F503F503F50336
:100B0000F503F503F503F503F603F603F603F60321
:100B1000F603F603F603F603F603F603F603F6030D
:100B2000F603F703F703F703F703F703F703F703F6
:100B3000F703F703F703F703F703F703F803F803E3
:100B4000F803F803F803F803F803F803F803F803CD
:100B5000F803F803F803F803F803F903F903F903BA
:100B6000F903F903F903F903F903F903F903F903A5
:100B7000F903F903F903F903F903FA03FA03FA0392
:100B8000FA03FA03FA03FA03FA03FA03FA03FA037D
:100B9000FA03FA03FA03FA03FA03FA03FB03FB036B
:100BA000FB03FB03FB03FB03FB03FB03FB03FB0355
:100BB000FB03FB03FB03FB03FB03FB03FB03FB0345
:100BC000FB03FC03FC03FC03FC03FC03FC03FC032E
:100BD000FC03FC03FC03FC03FC03FC03FC03FC031D
:100BE000FC03FC03FC03FC03FC03FD03FD03FD030A
:100BF000FD03FD03FD03FD03FD03FD03FD03FD03F5
:100C0000FD03FD03FD03FD03FD03FD03FD03FD03E4
:100C1000FD03FD03FD03FD03FE03FE03FE03FE03D0
:100C2000FE03FE03FE03FE03FE03FE03FE03FE03BC
:100C3000FE03FE03FE03FE03FE03FE03FE03FE03AC
:100C4000FE03FE03FE03FE03FE03FE03FF03FF039A
:100C5000FF03FF03FF03FF03FF03FF03FF03FF0384
:100C6000FF03FF03FF03FF03000000002400270031
:100C70002A0000000000250028002B0000000000D2
:100C800023002600290004040404040404040202CE
:100C900002020202030303030303010204081020FB
:100CA0004080010204081020010204081020000006
:100CB000000800020100000304070000000000001B
:100CC0000000F30D11241FBECFEFD8E0DEBFCDBF73
:100CD00011E0A0E0B1E0EAE2F3E202C005900D927B
:100CE000AC31B107D9F721E0ACE1B1E001C01D9210
:100CF000A03FB207E1F716E0C2E6D6E004C02197B4
:100D0000FE010E948D11C136D107C9F70E94660904
:100D10000C9493110C940000833081F028F48130FE
:100D200099F08230A9F008958730A9F08830C9F091
:100D30008430B1F4809180008F7D03C08091800069
:100D40008F7780938000089584B58F7784BD089550
:100D500084B58F7DFBCF8091B0008F778093B000FA
:100D600008958091B0008F7DF9CFCF93DF93282F26
:100D700030E0F901E255F34F8491F901E656F34F63
:100D8000D491F901EA57F34FC491CC23A1F081111A
:100D90000E948C06EC2FF0E0EE0FFF1FE458F34F9B
:100DA000A591B491EC91ED2381E090E009F480E00D
:100DB000DF91CF91089580E090E0FACF1F93CF9319
:100DC000DF93282F30E0F901E255F34F8491F901C8
:100DD000E656F34FD491F901EA57F34FC491CC236F
:100DE000A9F0162F81110E948C06EC2FF0E0EE0F77
:100DF000FF1FEE58F34FA591B4918FB7F894EC9183
:100E0000111108C0D095DE23DC938FBFDF91CF9105
:100E10001F910895DE2BF8CFCF93DF9390E0FC0174
:100E2000E656F34F24918A57934FFC01849188230F
:100E3000C9F090E0880F991FFC01E859F34FA59184
:100E4000B491FC01EE58F34FC591D49161110DC0DE
:100E50009FB7F8948C91209582238C9388812823C6
:100E600028839FBFDF91CF910895623051F49FB7DF
:100E7000F8943C91822F809583238C93E8812E2BCC
:100E8000EFCF8FB7F894EC912E2B2C938FBFEACF36
:100E90001F93CF93DF93182FEB0161E00E940C07A3
:100EA000209739F460E0812FDF91CF911F910C944E
:100EB000DE06CF3FD10511F461E0F5CFE12FF0E080
:100EC000E255F34FE491E33031F140F4E130B1F019
:100ED000E230E1F0C038D1057CF7E4CFE73029F10A
:100EE000E83059F1E430B1F780918000806280935E
:100EF0008000D0938B00C0938A0004C084B58068C2
:100F000084BDC7BDDF91CF911F91089584B58062E4
:100F100084BDC8BDF7CF8091800080688093800039
:100F2000D0938900C0938800EDCF8091B000806895
:100F30008093B000C093B300E5CF8091B000806291
:100F40008093B000C093B400DDCF8E508064809356
:100F50007C0080917A00806480937A0080917A008E
:100F600086FDFCCF80917800909179000895AF9232
:100F7000BF92CF92DF92EF92FF920F931F93CF9386
:100F8000DF936C017B018B01040F151FEB015E01E8
:100F9000AE18BF08C017D10759F06991D601ED917D
:100FA000FC910190F081E02DC6010995892B79F71C
:100FB000C501DF91CF911F910F91FF90EF90DF90CE
:100FC000CF90BF90AF900895FC01538D448D252F95
:100FD00030E0842F90E0821B930B541710F0CF96D3
:100FE000089501970895FC01918D828D981761F005
:100FF000A28DAE0FBF2FB11D5D968C91928D9F5F1C
:101000009F73928F90E008958FEF9FEF0895FC01FA
:10101000918D828D981731F0828DE80FF11D858DAD
:1010200090E008958FEF9FEF0895FC01918D228D40
:10103000892F90E0805C9F4F821B91098F739927C5
:1010400008958CE191E00E94150821E0892B09F4B4
:1010500020E0822F089580E090E0892B29F00E9403
:10106000210881110C9400000895FC01A48DA80FA3
:10107000B92FB11DA35ABF4F2C91848D90E00196DA
:101080008F739927848FA689B7892C93A089B189FA
:101090008C91837080648C93938D848D981306C09B
:1010A0000288F389E02D80818F7D80830895EF92FF
:1010B000FF920F931F93CF93DF93EC0181E0888F12
:1010C0009B8D8C8D98131AC0E889F989808185FFE2
:1010D00015C09FB7F894EE89FF896083E889F98984
:1010E00080818370806480839FBF81E090E0DF9186
:1010F000CF911F910F91FF90EF900895F62E0B8DD9
:1011000010E00F5F1F4F0F731127E02E8C8D8E1193
:101110000CC00FB607FCFACFE889F989808185FFFA
:10112000F5CFCE010E943508F1CFEB8DEC0FFD2FEE
:10113000F11DE35AFF4FF0829FB7F8940B8FEA89B5
:10114000FB8980818062CFCFCF93DF93EC01888DC4
:101150008823B9F0AA89BB89E889F9898C9185FD32
:1011600003C0808186FD0DC00FB607FCF7CF8C91C0
:1011700085FFF2CF808185FFEDCFCE010E9435083B
:10118000E9CFDF91CF9108951F920F920FB60F9282
:1011900011242F933F938F939F93AF93BF9380918D
:1011A000EC019091ED01A091EE01B091EF01309131
:1011B000EB0123E0230F2D3758F50196A11DB11D3A
:1011C0002093EB018093EC019093ED01A093EE014D
:1011D000B093EF018091E7019091E801A091E901BE
:1011E000B091EA010196A11DB11D8093E701909392
:1011F000E801A093E901B093EA01BF91AF919F91FB
:101200008F913F912F910F900FBE0F901F901895C7
:1012100026E8230F0296A11DB11DD2CF1F920F9277
:101220000FB60F9211242F933F934F935F936F93B9
:101230007F938F939F93AF93BF93EF93FF938CE133
:1012400091E00E943508FF91EF91BF91AF919F917E
:101250008F917F916F915F914F913F912F910F905F
:101260000FBE0F901F9018951F920F920FB60F92FE
:1012700011242F938F939F93EF93FF93E0912C0171
:10128000F0912D018081E0913201F091330182FDD6
:101290001BC09081809135018F5F8F732091360143
:1012A000821741F0E0913501F0E0E45EFE4F958F4A
:1012B00080933501FF91EF919F918F912F910F9026
:1012C0000FBE0F901F9018958081F4CFCF93DF93BE
:1012D00000D000D01F92CDB7DEB7789484B582607D
:1012E00084BD84B5816084BD85B5826085BD85B5CA
:1012F000816085BD80916E00816080936E00109248
:1013000081008091810082608093810080918100C2
:101310008160809381008091800081608093800053
:101320008091B10084608093B1008091B0008160B1
:101330008093B00080917A00846080937A008091DD
:101340007A00826080937A0080917A008160809335
:101350007A0080917A00806880937A001092C100B0
:10136000E0912C01F0912D0182E08083E091280131
:10137000F09129011082E0912A01F0912B018FEC6C
:10138000808310923401E0913001F091310186E0C8
:101390008083E0912E01F0912F0180818061808314
:1013A000E0912E01F0912F01808188608083E0918F
:1013B0002E01F0912F01808180688083E0912E01C1
:1013C000F0912F0180818F7D808362E084E00E9414
:1013D0000C0760E081E10E940C0760E08AE00E9457
:1013E0000C0761E083E00E940C0761E089E00E9445
:1013F0000C0761E08BE00E940C0783E28093B00051
:1014000081E08093B10082E88093800089E180933D
:1014100081008FEF90E0909387008093860022E018
:10142000222E312C2FB7F8948091EC019091ED0190
:10143000A091EE01B091EF012FBF8093E301909353
:10144000E401A093E501B093E6018EE00E94A507B8
:101450007C018FE00E94A5075C0180E10E94A50746
:10146000BC01F701EE0FFF1FE859FB4F85919491E6
:1014700000E014E0081B190B1093E2010093E10156
:10148000F501EE0FFF1FE859FB4F8591949120E085
:1014900034E0281B390B3093E0012093DF01072E45
:1014A000000C880B990B0E94431020E030EC4FE7B2
:1014B00054E40E94990F2B013C01B701FF0C880BEB
:1014C000990B0E94431020E030EC4FE754E40E9457
:1014D000990F9B01AC0160E070E080E89FE30E94FF
:1014E000270F2AE939E949E15FE30E94F8102DEC62
:1014F0003CEC4CE45EE30E94280FA30192010E94A1
:10150000F8106B017C01B501BB0C880B990B0E9494
:10151000431020E030EC4FE754E40E94990F9B0108
:10152000AC0160E070E080E89FE30E94270F2AE9A9
:1015300039E949E15FE30E94F8102DEC3CEC4CE402
:101540005EE30E94280FA30192010E94F8106983B4
:101550007A838B839C8384E00E94B5064C0181E1F1
:101560000E94B5065C018AE00E94B5062091030145
:10157000309104012130310521F421E081149104DE
:1015800061F020910101309102012130310521F4F7
:1015900021E0A114B10409F020E0309100013D8365
:1015A000332329F031E03D83009709F01D829092AA
:1015B000040180920301B0920201A092010131E086
:1015C000892B09F430E030930001222309F49DC0F7
:1015D0008091DD019091DE01029709F0C4C28091F3
:1015E000DB019091DC019093DA018093D90181E0D5
:1015F00090E09093DE018093DD011092D50110926E
:10160000D6011092D7011092D8010E946C0E20EDE5
:1016100037E040E050E00E94C40E685E73408109EC
:1016200091090E94431020E030E04AE754E40E9410
:10163000990F4B015C016091E1017091E201072E6D
:10164000000C880B990B0E9443109B01AC01C50153
:10165000B4010E94F810A70196010E94F8104B01F6
:101660005C01B801110F880B990B0E9443109B017C
:10167000AC01C501B4010E94280F0E940B107093A9
:10168000D4016093D3016091DF017091E001072ED6
:10169000000C880B990B0E9443104B015C010E94C7
:1016A0006C0E20ED37E040E050E00E94C40E685E12
:1016B0007340810991090E94431020E030E04AE71D
:1016C00054E40E94990F2B013C016091DF0170915D
:1016D000E001072E000C880B990B0E9443109B0120
:1016E000AC01C301B2010E94F81029813A814B81FB
:1016F0005C810E94F810A50194010E94280F0E94AD
:101700000B107093D2016093D1019D81992309F44C
:101710009FC08091CF019091D001029709F026C21D
:101720008091CD019091CE019093CC018093CB011B
:1017300021E030E03093D0012093CF011092C70117
:101740001092C8011092C9011092CA016091E10182
:101750007091E201072E000C880B990B0E94431038
:101760004B015C010E946C0E20ED37E040E050E040
:101770000E94C40E685E7340810991090E94431063
:1017800020E030E04AE754E40E94990F2B013C012D
:101790006091E1017091E201072E000C880B990B1A
:1017A0000E9443109B01AC01C301B2010E94F810DA
:1017B000A70196010E94F810A50194010E94280F2C
:1017C0000E940B107093C6016093C5016091DF0108
:1017D0007091E001072E000C880B990B0E944310BA
:1017E0006B017C010E946C0E20ED37E040E050E080
:1017F0000E94C40E685E7340810991090E944310E3
:1018000020E030E04AE754E40E94990F4B015C016C
:101810006091DF017091E001072E000C880B990B9D
:101820000E9443109B01AC01C501B4010E94F81055
:1018300029813A814B815C810E94F810A7019601B1
:101840000E94280F0E940B107093C4016093C30183
:101850008091E3019091E401A091E501B091E6014E
:101860004091BF015091C0016091C1017091C201CE
:1018700084179507A607B70709F468C18093BF01CD
:101880009093C001A093C101B093C2018091DD018A
:101890009091DE01C090D501D090D601E090D701A3
:1018A000F090D8018130910509F063C1C701B601FC
:1018B0000E940B10FB01E859FF4FE4912091D901E0
:1018C0003091DA01032E000C440B550B2F5F3109C8
:1018D00041095109AE2FB0E00E94E30E2FEF30E036
:1018E00040E050E00E94C40E21503F4F4F4F5F4FE9
:1018F0003093DC012093DB016091D3017091D4011E
:10190000072E000C880B990B0E9443102DEC3CEC29
:101910004CE45DE30E94F81020E030E040E05FE33B
:101920000E94F810A70196010E94280F6093D5012C
:101930007093D6018093D7019093D801C090D501C0
:10194000D090D601E090D701F090D80120E030E0AF
:1019500040E854E4C701B6010E94F310181674F46D
:1019600020E030E040E055E4C701B6010E94940F4A
:1019700087FF04C03092DE012092DD0120E030E0DC
:1019800040E055E4C701B6010E94F31087FD0FC087
:101990001092D5011092D6011092D7011092D80161
:1019A0001092DE011092DD0131E03093BE01809192
:1019B000BE01882369F08091BC019091BD01019620
:1019C0008B3091050CF0EBC09093BD018093BC016E
:1019D0000091DB011091DC01B80189E00E94480709
:1019E00020EA209FC001219F900D11246FEF70E02D
:1019F0000E94651183E00E9448078091CF01909179
:101A0000D001C090C701D090C801E090C901F0900A
:101A1000CA018130910509F0C9C0C701B6010E9411
:101A20000B10FB01E859FF4FE4912091CB0130915D
:101A3000CC01032E000C440B550B2F5F31094109DB
:101A40005109AE2FB0E00E94E30E2FEF30E040E0EE
:101A500050E00E94C40E21503F4F4F4F5F4F3093D4
:101A6000CE012093CD016091C5017091C601072E72
:101A7000000C880B990B0E9443102DEC3CEC4CE4BD
:101A80005DE30E94F81020E030E040E05FE30E9458
:101A9000F810A70196010E94280F6093C701709368
:101AA000C8018093C9019093CA01C090C701D0902A
:101AB000C801E090C901F090CA0120E030E040E8A0
:101AC00054E4C701B6010E94F310181674F420E024
:101AD00030E040E055E4C701B6010E94940F87FF53
:101AE00004C03092D0012092CF0120E030E040E0ED
:101AF00055E4C701B6010E94F31087FD0FC0109294
:101B0000C7011092C8011092C9011092CA01109227
:101B1000D0011092CF0131E03093BB018091BB0125
:101B2000882369F08091B9019091BA0101968B30B8
:101B300091050CF051C09093BA018093B901609166
:101B4000CD017091CE018BE00E94480780E090E0CB
:101B5000892B09F467CC0E942108882309F462CC00
:101B60000E9400005FCC90E080E03DCD90E080E0FE
:101B7000DBCD029709F0E2CEC701B6010E940B103F
:101B8000FB01F450E859FF4FE491F0E0F093DC01E1
:101B9000E093DB016091D1017091D201B1CE10923E
:101BA000BD011092BC011092BE0112CF029709F044
:101BB0007CCFC701B6010E940B10FB01F450E8591D
:101BC000FF4FE491F0E0F093CE01E093CD016091FE
:101BD000C3017091C4014BCF1092BA011092B901A8
:101BE0001092BB01ACCFECE1F1E01382128288EEDF
:101BF00093E0A0E0B0E084839583A683B7838DE073
:101C000091E09183808385EC90E09587848784ECD4
:101C100090E09787868780EC90E0918B808B81ECB9
:101C200090E0938B828B82EC90E0958B848B86EC9A
:101C300090E0978B868B118E128E138E148E0895E2
:101C40008F929F92AF92BF92CF92DF92EF92FF92CC
:101C5000CF93DF93EC01688179818A819B81611543
:101C600071058105910521F464E279ED8BE597E03A
:101C70002DE133EF41E050E00E94C40E49015A01CA
:101C80009B01AC01A7EAB1E40E94E30E6B017C0169
:101C9000ACEEB4EFA50194010E94F10EC60ED71E62
:101CA000E81EF91EF7FE06C081E0C81AD108E10857
:101CB00080E8F80AC882D982EA82FB82C701B601AD
:101CC0009F77DF91CF91FF90EF90DF90CF90BF9003
:101CD000AF909F908F9008958F929F92AF92BF92F6
:101CE000CF92DF92EF92FF92609105017091060111
:101CF0008091070190910801611571058105910599
:101D000021F464E279ED8BE597E02DE133EF41E0DA
:101D100050E00E94C40E49015A019B01AC01A7EAA0
:101D2000B1E40E94E30E6B017C01ACEEB4EFA501BF
:101D300094010E94F10EC60ED71EE81EF91EF7FE92
:101D400006C081E0C81AD108E10880E8F80AC0920C
:101D50000501D0920601E0920701F0920801C70147
:101D6000B6019F77FF90EF90DF90CF90BF90AF903C
:101D70009F908F9008956093050170930601809362
:101D80000701909308010895052E97FB1EF4009417
:101D90000E94DB0E57FD07D00E94F60E07FC03D011
:101DA0004EF40C94DB0E50954095309521953F4FA5
:101DB0004F4F5F4F089590958095709561957F4F37
:101DC0008F4F9F4F08950E94180FA59F900DB49FAD
:101DD000900DA49F800D911D11240895B7FF0C94C0
:101DE000E30E0E94E30E821B930B0895A1E21A2ECC
:101DF000AA1BBB1BFD010DC0AA1FBB1FEE1FFF1FAF
:101E0000A217B307E407F50720F0A21BB30BE40BFE
:101E1000F50B661F771F881F991F1A9469F7609545
:101E20007095809590959B01AC01BD01CF010895FF
:101E3000A29FB001B39FC001A39F700D811D11240B
:101E4000911DB29F700D811D1124911D0895505850
:101E5000BB27AA270E943F0F0C94B9100E94AB1019
:101E600038F00E94B21020F039F49F3F19F426F4A4
:101E70000C94A8100EF4E095E7FB0C94A210E92F47
:101E80000E94CA1058F3BA176207730784079507B0
:101E900020F079F4A6F50C94EC100EF4E0950B2EDE
:101EA000BA2FA02D0B01B90190010C01CA01A001AC
:101EB0001124FF27591B99F0593F50F4503E68F107
:101EC0001A16F040A22F232F342F4427585FF3CF48
:101ED000469537952795A795F0405395C9F77EF419
:101EE0001F16BA0B620B730B840BBAF09150A1F062
:101EF000FF0FBB1F661F771F881FC2F70EC0BA0FE8
:101F0000621F731F841F48F4879577956795B7956F
:101F1000F7959E3F08F0B0CF9395880F08F099276A
:101F2000EE0F9795879508950E947E1008F481E042
:101F300008950E94AD0F0C94B9100E94B21058F091
:101F40000E94AB1040F029F45F3F29F00C94A210DE
:101F500051110C94ED100C94A8100E94CA1068F353
:101F60009923B1F3552391F3951B550BBB27AA2752
:101F700062177307840738F09F5F5F4F220F331F8C
:101F8000441FAA1FA9F335D00E2E3AF0E0E832D054
:101F900091505040E695001CCAF72BD0FE2F29D057
:101FA000660F771F881FBB1F261737074807AB0729
:101FB000B0E809F0BB0B802DBF01FF2793585F4F9E
:101FC0003AF09E3F510578F00C94A2100C94ED105D
:101FD0005F3FE4F3983ED4F3869577956795B79580
:101FE000F7959F5FC9F7880F911D9695879597F98B
:101FF0000895E1E0660F771F881FBB1F6217730704
:102000008407BA0720F0621B730B840BBA0BEE1F18
:1020100088F7E09508950E9412106894B1110C940D
:10202000ED1008950E94D21088F09F5798F0B92FB4
:102030009927B751B0F0E1F0660F771F881F991FFD
:102040001AF0BA95C9F714C0B13091F00E94EC10A3
:10205000B1E008950C94EC10672F782F8827B85FB3
:1020600039F0B93FCCF3869577956795B395D9F755
:102070003EF490958095709561957F4F8F4F9F4F5F
:102080000895E89409C097FB3EF49095809570956B
:1020900061957F4F8F4F9F4F9923A9F0F92F96E9B4
:1020A000BB279395F695879577956795B795F11129
:1020B000F8CFFAF4BB0F11F460FF1BC06F5F7F4FC6
:1020C0008F4F9F4F16C0882311F096E911C07723D8
:1020D00021F09EE8872F762F05C0662371F096E8E1
:1020E000862F70E060E02AF09A95660F771F881FB0
:1020F000DAF7880F9695879597F90895990F000854
:10210000550FAA0BE0E8FEEF16161706E807F907C9
:10211000C0F012161306E407F50798F0621B730B64
:10212000840B950B39F40A2661F0232B242B252BE5
:1021300021F408950A2609F4A140A6958FEF811D88
:10214000811D089597F99F6780E870E060E0089529
:102150009FEF80EC089500240A94161617061806BF
:102160000906089500240A9412161306140605069B
:102170000895092E0394000C11F4882352F0BB0F2C
:1021800040F4BF2B11F460FF04C06F5F7F4F8F4F8F
:102190009F4F089557FD9058440F551F59F05F3FCA
:1021A00071F04795880F97FB991F61F09F3F79F079
:1021B00087950895121613061406551FF2CF4695FB
:1021C000F1DF08C0161617061806991FF1CF86957D
:1021D0007105610508940895E894BB276627772761
:1021E000CB0197F908950E947E1008F48FEF0895AF
:1021F0000E940B110C94B9100E94AB1038F00E9491
:10220000B21020F0952311F00C94A2100C94A81099
:1022100011240C94ED100E94CA1070F3959FC1F325
:10222000950F50E0551F629FF001729FBB27F00D84
:10223000B11D639FAA27F00DB11DAA1F649F6627D9
:10224000B00DA11D661F829F2227B00DA11D621F28
:10225000739FB00DA11D621F839FA00D611D221FE2
:10226000749F3327A00D611D231F849F600D211DC6
:10227000822F762F6A2F11249F5750409AF0F1F049
:1022800088234AF0EE0FFF1FBB1F661F771F881FB2
:1022900091505040A9F79E3F510580F00C94A21038
:1022A0000C94ED105F3FE4F3983ED4F38695779558
:1022B0006795B795F795E7959F5FC1F7FE2B880F58
:1022C000911D9695879597F9089597FB072E16F41B
:1022D000009407D077FD09D00E94791107FC05D042
:1022E0003EF4909581959F4F0895709561957F4F2D
:1022F0000895AA1BBB1B51E107C0AA1FBB1FA6174D
:10230000B70710F0A61BB70B881F991F5A95A9F79E
:1023100080959095BC01CD010895EE0FFF1F0590AB
:10232000F491E02D0994F894FFCF01010001000120
:10233000000000000000005708B707E407A40815D4
:0623400008F30707080086
:107800000C94343C0C94513C0C94513C0C94513CE1
:107810000C94513C0C94513C0C94513C0C94513CB4
:107820000C94513C0C94513C0C94513C0C94513CA4
:107830000C94513C0C94513C0C94513C0C94513C94
:107840000C94513C0C94513C0C94513C0C94513C84
:107850000C94513C0C94513C0C94513C0C94513C74
:107860000C94513C0C94513C11241FBECFEFD8E036
:10787000DEBFCDBF11E0A0E0B1E0ECE9FFE702C060
:1078800005900D92A230B107D9F712E0A2E0B1E065
:1078900001C01D92AD30B107E1F70E942D3D0C945F
:1078A000CC3F0C94003C982F959595959595959582
:1078B000905D8F708A307CF0282F295A8091C0000B
:1078C00085FFFCCF9093C6008091C00085FFFCCF60
:1078D0002093C6000895282F205DF0CF982F809127
:1078E000C00085FFFCCF9093C6000895EF92FF92F1
:1078F0000F931F93EE24FF2487018091C00087FD22
:1079000017C00894E11CF11C011D111D81E4E8164B
:1079100082E4F8068FE0080780E0180770F3E09132
:107920000401F091050109958091C00087FFE9CF1E
:107930008091C6001F910F91FF90EF9008950E94D3
:10794000763C982F8091C00085FFFCCF9093C600B5
:1079500091362CF490330CF09053892F089597555D
:10796000892F08951F930E949F3C182F0E949F3CCF
:107970001295107F810F1F9108951F93182F882350
:1079800021F00E94763C1150E1F71F9108951F935A
:10799000182F0E94763C803249F0809103018F5F5E
:1079A000809303018530C1F01F9108958091C0003C
:1079B00085FFFCCF84E18093C6008091C00085FFE5
:1079C000FCCF1093C6008091C00085FFFCCF80E102
:1079D0008093C6001F910895E0910401F091050184
:1079E00009951F9108950E94763C803241F0809164
:1079F00003018F5F80930301853081F008958091AA
:107A0000C00085FFFCCF84E18093C6008091C00058
:107A100085FFFCCF80E18093C6000895E0910401CA
:107A2000F09105010995089540E951E08823A1F0FE
:107A30002D9A28EE33E0FA013197F1F721503040CA
:107A4000D1F72D9828EE33E0FA013197F1F7215064
:107A50003040D1F7815061F708953F924F925F9285
:107A60006F927F928F929F92AF92BF92CF92DF924E
:107A7000EF92FF920F931F93CF93DF93000080E16B
:107A80008093C4001092C50088E18093C10086E015
:107A90008093C2005098589A259A81E00E94143D24
:107AA00024E1F22E9EE1E92E85E9D82E0FE0C02ECA
:107AB00010E1B12EAA24A394B1E49B2EA6E58A2E50
:107AC000F2E57F2EE0E26E2E79E4572E63E5462E36
:107AD00050E5352E0E94763C8033B1F18133B9F107
:107AE000803409F46FC0813409F476C0823409F41B
:107AF00085C0853409F488C0803531F1823521F1A3
:107B0000813511F1853509F485C0863509F48DC0BC
:107B1000843609F496C0843709F403C1853709F423
:107B200072C1863709F466C0809103018F5F80932C
:107B30000301853079F6E0910401F0910501099582
:107B40000E94763C803351F60E94F33CC3CF0E94E2
:107B5000763C803249F78091C00085FFFCCFF092DF
:107B6000C6008091C00085FFFCCF9092C600809136
:107B7000C00085FFFCCF8092C6008091C00085FFC9
:107B8000FCCF7092C6008091C00085FFFCCF609250
:107B9000C6008091C00085FFFCCF5092C600809146
:107BA000C00085FFFCCF4092C6008091C00085FFD9
:107BB000FCCF3092C6008091C00085FFFCCFB09210
:107BC000C60088CF0E94763C863808F4BDCF0E945C
:107BD000763C0E94F33C7ECF0E94763C803809F4CC
:107BE0009CC0813809F40BC1823809F43CC1883942
:107BF00009F48FC080E00E94C73C6CCF84E10E94F2
:107C0000BD3C0E94F33C66CF85E00E94BD3C0E94D3
:107C1000F33C60CF0E94763C809306010E94763C44
:107C2000809307010E94F33C55CF0E94763C80333D
:107C300009F41DC183E00E94BD3C80E00E94C73C66
:107C400049CF0E94763C809309020E94763C809343
:107C5000080280910C028E7F80930C020E94763C79
:107C6000853409F415C18091080290910902892B8D
:107C700089F000E010E00E94763CF801E85FFE4FDA
:107C800080830F5F1F4F80910802909109020817AF
:107C9000190788F30E94763C803209F045CF809125
:107CA0000C0280FF01C16091060170910701660F0F
:107CB000771F7093070160930601A0910802B091AD
:107CC00009021097C9F0E8E0F1E09B01AD014E0F09
:107CD0005F1FF999FECF32BD21BD819180BDFA9A17
:107CE000F99A2F5F3F4FE417F50799F76A0F7B1F4B
:107CF00070930701609306018091C00085FFFCCF5F
:107D0000F092C6008091C00085FFFCCFB092C60003
:107D1000E1CE83E00E94C73CDDCE82E00E94C73CFA
:107D2000D9CE0E94763C809309020E94763C8093D3
:107D300008028091060190910701880F991F909386
:107D40000701809306010E94763C853409F4A6C0A1
:107D500080910C028E7F80930C020E94763C8032D0
:107D600009F0B8CE8091C00085FFFCCFF092C6002C
:107D7000609108027091090261157105B9F140E046
:107D800050E080910C02A82FA170B82FB27011C0E2
:107D9000BB2309F45CC0E0910601F0910701319624
:107DA000F0930701E09306014F5F5F4F46175707B7
:107DB000E8F4AA2369F3F999FECF209106013091E6
:107DC000070132BD21BDF89A90B58091C00085FFB2
:107DD000FCCF9093C6002F5F3F4F30930701209355
:107DE00006014F5F5F4F4617570718F38091C00099
:107DF00085FDE5CE8091C00085FFF8CFE0CE81E023
:107E00000E94C73C67CE0E94763C803209F08CCE3F
:107E10008091C00085FFFCCFF092C6008091C00029
:107E200085FFFCCFE092C6008091C00085FFFCCFAB
:107E3000D092C6008091C00085FFFCCFC092C600E2
:107E40008091C00085FFFCCFB092C60043CEE09188
:107E50000601F091070194918091C00085FFFCCF4D
:107E60009093C6009CCF80E10E94C73C33CE0E9415
:107E7000763C0E94763C182F0E94763C112309F430
:107E800083C0113009F484C08FE00E94C73C22CE29
:107E900080910C02816080930C02E5CE80910C02EF
:107EA000816080930C0259CF809107018823880F4D
:107EB000880B8A2180930B02809106019091070123
:107EC000880F991F90930701809306018091080203
:107ED00080FF09C080910802909109020196909359
:107EE000090280930802F894F999FECF1127E091D6
:107EF0000601F0910701C8E0D1E08091080290915D
:107F00000902103091F40091570001700130D9F34B
:107F100003E000935700E89500915700017001308D
:107F2000D9F301E100935700E89509901990009169
:107F3000570001700130D9F301E000935700E89534
:107F40001395103498F011270091570001700130FB
:107F5000D9F305E000935700E895009157000170B0
:107F60000130D9F301E100935700E895329602976A
:107F700009F0C7CF103011F00296E5CF112480919F
:107F8000C00085FFB9CEBCCE8EE10E94C73CA2CD19
:0E7F900085E90E94C73C9ECDF894FFCF80008B
:00000001FF
