:020000040000FA
:100000000C94A2000C94BF000C94BF000C94BF0091
:100010000C94BF000C94BF000C94BF000C94BF0064
:100020000C94BF000C94BF000C94BF000C94BF0054
:100030000C94BF000C94BF000C94BF000C94BF0044
:100040000C945B010C94BF000C94BF000C94BF0097
:100050000C94BF000C94BF000C94BF000C94BF0024
:100060000C94BF000C94BF0007634236B79BD8A71F
:100070001A39685618AEBAAB558C1D3CB7CC5763CD
:10008000BD6DEDFD753EF6177231BF000000803F7B
:1000900008000000BE922449123EABAAAA2ABECD97
:1000A000CCCC4C3E00000080BEABAAAAAA3E000009
:1000B0000000BF000000803F000000000008417801
:1000C000D3BB4387D1133D190E3CC3BD4282AD2B38
:1000D0003E68EC8276BED98FE1A93E4C80EFFFBE30
:1000E00001C4FF7F3F00000000000000000023006B
:1000F0002600290000000000240027002A0000003C
:100100000000250028002B00040404040404040457
:1001100002020202020203030303030301020408B2
:100120001020408001020408102001020408102061
:1001300000000008000201000003040700000000A6
:100140000000000011241FBECFEFD8E0DEBFCDBFFE
:1001500011E0A0E0B1E0EEE3FFE002C005900D92F7
:10016000A230B107D9F721E0A2E0B1E001C01D92B1
:10017000A431B207E1F70E94A5010C949D070C94ED
:100180000000833081F028F4813099F08230A9F0AA
:1001900008958730A9F08830C9F08430B1F4809197
:1001A00080008F7D03C0809180008F7780938000D6
:1001B000089584B58F7784BD089584B58F7DFBCF76
:1001C0008091B0008F778093B00008958091B00047
:1001D0008F7DF9CF1F93CF93DF93282F30E0F90164
:1001E000E05DFE4F8491F901E45EFE4FD491F90188
:1001F000E85FFE4FC491CC23A9F0162F81110E9415
:10020000C100EC2FF0E0EE0FFF1FE250FF4FA59171
:10021000B4918FB7F894EC91111108C0D095DE23FA
:10022000DC938FBFDF91CF911F910895DE2BF8CF24
:10023000CF93DF9390E0FC01E45EFE4F2491885F52
:100240009E4FFC0184918823D1F090E0880F991F84
:10025000FC01EC50FF4FA591B491FC01E250FF4F1F
:10026000C591D49161110EC09FB7F8948C91E22F83
:10027000E0958E238C932881E223E8839FBFDF9152
:10028000CF9108958FB7F894EC91E22BEC938FBF48
:10029000F6CF8E50806480937C0080917A008064D9
:1002A00080937A0080917A0086FDFCCF809178005F
:1002B0009091790008951F920F920FB60F9211241A
:1002C0002F933F938F939F93AF93BF938091100190
:1002D00090911101A0911201B091130130910F0181
:1002E00023E0230F2D3758F50196A11DB11D209352
:1002F0000F018093100190931101A0931201B0930C
:10030000130180910B0190910C01A0910D01B0910E
:100310000E010196A11DB11D80930B0190930C015C
:10032000A0930D01B0930E01BF91AF919F918F915A
:100330003F912F910F900FBE0F901F90189526E8B8
:10034000230F0296A11DB11DD2CF789484B582608F
:1003500084BD84B5816084BD85B5826085BD85B569
:10036000816085BD80916E00816080936E001092E7
:100370008100809181008260809381008091810062
:1003800081608093810080918000816080938000F3
:100390008091B10084608093B1008091B000816051
:1003A0008093B00080917A00846080937A0080917D
:1003B0007A00826080937A0080917A0081608093D5
:1003C0007A0080917A00806880937A001092C10050
:1003D00060E082E10E94180161E08BE00E94180158
:1003E00061E083E00E94180161E08AE00E94180148
:1003F00061E08BE00E94EA0060E083E00E94EA0096
:1004000081E28093800089E08093810088248A942F
:1004100033E0932EA12CB12C40E0642E40E0742EEA
:100420008FB7F894C0901001D0901101E0901201A4
:10043000F09013018FBF8EE00E9449012C018FE0E4
:100440000E9449018C0180E10E9449011C0181E167
:100450000E944901811524E0920714F08FEF93E088
:10046000BC0197FF02C070E060E0072E000C880B13
:10047000990B0E94180520E030EC4FE754E40E94ED
:100480006E0420E030E040EA50E40E94A4059B01A5
:10049000AC0160E070E080E090E40E94110620E092
:1004A00030E040E85FE30E94010420E030E04FE7E5
:1004B00053E40E94A40520E030E048EF51E40E949C
:1004C0006E0420E030E040E05FE30E9402040E94FE
:1004D000E004EB016F3F710519F014F0CFEFD0E0AD
:1004E0002FE730E0D8010E949607A50194010E94F1
:1004F000B10320583F4F4F4F5F4FD7FF02C0D0E0AE
:10050000C0E0C29F8001C39F100DD29F100D112427
:10051000012F110F110BB201550C880B990B27E01D
:10052000660F771F881F991F2A95D1F7A50194019F
:100530000E94B1032054310941095109020F131FD0
:1005400061E08AE00E941801101611060CF441C007
:1005500060E08AE00E94EA00E2E4F1E08491EEE2E9
:10056000F1E0C491EAE1F1E0D491D11179C080E0E9
:1005700080930A01809100018111BAC060E08BE094
:100580000E94EA0081E08093000180910201909135
:100590000301A0910401B09105010097A105B105E7
:1005A00089F0C816D906EA06FB0660F060E083E031
:1005B0000E94EA00109202011092030110920401BD
:1005C000109205016114710409F42ACF0E94000001
:1005D00027CF0F3F110514F061E0BBCFEAE3F1E054
:1005E0008491833019F140F48130B1F08230C9F048
:1005F000003811058CF7ACCF873011F1883041F10C
:100600008430B1F7809180008062809380001093E5
:100610008B0000938A00A0CF84B5806884BD07BD9D
:100620009BCF84B5806284BD08BD96CF8091800049
:1006300080688093800010938900009388008CCF9D
:100640008091B00080688093B0000093B30084CFA5
:100650008091B00080628093B0000093B4007CCFA2
:1006600081110E94C100ED2FF0E0EE0FFF1FE65157
:10067000FF4FA591B4918C91C82309F478CF809154
:100680000A01811133C080910001823079F5809197
:10069000060190910701A0910801B091090197010D
:1006A0008601081B190B2A0B3B0BD901C8010697C1
:1006B000A105B105D8F0C0920601D0920701E092E1
:1006C0000801F092090110920001D701C601889635
:1006D000A11DB11D8093020190930301A093040119
:1006E000B093050161E083E00E94EA0081E040CF21
:1006F000813009F04ACF22E630E0D1010E9496070E
:10070000A50194010E94B103BA01A9014E5F5F4F98
:100710006F4F7F4F423051056105710520F442E073
:1007200050E060E070E08091060190910701A09197
:100730000801B091090197018601081B190B2A0BCA
:100740003B0BD901C80184179507A607B70708F422
:100750001CCF61E08BE00E94EA0012E010930001E0
:1007600014CF052E97FB1EF400940E94C80357FD7A
:1007700007D00E94D00307FC03D04EF40C94C803AA
:1007800050954095309521953F4F4F4F5F4F0895BD
:1007900090958095709561957F4F8F4F9F4F0895ED
:1007A000A1E21A2EAA1BBB1BFD010DC0AA1FBB1F75
:1007B000EE1FFF1FA217B307E407F50720F0A21BE7
:1007C000B30BE40BF50B661F771F881F991F1A9454
:1007D00069F760957095809590959B01AC01BD017E
:1007E000CF010895A29FB001B39FC001A39F700DD8
:1007F000811D1124911DB29F700D811D1124911D29
:1008000008955058BB27AA270E9419040C946A0522
:100810000E945C0538F00E94630520F039F49F3F88
:1008200019F426F40C9459050EF4E095E7FB0C94AA
:100830005305E92F0E947B0558F3BA176207730727
:100840008407950720F079F4A6F50C949D050EF425
:10085000E0950B2EBA2FA02D0B01B90190010C01D0
:10086000CA01A0011124FF27591B99F0593F50F4E8
:10087000503E68F11A16F040A22F232F342F442740
:10088000585FF3CF469537952795A795F040539538
:10089000C9F77EF41F16BA0B620B730B840BBAF008
:1008A0009150A1F0FF0FBB1F661F771F881FC2F773
:1008B0000EC0BA0F621F731F841F48F48795779587
:1008C0006795B795F7959E3F08F0B0CF9395880F41
:1008D00008F09927EE0F9795879508950E94820456
:1008E0000C946A050E94630558F00E945C0540F074
:1008F00029F45F3F29F00C94530551110C949E0587
:100900000C9459050E947B0568F39923B1F3552394
:1009100091F3951B550BBB27AA2762177307840712
:1009200038F09F5F5F4F220F331F441FAA1FA9F3A8
:1009300035D00E2E3AF0E0E832D091505040E69596
:10094000001CCAF72BD0FE2F29D0660F771F881FF7
:10095000BB1F261737074807AB07B0E809F0BB0BEA
:10096000802DBF01FF2793585F4F3AF09E3F5105FE
:1009700078F00C9453050C949E055F3FE4F3983E89
:10098000D4F3869577956795B795F7959F5FC9F7E7
:10099000880F911D9695879597F90895E1E0660F68
:1009A000771F881FBB1F621773078407BA0720F0E1
:1009B000621B730B840BBA0BEE1F88F7E09508954A
:1009C0000E94E7046894B1110C949E0508950E945A
:1009D000830588F09F5798F0B92F9927B751B0F049
:1009E000E1F0660F771F881F991F1AF0BA95C9F7B3
:1009F00014C0B13091F00E949D05B1E008950C94AF
:100A00009D05672F782F8827B85F39F0B93FCCF361
:100A1000869577956795B395D9F73EF4909580952F
:100A2000709561957F4F8F4F9F4F0895E89409C04F
:100A300097FB3EF490958095709561957F4F8F4F11
:100A40009F4F9923A9F0F92F96E9BB279395F69527
:100A5000879577956795B795F111F8CFFAF4BB0FA5
:100A600011F460FF1BC06F5F7F4F8F4F9F4F16C009
:100A7000882311F096E911C0772321F09EE8872F93
:100A8000762F05C0662371F096E8862F70E060E04F
:100A90002AF09A95660F771F881FDAF7880F9695C8
:100AA000879597F9089597F99F6780E870E060E06F
:100AB00008959FEF80EC089500240A9416161706F7
:100AC00018060906089500240A941216130614063F
:100AD00005060895092E0394000C11F4882352F0A2
:100AE000BB0F40F4BF2B11F460FF04C06F5F7F4F5A
:100AF0008F4F9F4F089557FD9058440F551F59F041
:100B00005F3F71F04795880F97FB991F61F09F3FFA
:100B100079F087950895121613061406551FF2CF23
:100B20004695F1DF08C0161617061806991FF1CF73
:100B300086957105610508940895E894BB2766279A
:100B40007727CB0197F908950E94B7050C946A05A1
:100B50000E945C0538F00E94630520F0952311F097
:100B60000C9453050C94590511240C949E050E9475
:100B70007B0570F3959FC1F3950F50E0551F629F61
:100B8000F001729FBB27F00DB11D639FAA27F00DE6
:100B9000B11DAA1F649F6627B00DA11D661F829F0D
:100BA0002227B00DA11D621F739FB00DA11D621FF2
:100BB000839FA00D611D221F749F3327A00D611D0F
:100BC000231F849F600D211D822F762F6A2F1124F1
:100BD0009F5750409AF0F1F088234AF0EE0FFF1F24
:100BE000BB1F661F771F881F91505040A9F79E3F7B
:100BF000510580F00C9453050C949E055F3FE4F37F
:100C0000983ED4F3869577956795B795F795E795D0
:100C10009F5FC1F7FE2B880F911D9695879597F9D9
:100C20000895FA01EE0FFF1F309621053105A1F15D
:100C30006115710561F48038BFE39B0749F1689441
:100C40009038810561F08038BFEF9B0741F0992310
:100C50004AF5FF3FE1053105210519F1E8940894B3
:100C6000E795D901AA2329F4AB2FBE2FF85FD0F363
:100C700010C0FF5F70F4A695E0F7F73950F019F057
:100C8000FF3A38F49F779F930DD00F9007FC905850
:100C9000089546F00C94590560E070E080E89FE309
:100CA00008954FE79F775F934F933F932F930E9451
:100CB0000C072F913F914F915F910E94A4050C94D6
:100CC000690629F416F00C9453050C949D050C94B8
:100CD00059050E948305A8F39638A0F707F80F92EC
:100CE000E8942BE33AEA48EB5FE70E94BA050F92DB
:100CF0000F920F924DB75EB70F920E945407E8E62D
:100D0000F0E00E949B064F915F91EF91FF91E59576
:100D1000EE1FFF1F49F0FE57E0684427EE0F441F07
:100D2000FA95E1F74195550B0E94CE060F9007FE0C
:100D30000C94C2060895DF93CF931F930F93FF92F5
:100D4000EF92DF927B018C01689406C0DA2EEF01EE
:100D50000E94B705FE01E894A59125913591459132
:100D60005591A6F3EF010E941904FE019701A80115
:100D7000DA9469F7DF90EF90FF900F911F91CF9178
:100D8000DF9108959B01AC0160E070E080E89FE393
:100D90000C946E040C9453050C9488070E948305F0
:100DA000D8F39923C9F3940F511DA3F391505040E8
:100DB00094F059F0882332F0660F771F881F915006
:100DC0005040C1F79E3F51052CF7880F911D969515
:100DD000879597F908955F3FACF0983E9CF0BB274C
:100DE000869577956795B79508F4B1609395C1F7A7
:100DF000BB0F58F711F460FFE8CF6F5F7F4F8F4F45
:100E00009F4FE3CF0C949E0516F00C9488070C942A
:100E1000590568940C9453050E948305A8F39923FF
:100E2000C1F3AEF3DF93CF931F930F93FF92C92FBC
:100E3000DD2788232AF02197660F771F881FDAF7AE
:100E400020E030E040E85FEB9FE3883920F0803E0F
:100E500038F021968F770E940204E0E9F0E004C0A8
:100E60000E940204EDEBF0E00E949B068B01BE01A4
:100E7000EC01FB2E6F5771097595771F880B990B45
:100E80000E94180528E132E741E35FE30E94B705BD
:100E9000AF2D9801AE01FF900F911F91CF91DF917F
:100EA0000E9419040C946A05FA01DC01AA0FBB1F09
:100EB0009B01AC01BF5728F42227332744275078E1
:100EC00020C0B75190F4AB2F002446953795279555
:100ED000011CA395D2F3002071F0220F331F441F91
:100EE000B395DAF30ED00C94010461307105A0E8DB
:100EF0008A07B94630F49B01AC016627772788271B
:100F00009078309621F02083318342835383089573
:100F10009F3F31F0915020F4879577956795B7956D
:100F2000880F911D9695879597F908950E94F20371
:100F3000B7FF0895821B930B0895F894FFCF02002A
:107800000C94343C0C94513C0C94513C0C94513CE1
:107810000C94513C0C94513C0C94513C0C94513CB4
:107820000C94513C0C94513C0C94513C0C94513CA4
:107830000C94513C0C94513C0C94513C0C94513C94
:107840000C94513C0C94513C0C94513C0C94513C84
:107850000C94513C0C94513C0C94513C0C94513C74
:107860000C94513C0C94513C11241FBECFEFD8E036
:10787000DEBFCDBF11E0A0E0B1E0ECE9FFE702C060
:1078800005900D92A230B107D9F712E0A2E0B1E065
:1078900001C01D92AD30B107E1F70E942D3D0C945F
:1078A000CC3F0C94003C982F959595959595959582
:1078B000905D8F708A307CF0282F295A8091C0000B
:1078C00085FFFCCF9093C6008091C00085FFFCCF60
:1078D0002093C6000895282F205DF0CF982F809127
:1078E000C00085FFFCCF9093C6000895EF92FF92F1
:1078F0000F931F93EE24FF2487018091C00087FD22
:1079000017C00894E11CF11C011D111D81E4E8164B
:1079100082E4F8068FE0080780E0180770F3E09132
:107920000401F091050109958091C00087FFE9CF1E
:107930008091C6001F910F91FF90EF9008950E94D3
:10794000763C982F8091C00085FFFCCF9093C600B5
:1079500091362CF490330CF09053892F089597555D
:10796000892F08951F930E949F3C182F0E949F3CCF
:107970001295107F810F1F9108951F93182F882350
:1079800021F00E94763C1150E1F71F9108951F935A
:10799000182F0E94763C803249F0809103018F5F5E
:1079A000809303018530C1F01F9108958091C0003C
:1079B00085FFFCCF84E18093C6008091C00085FFE5
:1079C000FCCF1093C6008091C00085FFFCCF80E102
:1079D0008093C6001F910895E0910401F091050184
:1079E00009951F9108950E94763C803241F0809164
:1079F00003018F5F80930301853081F008958091AA
:107A0000C00085FFFCCF84E18093C6008091C00058
:107A100085FFFCCF80E18093C6000895E0910401CA
:107A2000F09105010995089540E951E08823A1F0FE
:107A30002D9A28EE33E0FA013197F1F721503040CA
:107A4000D1F72D9828EE33E0FA013197F1F7215064
:107A50003040D1F7815061F708953F924F925F9285
:107A60006F927F928F929F92AF92BF92CF92DF924E
:107A7000EF92FF920F931F93CF93DF93000080E16B
:107A80008093C4001092C50088E18093C10086E015
:107A90008093C2005098589A259A81E00E94143D24
:107AA00024E1F22E9EE1E92E85E9D82E0FE0C02ECA
:107AB00010E1B12EAA24A394B1E49B2EA6E58A2E50
:107AC000F2E57F2EE0E26E2E79E4572E63E5462E36
:107AD00050E5352E0E94763C8033B1F18133B9F107
:107AE000803409F46FC0813409F476C0823409F41B
:107AF00085C0853409F488C0803531F1823521F1A3
:107B0000813511F1853509F485C0863509F48DC0BC
:107B1000843609F496C0843709F403C1853709F423
:107B200072C1863709F466C0809103018F5F80932C
:107B30000301853079F6E0910401F0910501099582
:107B40000E94763C803351F60E94F33CC3CF0E94E2
:107B5000763C803249F78091C00085FFFCCFF092DF
:107B6000C6008091C00085FFFCCF9092C600809136
:107B7000C00085FFFCCF8092C6008091C00085FFC9
:107B8000FCCF7092C6008091C00085FFFCCF609250
:107B9000C6008091C00085FFFCCF5092C600809146
:107BA000C00085FFFCCF4092C6008091C00085FFD9
:107BB000FCCF3092C6008091C00085FFFCCFB09210
:107BC000C60088CF0E94763C863808F4BDCF0E945C
:107BD000763C0E94F33C7ECF0E94763C803809F4CC
:107BE0009CC0813809F40BC1823809F43CC1883942
:107BF00009F48FC080E00E94C73C6CCF84E10E94F2
:107C0000BD3C0E94F33C66CF85E00E94BD3C0E94D3
:107C1000F33C60CF0E94763C809306010E94763C44
:107C2000809307010E94F33C55CF0E94763C80333D
:107C300009F41DC183E00E94BD3C80E00E94C73C66
:107C400049CF0E94763C809309020E94763C809343
:107C5000080280910C028E7F80930C020E94763C79
:107C6000853409F415C18091080290910902892B8D
:107C700089F000E010E00E94763CF801E85FFE4FDA
:107C800080830F5F1F4F80910802909109020817AF
:107C9000190788F30E94763C803209F045CF809125
:107CA0000C0280FF01C16091060170910701660F0F
:107CB000771F7093070160930601A0910802B091AD
:107CC00009021097C9F0E8E0F1E09B01AD014E0F09
:107CD0005F1FF999FECF32BD21BD819180BDFA9A17
:107CE000F99A2F5F3F4FE417F50799F76A0F7B1F4B
:107CF00070930701609306018091C00085FFFCCF5F
:107D0000F092C6008091C00085FFFCCFB092C60003
:107D1000E1CE83E00E94C73CDDCE82E00E94C73CFA
:107D2000D9CE0E94763C809309020E94763C8093D3
:107D300008028091060190910701880F991F909386
:107D40000701809306010E94763C853409F4A6C0A1
:107D500080910C028E7F80930C020E94763C8032D0
:107D600009F0B8CE8091C00085FFFCCFF092C6002C
:107D7000609108027091090261157105B9F140E046
:107D800050E080910C02A82FA170B82FB27011C0E2
:107D9000BB2309F45CC0E0910601F0910701319624
:107DA000F0930701E09306014F5F5F4F46175707B7
:107DB000E8F4AA2369F3F999FECF209106013091E6
:107DC000070132BD21BDF89A90B58091C00085FFB2
:107DD000FCCF9093C6002F5F3F4F30930701209355
:107DE00006014F5F5F4F4617570718F38091C00099
:107DF00085FDE5CE8091C00085FFF8CFE0CE81E023
:107E00000E94C73C67CE0E94763C803209F08CCE3F
:107E10008091C00085FFFCCFF092C6008091C00029
:107E200085FFFCCFE092C6008091C00085FFFCCFAB
:107E3000D092C6008091C00085FFFCCFC092C600E2
:107E40008091C00085FFFCCFB092C60043CEE09188
:107E50000601F091070194918091C00085FFFCCF4D
:107E60009093C6009CCF80E10E94C73C33CE0E9415
:107E7000763C0E94763C182F0E94763C112309F430
:107E800083C0113009F484C08FE00E94C73C22CE29
:107E900080910C02816080930C02E5CE80910C02EF
:107EA000816080930C0259CF809107018823880F4D
:107EB000880B8A2180930B02809106019091070123
:107EC000880F991F90930701809306018091080203
:107ED00080FF09C080910802909109020196909359
:107EE000090280930802F894F999FECF1127E091D6
:107EF0000601F0910701C8E0D1E08091080290915D
:107F00000902103091F40091570001700130D9F34B
:107F100003E000935700E89500915700017001308D
:107F2000D9F301E100935700E89509901990009169
:107F3000570001700130D9F301E000935700E89534
:107F40001395103498F011270091570001700130FB
:107F5000D9F305E000935700E895009157000170B0
:107F60000130D9F301E100935700E895329602976A
:107F700009F0C7CF103011F00296E5CF112480919F
:107F8000C00085FFB9CEBCCE8EE10E94C73CA2CD19
:0E7F900085E90E94C73C9ECDF894FFCF80008B
:00000001FF
