:020000040000FA
:100000000C9462000C948A000C948A000C948A0070
:100010000C948A000C948A000C948A000C948A0038
:100020000C948A000C948A000C948A000C948A0028
:100030000C948A000C948A000C948A000C948A0018
:100040000C9446020C948A000C94B6020C94900214
:100050000C948A000C948A000C948A000C948A00F8
:100060000C948A000C948A000000000025002800EF
:100070002B0000000000240027002A0000000000E0
:1000800023002600290004040404040404040202DA
:100090000202020203030303030301020408102007
:1000A0004080010204081020010204081020000012
:1000B0000008000201000003040700000000000027
:1000C0000000C80611241FBECFEFD8E0DEBFCDBFB1
:1000D00011E0A0E0B1E0E6E6F3E102C005900D9288
:1000E000A233B107D9F721E0A2E3B1E001C01D922C
:1000F000AB3EB207E1F710E0C2E6D0E004C02197C2
:10010000FE010E94AB09C136D107C9F70E94E8027F
:100110000C94B1090C940000833081F028F48130F4
:1001200099F08230A9F008958730A9F08830C9F09D
:100130008430B1F4809180008F7D03C08091800075
:100140008F7780938000089584B58F7784BD08955C
:1001500084B58F7DFBCF8091B0008F778093B00006
:1001600008958091B0008F7DF9CFCF93DF93282F32
:1001700030E0F901E255FF4F8491F901E656FF4F57
:10018000D491F901EA57FF4FC491CC23A1F081111A
:100190000E948C00EC2FF0E0EE0FFF1FE458FF4FA1
:1001A000A591B491EC91ED2381E090E009F480E019
:1001B000DF91CF91089580E090E0FACFCF93DF9365
:1001C00090E0FC01E656FF4F24918A579F4FFC01B7
:1001D00084918823C9F090E0880F991FFC01EE58A4
:1001E000FF4FA591B491FC01E859FF4FC591D491FF
:1001F00061110DC09FB7F8948C91209582238C9348
:100200008881282328839FBFDF91CF910895623092
:1002100051F49FB7F8943C91822F809583238C935F
:10022000E8812E2BEFCF8FB7F894EC912E2B2C93E7
:100230008FBFEACF8E50806480937C0080917A00DB
:10024000806480937A0080917A0086FDFCCF809153
:100250007800909179000895AF92BF92CF92DF928B
:10026000EF92FF920F931F93CF93DF936C017B016B
:100270008B01040F151FEB015E01AE18BF08C017FC
:10028000D10759F06991D601ED91FC910190F0816F
:10029000E02DC6010995892B79F7C501DF91CF9132
:1002A0001F910F91FF90EF90DF90CF90BF90AF9094
:1002B0000895FC01538D448D252F30E0842F90E06C
:1002C000821B930B541710F0CF9608950197089551
:1002D000FC01918D828D981761F0A28DAE0FBF2F1A
:1002E000B11D5D968C91928D9F5F9F73928F90E070
:1002F00008958FEF9FEF0895FC01918D828D9817DF
:1003000031F0828DE80FF11D858D90E008958FEF1B
:100310009FEF0895FC01918D228D892F90E0805CE4
:100320009F4F821B91098F73992708958EE491E066
:100330000E948A0121E0892B09F420E0822F089590
:1003400080E090E0892B29F00E94960181110C94A5
:1003500000000895FC01A48DA80FB92FB11DA35A68
:10036000BF4F2C91848D90E001968F739927848FD5
:10037000A689B7892C93A089B1898C9183708064F8
:100380008C93938D848D981306C00288F389E02D99
:1003900080818F7D80830895EF92FF920F931F934A
:1003A000CF93DF93EC0181E0888F9B8D8C8D981328
:1003B0001AC0E889F989808185FF15C09FB7F89434
:1003C000EE89FF896083E889F98980818370806480
:1003D00080839FBF81E090E0DF91CF911F910F91CB
:1003E000FF90EF900895F62E0B8D10E00F5F1F4FDA
:1003F0000F731127E02E8C8D8E110CC00FB607FCE9
:10040000FACFE889F989808185FFF5CFCE010E9476
:10041000AA01F1CFEB8DEC0FFD2FF11DE35AFF4F39
:10042000F0829FB7F8940B8FEA89FB898081806204
:10043000CFCFCF93DF93EC01888D8823B9F0AA89C1
:10044000BB89E889F9898C9185FD03C0808186FD8F
:100450000DC00FB607FCF7CF8C9185FFF2CF8081DE
:1004600085FFEDCFCE010E94AA01E9CFDF91CF91A8
:100470000895FC0101900020E9F73197AF01481B76
:10048000590BBC018EE491E00C942C011F920F9249
:100490000FB60F9211242F933F938F939F93AF9397
:1004A000BF9380914A0190914B01A0914C01B09172
:1004B0004D013091490123E0230F2D3758F5019666
:1004C000A11DB11D2093490180934A0190934B01D6
:1004D000A0934C01B0934D0180914501909146014C
:1004E000A0914701B09148010196A11DB11D8093D3
:1004F000450190934601A0934701B0934801BF91F5
:10050000AF919F918F913F912F910F900FBE0F90C0
:100510001F90189526E8230F0296A11DB11DD2CF7A
:100520001F920F920FB60F9211242F933F934F9368
:100530005F936F937F938F939F93AF93BF93EF934B
:10054000FF938EE491E00E94AA01FF91EF91BF9189
:10055000AF919F918F917F916F915F914F913F915B
:100560002F910F900FBE0F901F9018951F920F9212
:100570000FB60F9211242F938F939F93EF93FF93B6
:10058000E0915E01F0915F018081E0916401F09162
:10059000650182FD1BC09081809167018F5F8F7321
:1005A00020916801821741F0E0916701F0E0E25B81
:1005B000FE4F958F80936701FF91EF919F918F91EF
:1005C0002F910F900FBE0F901F9018958081F4CF40
:1005D000CF93DF93CDB7DEB760970FB6F894DEBF49
:1005E0000FBECDBF789484B5826084BD84B5816030
:1005F00084BD85B5826085BD85B5816085BD8091EE
:100600006E00816080936E00109281008091810065
:10061000826080938100809181008160809381005D
:10062000809180008160809380008091B10084601F
:100630008093B1008091B00081608093B000809180
:100640007A00846080937A0080917A00826080933F
:100650007A0080917A00816080937A0080917A009C
:10066000806880937A001092C100E0915E01F09161
:100670005F0112E01083E0915A01F0915B0110825A
:10068000E0915C01F0915D018FEC80831092660136
:10069000E0916201F091630186E08083E091600166
:1006A000F0916101808180618083E0916001F0912F
:1006B0006101808188608083E0916001F091610137
:1006C000808180688083E0916001F0916101808188
:1006D0008F7D808360E08EE00E94DE0060E08FE02E
:1006E0000E94DE0060E080E10E94DE0061E083E0C5
:1006F0000E94DE0062E084E00E94DE0060E081E1B2
:100700000E94DE0061E089E00E94DE0061E08AE094
:100710000E94DE0061E08BE00E94DE0081EA8093AF
:10072000800089E08093810083E88093B00010937B
:10073000B10000E810E01093890000938800109346
:100740008B0000938A0080E88093B30084E00E94CD
:10075000B50011E01983009709F41982209109016D
:100760000981021799F02FB7F89440914A015091EE
:100770004B0160914C0170914D012FBF409341019D
:100780005093420160934301709344012FB7F89452
:1007900040914A0150914B0160914C0170914D0183
:1007A0002FBF0091410110914201209143013091EE
:1007B0004401401B510B620B730B43335105610520
:1007C000710518F12091080119811217F1F060915B
:1007D000400110930801892BC1F481E068276093E0
:1007E000400190E080E00E94F50683E291E00E94E3
:1007F0003902809140018111C8C28CE191E00E94D0
:1008000039028FE291E00E943902098100930901C7
:1008100081E10E94B5009C0191E02115310509F4A8
:1008200090E0232B01F180913F0181111CC02DEC40
:100830003CEC4CEC5DE320930401309305014093C4
:1008400006015093070110923B0110923C01109257
:100850003D0110923E011092370110923801109222
:10086000390110923A0190933F01009140010D83AC
:100870003AE0C32ED12CE12CF12C812C912C540187
:10088000839401110AC094E1C92ED12CE12CF12CE2
:1008900025E0822E912CA12CB12C8EE00E941A0111
:1008A000A7019601281939094A095B09DC010E9450
:1008B0002D072FEF33E040E050E00E940307CA010C
:1008C000B901680D791D8A1D9B1D0E9482082B01AC
:1008D0003C018FE00E941A012EE130E0DC010E9411
:1008E000A4092FEF33E040E050E00E940307CA0163
:1008F000B9016C5E7F4F8F4F9F4F0E9482086983C2
:100900007A838B839C8380E10E941A0123E030E08C
:10091000DC010E94A4092FEF33E040E050E00E9488
:100920000307CA01B9016F5F7F4F8F4F9F4F0E942E
:1009300082086D877E878F87988B8EE00E941A01D0
:100940001D81112309F4FBC1853521E092076CF468
:1009500087E197EBA1EDB8E380930001909301014B
:10096000A0930201B093030114C00FE612E123E04B
:100970003AE38A3A92400CF4F3C12FE632E143E8BD
:100980005AE32093000130930101409302015093F8
:10099000030180903B0190903C01A0903D01B090FC
:1009A0003E01C0900401D0900501E0900601F09056
:1009B0000701209137013091380140913901509160
:1009C0003A012D833E834F83588780910001909197
:1009D0000101A0910201B091030189879A87AB8739
:1009E000BC87A7019601C501B4010E946607A30157
:1009F00092010E94370929853A854B855C850E94C2
:100A00003709A70196010E9467072B013C0140921C
:100A100004015092050160920601709207012D8138
:100A20003E814F81588569817A818B819C810E94AA
:100A30006607A70196010E943709A50194010E944B
:100A4000660729853A854B855C850E943709A50193
:100A500094010E94670769837A838B839C836093E8
:100A60003B0170933C0180933D0190933E01A701AF
:100A70009601C501B4010E9437096B017C012D81EB
:100A80003E814F8158856D857E858F8598890E942E
:100A900037099B01AC01C701B6010E946607298591
:100AA0003A854B855C850E9437092D813E814F81B7
:100AB00058850E9467076B017C01C0923701D09274
:100AC0003801E0923901F0923A0120E030E040EF45
:100AD00051E4C301B2010E94670720E030E04FE714
:100AE00053E40E94370920E030E040E752E40E94DE
:100AF000D80720E030E0A9010E9467074B015C01A4
:100B000020E030E0A9010E94D30787FD32C120E038
:100B100030E04FE753E4C501B4010E9432091816D2
:100B20000CF42AC1C501B4010E944A087E836D837A
:100B300020E030E040EF51E469817A818B819C8133
:100B40000E94670720E030E04FE753E40E94370936
:100B500020E030E040E752E40E94D80720E030E097
:100B6000A9010E9467074B015C0120E030E0A90168
:100B70000E94D30710E000E087FD11C020E030E0C4
:100B80004FE753E4C501B4010E9432090FEF10E0B2
:100B900018162CF0C501B4010E944A088B0120E010
:100BA00030E04FE753E4C701B6010E94370920E067
:100BB00030E048E452E40E94D80720E030E0A90188
:100BC0000E9467076B017C0120E030E0A9010E94D0
:100BD000D30760E087FD0FC020E030E04FE753E42B
:100BE000C701B6010E9432096FEF181624F0C70141
:100BF000B6010E944A082D813E81309389002093DE
:100C0000880010938B0000938A006093B30020E06B
:100C100034E244E759E46091000170910101809150
:100C20000201909103010E9437090E944A089B012A
:100C3000AC012253310941095109AEE3BEEF0E94D4
:100C400030072EED36E240E050E00E940307BA0183
:100C5000A9014C505E4F6F4F7F4F453F31E0530726
:100C60006105710520F044EF51E060E070E042332F
:100C700051056105710520F442E350E060E070E049
:100C80008FB7F894C0904A01D0904B01E0904C018E
:100C9000F0904D018FBF8091330190913401A0916C
:100CA0003501B091360197018601081B190B2A0BFB
:100CB0003B0BD901C801481759076A077B0708F0A1
:100CC00031C01091320181E018271D831093320149
:100CD000E1EBF0E08491EDE9F0E004910983E9E8CB
:100CE000F0E014911123B1F081110E948C00E12FEA
:100CF000F0E0EE0FFF1FE859FF4FA591B4918FB7B9
:100D0000F8941D81EC9111113CC0098100950E23CE
:100D10000C938FBFC0923301D0923401E092350121
:100D2000F092360180E090E0892B09F40FCD0E940B
:100D30009601882309F40ACD0E94000007CD85356D
:100D400031E093070CF419CE8A3A92402CF48AE0F1
:100D500097EDA3EABBE300CE0AE017ED23E23CE304
:100D600000930001109301012093020130930301CD
:100D700010CE1E821D82DCCE0FEF10E01E830D838D
:100D8000D7CE19811E2B1C93C4CF80E291E037CDC2
:100D9000EEE4F1E01382128288EE93E0A0E0B0E08E
:100DA00084839583A683B7838EE091E091838083CB
:100DB00085EC90E09587848784EC90E09787868720
:100DC00080EC90E0918B808B81EC90E0938B828B18
:100DD00082EC90E0958B848B86EC90E0978B868BF1
:100DE000118E128E138E148E0895262FF999FECF30
:100DF0001FBA92BD81BD20BD0FB6F894FA9AF99A38
:100E00000FBE01960895052E97FB1EF400940E94D4
:100E10001A0757FD07D00E94350707FC03D04EF490
:100E20000C941A0750954095309521953F4F4F4FA0
:100E30005F4F089590958095709561957F4F8F4F86
:100E40009F4F08950E945707A59F900DB49F900D46
:100E5000A49F800D911D11240895B7FF0C942207C3
:100E60000E942207821B930B0895A1E21A2EAA1B4F
:100E7000BB1BFD010DC0AA1FBB1FEE1FFF1FA2174A
:100E8000B307E407F50720F0A21BB30BE40BF50B47
:100E9000661F771F881F991F1A9469F760957095D0
:100EA000809590959B01AC01BD01CF010895A29F53
:100EB000B001B39FC001A39F700D811D1124911D2E
:100EC000B29F700D811D1124911D08955058BB27AC
:100ED000AA270E947E070C94F8080E94EA0838F0BE
:100EE0000E94F10820F039F49F3F19F426F40C9485
:100EF000E7080EF4E095E7FB0C94E108E92F0E9467
:100F0000090958F3BA17620773078407950720F099
:100F100079F4A6F50C942B090EF4E0950B2EBA2F5C
:100F2000A02D0B01B90190010C01CA01A0011124EF
:100F3000FF27591B99F0593F50F4503E68F11A169B
:100F4000F040A22F232F342F4427585FF3CF46952C
:100F500037952795A795F0405395C9F77EF41F164E
:100F6000BA0B620B730B840BBAF09150A1F0FF0F18
:100F7000BB1F661F771F881FC2F70EC0BA0F621F04
:100F8000731F841F48F4879577956795B795F795F4
:100F90009E3F08F0B0CF9395880F08F09927EE0F89
:100FA0009795879508950E94BD0808F481E00895FB
:100FB0000E94EC070C94F8080E94F10858F00E9477
:100FC000EA0840F029F45F3F29F00C94E108511140
:100FD0000C942C090C94E7080E94090968F39923E2
:100FE000B1F3552391F3951B550BBB27AA27621725
:100FF0007307840738F09F5F5F4F220F331F441F32
:10100000AA1FA9F335D00E2E3AF0E0E832D0915065
:101010005040E695001CCAF72BD0FE2F29D0660F52
:10102000771F881FBB1F261737074807AB07B0E895
:1010300009F0BB0B802DBF01FF2793585F4F3AF09B
:101040009E3F510578F00C94E1080C942C095F3F09
:10105000E4F3983ED4F3869577956795B795F79521
:101060009F5FC9F7880F911D9695879597F9089509
:10107000E1E0660F771F881FBB1F621773078407A5
:10108000BA0720F0621B730B840BBA0BEE1F88F7B4
:10109000E09508950E9451086894B1110C942C09B0
:1010A00008950E94110988F09F5798F0B92F992749
:1010B000B751B0F0E1F0660F771F881F991F1AF043
:1010C000BA95C9F714C0B13091F00E942B09B1E074
:1010D00008950C942B09672F782F8827B85F39F073
:1010E000B93FCCF3869577956795B395D9F73EF4DC
:1010F00090958095709561957F4F8F4F9F4F089584
:10110000E89409C097FB3EF49095809570956195A1
:101110007F4F8F4F9F4F9923A9F0F92F96E9BB2757
:101120009395F695879577956795B795F111F8CFD3
:10113000FAF4BB0F11F460FF1BC06F5F7F4F8F4F3E
:101140009F4F16C0882311F096E911C0772321F034
:101150009EE8872F762F05C0662371F096E8862FCC
:1011600070E060E02AF09A95660F771F881FDAF723
:10117000880F9695879597F90895990F0008550F50
:10118000AA0BE0E8FEEF16161706E807F907C0F00D
:1011900012161306E407F50798F0621B730B840B15
:1011A000950B39F40A2661F0232B242B252B21F4EF
:1011B00008950A2609F4A140A6958FEF811D811D8F
:1011C000089597F99F6780E870E060E008959FEFC9
:1011D00080EC089500240A941616170618060906CE
:1011E000089500240A94121613061406050608959D
:1011F000092E0394000C11F4882352F0BB0F40F425
:10120000BF2B11F460FF04C06F5F7F4F8F4F9F4F64
:10121000089557FD9058440F551F59F05F3F71F0E6
:101220004795880F97FB991F61F09F3F79F087954D
:101230000895121613061406551FF2CF4695F1DFD6
:1012400008C0161617061806991FF1CF8695710566
:10125000610508940895E894BB2766277727CB019A
:1012600097F908950E94BD0808F48FEF08950E9431
:101270004A090C94F8080E94EA0838F00E94F10824
:1012800020F0952311F00C94E1080C94E708112448
:101290000C942C090E94090970F3959FC1F3950FD6
:1012A00050E0551F629FF001729FBB27F00DB11DEA
:1012B000639FAA27F00DB11DAA1F649F6627B00D7A
:1012C000A11D661F829F2227B00DA11D621F739F63
:1012D000B00DA11D621F839FA00D611D221F749F71
:1012E0003327A00D611D231F849F600D211D822FB8
:1012F000762F6A2F11249F5750409AF0F1F08823DF
:101300004AF0EE0FFF1FBB1F661F771F881F91500B
:101310005040A9F79E3F510580F00C94E1080C94D1
:101320002C095F3FE4F3983ED4F386957795679553
:10133000B795F795E7959F5FC1F7FE2B880F911D35
:101340009695879597F908950E945707B7FF0895D6
:10135000821B930B0895EE0FFF1F0590F491E02D73
:101360000994F894FFCF0AD7233CCDCCCC3D0101A2
:1013700000000000CC012C01590119028A0168010A
:101380007C014F4646004F4E00536C6F77206D6FC7
:0813900064653A20000D0A001B
:107800000C94343C0C94513C0C94513C0C94513CE1
:107810000C94513C0C94513C0C94513C0C94513CB4
:107820000C94513C0C94513C0C94513C0C94513CA4
:107830000C94513C0C94513C0C94513C0C94513C94
:107840000C94513C0C94513C0C94513C0C94513C84
:107850000C94513C0C94513C0C94513C0C94513C74
:107860000C94513C0C94513C11241FBECFEFD8E036
:10787000DEBFCDBF11E0A0E0B1E0ECE9FFE702C060
:1078800005900D92A230B107D9F712E0A2E0B1E065
:1078900001C01D92AD30B107E1F70E942D3D0C945F
:1078A000CC3F0C94003C982F959595959595959582
:1078B000905D8F708A307CF0282F295A8091C0000B
:1078C00085FFFCCF9093C6008091C00085FFFCCF60
:1078D0002093C6000895282F205DF0CF982F809127
:1078E000C00085FFFCCF9093C6000895EF92FF92F1
:1078F0000F931F93EE24FF2487018091C00087FD22
:1079000017C00894E11CF11C011D111D81E4E8164B
:1079100082E4F8068FE0080780E0180770F3E09132
:107920000401F091050109958091C00087FFE9CF1E
:107930008091C6001F910F91FF90EF9008950E94D3
:10794000763C982F8091C00085FFFCCF9093C600B5
:1079500091362CF490330CF09053892F089597555D
:10796000892F08951F930E949F3C182F0E949F3CCF
:107970001295107F810F1F9108951F93182F882350
:1079800021F00E94763C1150E1F71F9108951F935A
:10799000182F0E94763C803249F0809103018F5F5E
:1079A000809303018530C1F01F9108958091C0003C
:1079B00085FFFCCF84E18093C6008091C00085FFE5
:1079C000FCCF1093C6008091C00085FFFCCF80E102
:1079D0008093C6001F910895E0910401F091050184
:1079E00009951F9108950E94763C803241F0809164
:1079F00003018F5F80930301853081F008958091AA
:107A0000C00085FFFCCF84E18093C6008091C00058
:107A100085FFFCCF80E18093C6000895E0910401CA
:107A2000F09105010995089540E951E08823A1F0FE
:107A30002D9A28EE33E0FA013197F1F721503040CA
:107A4000D1F72D9828EE33E0FA013197F1F7215064
:107A50003040D1F7815061F708953F924F925F9285
:107A60006F927F928F929F92AF92BF92CF92DF924E
:107A7000EF92FF920F931F93CF93DF93000080E16B
:107A80008093C4001092C50088E18093C10086E015
:107A90008093C2005098589A259A81E00E94143D24
:107AA00024E1F22E9EE1E92E85E9D82E0FE0C02ECA
:107AB00010E1B12EAA24A394B1E49B2EA6E58A2E50
:107AC000F2E57F2EE0E26E2E79E4572E63E5462E36
:107AD00050E5352E0E94763C8033B1F18133B9F107
:107AE000803409F46FC0813409F476C0823409F41B
:107AF00085C0853409F488C0803531F1823521F1A3
:107B0000813511F1853509F485C0863509F48DC0BC
:107B1000843609F496C0843709F403C1853709F423
:107B200072C1863709F466C0809103018F5F80932C
:107B30000301853079F6E0910401F0910501099582
:107B40000E94763C803351F60E94F33CC3CF0E94E2
:107B5000763C803249F78091C00085FFFCCFF092DF
:107B6000C6008091C00085FFFCCF9092C600809136
:107B7000C00085FFFCCF8092C6008091C00085FFC9
:107B8000FCCF7092C6008091C00085FFFCCF609250
:107B9000C6008091C00085FFFCCF5092C600809146
:107BA000C00085FFFCCF4092C6008091C00085FFD9
:107BB000FCCF3092C6008091C00085FFFCCFB09210
:107BC000C60088CF0E94763C863808F4BDCF0E945C
:107BD000763C0E94F33C7ECF0E94763C803809F4CC
:107BE0009CC0813809F40BC1823809F43CC1883942
:107BF00009F48FC080E00E94C73C6CCF84E10E94F2
:107C0000BD3C0E94F33C66CF85E00E94BD3C0E94D3
:107C1000F33C60CF0E94763C809306010E94763C44
:107C2000809307010E94F33C55CF0E94763C80333D
:107C300009F41DC183E00E94BD3C80E00E94C73C66
:107C400049CF0E94763C809309020E94763C809343
:107C5000080280910C028E7F80930C020E94763C79
:107C6000853409F415C18091080290910902892B8D
:107C700089F000E010E00E94763CF801E85FFE4FDA
:107C800080830F5F1F4F80910802909109020817AF
:107C9000190788F30E94763C803209F045CF809125
:107CA0000C0280FF01C16091060170910701660F0F
:107CB000771F7093070160930601A0910802B091AD
:107CC00009021097C9F0E8E0F1E09B01AD014E0F09
:107CD0005F1FF999FECF32BD21BD819180BDFA9A17
:107CE000F99A2F5F3F4FE417F50799F76A0F7B1F4B
:107CF00070930701609306018091C00085FFFCCF5F
:107D0000F092C6008091C00085FFFCCFB092C60003
:107D1000E1CE83E00E94C73CDDCE82E00E94C73CFA
:107D2000D9CE0E94763C809309020E94763C8093D3
:107D300008028091060190910701880F991F909386
:107D40000701809306010E94763C853409F4A6C0A1
:107D500080910C028E7F80930C020E94763C8032D0
:107D600009F0B8CE8091C00085FFFCCFF092C6002C
:107D7000609108027091090261157105B9F140E046
:107D800050E080910C02A82FA170B82FB27011C0E2
:107D9000BB2309F45CC0E0910601F0910701319624
:107DA000F0930701E09306014F5F5F4F46175707B7
:107DB000E8F4AA2369F3F999FECF209106013091E6
:107DC000070132BD21BDF89A90B58091C00085FFB2
:107DD000FCCF9093C6002F5F3F4F30930701209355
:107DE00006014F5F5F4F4617570718F38091C00099
:107DF00085FDE5CE8091C00085FFF8CFE0CE81E023
:107E00000E94C73C67CE0E94763C803209F08CCE3F
:107E10008091C00085FFFCCFF092C6008091C00029
:107E200085FFFCCFE092C6008091C00085FFFCCFAB
:107E3000D092C6008091C00085FFFCCFC092C600E2
:107E40008091C00085FFFCCFB092C60043CEE09188
:107E50000601F091070194918091C00085FFFCCF4D
:107E60009093C6009CCF80E10E94C73C33CE0E9415
:107E7000763C0E94763C182F0E94763C112309F430
:107E800083C0113009F484C08FE00E94C73C22CE29
:107E900080910C02816080930C02E5CE80910C02EF
:107EA000816080930C0259CF809107018823880F4D
:107EB000880B8A2180930B02809106019091070123
:107EC000880F991F90930701809306018091080203
:107ED00080FF09C080910802909109020196909359
:107EE000090280930802F894F999FECF1127E091D6
:107EF0000601F0910701C8E0D1E08091080290915D
:107F00000902103091F40091570001700130D9F34B
:107F100003E000935700E89500915700017001308D
:107F2000D9F301E100935700E89509901990009169
:107F3000570001700130D9F301E000935700E89534
:107F40001395103498F011270091570001700130FB
:107F5000D9F305E000935700E895009157000170B0
:107F60000130D9F301E100935700E895329602976A
:107F700009F0C7CF103011F00296E5CF112480919F
:107F8000C00085FFB9CEBCCE8EE10E94C73CA2CD19
:0E7F900085E90E94C73C9ECDF894FFCF80008B
:00000001FF
