:020000040000FA
:100000000C94A2000C94BF000C94BF000C94BF0091
:100010000C94BF000C94BF000C94BF000C94BF0064
:100020000C94BF000C94BF000C94BF000C94BF0054
:100030000C94BF000C94BF000C94BF000C94BF0044
:100040000C9411020C94BF000C94BF000C94BF00E0
:100050000C94BF000C94BF000C94BF000C94BF0024
:100060000C94BF000C94BF0007634236B79BD8A71F
:100070001A39685618AEBAAB558C1D3CB7CC5763CD
:10008000BD6DEDFD753EF6177231BF000000803F7B
:1000900008000000BE922449123EABAAAA2ABECD97
:1000A000CCCC4C3E00000080BEABAAAAAA3E000009
:1000B0000000BF000000803F000000000008417801
:1000C000D3BB4387D1133D190E3CC3BD4282AD2B38
:1000D0003E68EC8276BED98FE1A93E4C80EFFFBE30
:1000E00001C4FF7F3F00000000000000000024006A
:1000F00027002A0000000000250028002B00000037
:10010000000023002600290004040404040404045D
:1001100002020202020203030303030301020408B2
:100120001020408001020408102001020408102061
:1001300000000008000201000003040700000000A6
:100140000000000011241FBECFEFD8E0DEBFCDBFFE
:1001500011E0A0E0B1E0ECE2F3E102C005900D9205
:10016000A430B107D9F721E0A4E0B1E001C01D92AD
:10017000A332B207E1F70E945B020C9494090C943D
:100180000000833081F028F4813099F08230A9F0AA
:1001900008958730A9F08830C9F08430B1F4809197
:1001A00080008F7D03C0809180008F7780938000D6
:1001B000089584B58F7784BD089584B58F7DFBCF76
:1001C0008091B0008F778093B00008958091B00047
:1001D0008F7DF9CFCF93DF93282F30E0F901E05DD9
:1001E000FE4F8491F901E45EFE4FD491F901E85F7E
:1001F000FE4FC491CC23A1F081110E94C100EC2FCD
:10020000F0E0EE0FFF1FE250FF4FA591B491EC918B
:10021000ED2381E090E009F480E0DF91CF91089533
:1002200080E090E0FACF1F93CF93DF93282F30E048
:10023000F901E05DFE4F8491F901E45EFE4FD49137
:10024000F901E85FFE4FC491CC23A9F0162F81116C
:100250000E94C100EC2FF0E0EE0FFF1FEC50FF4FAB
:10026000A591B4918FB7F894EC91111108C0D09575
:10027000DE23DC938FBFDF91CF911F910895DE2B9A
:10028000F8CFCF93DF9390E0FC01E45EFE4F249122
:10029000885F9E4FFC0184918823C9F090E0880F0D
:1002A000991FFC01E651FF4FA591B491FC01EC5060
:1002B000FF4FC591D49161110DC09FB7F8948C91F7
:1002C000209582238C938881282328839FBFDF91E8
:1002D000CF910895623051F49FB7F8943C91822FEA
:1002E000809583238C93E8812E2BEFCF8FB7F894E2
:1002F000EC912E2B2C938FBFEACF1F93CF93DF93DC
:10030000182FEB0161E00E944101209739F460E071
:10031000812FDF91CF911F910C941301CF3FD10515
:1003200011F461E0F5CFE12FF0E0E05DFE4FE491E4
:10033000E33031F140F4E130B1F0E230E1F0C038C7
:10034000D1057CF7E4CFE73029F1E83059F1E4300A
:10035000B1F780918000806280938000D0938B0001
:10036000C0938A0004C084B5806884BDC7BDDF9196
:10037000CF911F91089584B5806284BDC8BDF7CF29
:1003800080918000806880938000D0938900C09322
:100390008800EDCF8091B00080688093B000C0935A
:1003A000B300E5CF8091B00080628093B000C0932D
:1003B000B400DDCF8E50806480937C0080917A0001
:1003C000806480937A0080917A0086FDFCCF8091D2
:1003D00078009091790008953FB7F89480911F01BB
:1003E00090912001A0912101B091220126B5A89BF6
:1003F00005C02F3F19F00196A11DB11D3FBFBA2FB7
:10040000A92F982F8827BC01CD01620F711D811D76
:10041000911D42E0660F771F881F991F4A95D1F7FB
:1004200008951F920F920FB60F9211242F933F93AE
:100430008F939F93AF93BF9380911B0190911C0169
:10044000A0911D01B0911E0130911A0123E0230FEC
:100450002D3758F50196A11DB11D20931A018093E7
:100460001B0190931C01A0931D01B0931E0180916C
:100470001F0190912001A0912101B09122010196CC
:10048000A11DB11D80931F0190932001A093210114
:10049000B0932201BF91AF919F918F913F912F9186
:1004A0000F900FBE0F901F90189526E8230F02960D
:1004B000A11DB11DD2CF789484B5826084BD84B56E
:1004C000816084BD85B5826085BD85B5816085BD4F
:1004D00080916E00816080936E0010928100809107
:1004E000810082608093810080918100816080938F
:1004F0008100809180008160809380008091B100B4
:1005000084608093B1008091B00081608093B000DE
:1005100080917A00846080937A0080917A00826072
:1005200080937A0080917A00816080937A00809134
:100530007A00806880937A001092C10062E084E0C3
:100540000E94410161E083E00E94410160E081E19D
:100550000E94410160E082E10E94410161E08AE085
:100560000E94410161E08BE00E94410183E8809399
:10057000B00082E08093B10081E8809380008AE03F
:1005800080938100D1E084E00E94EA004C0181E088
:100590008114910409F080E08093190181E10E94A7
:1005A000EA00C1E0009709F4C0E01091180121E0D1
:1005B0001227892B09F410E082E10E94DA017C0104
:1005C00080E10E94DA016C018FE00E94DA018EE086
:1005D0000E94DA011C01892821F4809117018823E7
:1005E00019F0112309F45EC0B601DD0C880B990BDC
:1005F0000E94E60620E030EC4FE754E40E943C06FF
:100600002B013C0161E083E00E94130135E1E31618
:10061000F1040CF44CC1B701FF0C880B990B0E943C
:10062000E606A30192010E949B070E94AE0670930A
:10063000160160931501609115017091160177FF05
:1006400002C06D5F7F4F75956795759567958BE0D7
:100650000E947D010E94EC014B015C014AE0C42E26
:10066000D12CE12CF12C0E94EC01681979098A093E
:100670009B09683E734081059105A8F321E0C21AE9
:10068000D108E108F10838EE830E33E0931EA11C77
:10069000B11CC114D104E104F10429F760E083E046
:1006A0000E9413018FE00E94DA01BC01990F880BB0
:1006B000990B0E94E60620E030EC4FE754E40E94DC
:1006C0003C0620E030E040E250E40E94080820E0D0
:1006D00030E04AE754E40E949B076B017C0120E074
:1006E00030E040E251E40E9437066AE070E087FDA6
:1006F00010C020E030E04AE754E4C701B6010E9490
:10070000960768EE73E0181624F0C701B6010E9440
:10071000AE06809115019091160120911301309140
:1007200014018217930709F44BC0E0901101F09077
:10073000120190931401809313018B01000F111F7C
:100740001616170614F001E010E0BC016E197F09BF
:10075000072E000C880B990B0E94E6064B015C01EA
:10076000B801110F880B990B0E94E6069B01AC01A2
:10077000C501B4010E943C0660930D0170930E0107
:1007800080930F0190931001B701FF0C880B990B18
:100790000E94E6066093090170930A0180930B01A1
:1007A00090930C010E94EC010E94EC016093050102
:1007B000709306018093070190930801D093040180
:1007C00080910401882309F4C1C00E94EC012B012F
:1007D0003C018091050190910601A0910701B09123
:1007E0000801A3019201281B390B4A0B5B0BDA01AC
:1007F000C901843F9140A105B10508F4A7C08090CC
:100800000D0190900E01A0900F01B0901001209169
:10081000090130910A0140910B0150910C01C50171
:10082000B4010E94CB056B017C01C0920901D092FA
:100830000A01E0920B01F0920C0120E030E0A901E6
:100840000E94960720E030E040E05FE387FD5FC054
:10085000C701B6010E94CB050E94AE067B017093D2
:1008600012016093110140920501509206016092BD
:1008700007017092080120E030E0A901C501B40130
:100880000E94960718160CF047C0809113019091B2
:100890001401E816F9060CF04FC020E030E0A90181
:1008A000C501B4010E94370687FF50C045C00E94B1
:1008B0000F054B015C0128EE33E0D1010E948D0948
:1008C0002FEF33E040E050E00E94670569017A01B4
:1008D00084EFC81A81E0D80AE108F108C501B40123
:1008E00020E034E040E050E00E9467056C0D7D1D83
:1008F000611594E0790714F06FEF73E077FF02C0A1
:1009000070E060E0072E000C880B990B88CEC701C1
:10091000B6010E94CA05A0CF20E030E0A901C501C0
:10092000B4010E94370687FF11C080911301909196
:1009300014018E159F0554F08091130190911401BC
:1009400090931201809311011092040160911101A2
:100950007091120177FF02C06D5F7F4F75956795AB
:10096000759567958AE00E947D01C093180180917A
:1009700019018093170140E050E0452B09F403CEA4
:100980000E94000000CE8F929F92AF92BF92CF92B2
:10099000DF92EF92FF92CF93DF93EC016881798130
:1009A0008A819B81611571058105910521F464E2BD
:1009B00079ED8BE597E02DE133EF41E050E00E94C7
:1009C000670549015A019B01AC01A7EAB1E40E9405
:1009D00086056B017C01ACEEB4EFA50194010E9489
:1009E0009405C60ED71EE81EF91EF7FE06C081E06C
:1009F000C81AD108E10880E8F80AC882D982EA82D8
:100A0000FB82C701B6019F77DF91CF91FF90EF90F6
:100A1000DF90CF90BF90AF909F908F9008958F926E
:100A20009F92AF92BF92CF92DF92EF92FF9260912E
:100A30000001709101018091020190910301611503
:100A400071058105910521F464E279ED8BE597E06C
:100A50002DE133EF41E050E00E94670549015A0162
:100A60009B01AC01A7EAB1E40E9486056B017C0101
:100A7000ACEEB4EFA50194010E949405C60ED71EFA
:100A8000E81EF91EF7FE06C081E0C81AD108E10889
:100A900080E8F80AC0920001D0920101E0920201C0
:100AA000F0920301C701B6019F77FF90EF90DF90AE
:100AB000CF90BF90AF909F908F900895609300016A
:100AC0007093010180930201909303010895052E14
:100AD00097FB1EF400940E947E0557FD07D00E94EC
:100AE000990507FC03D04EF40C947E055095409573
:100AF000309521953F4F4F4F5F4F089590958095CA
:100B0000709561957F4F8F4F9F4F08950E94BB0551
:100B1000A59F900DB49F900DA49F800D911D112451
:100B20000895B7FF0C9486050E948605821B930BDF
:100B30000895A1E21A2EAA1BBB1BFD010DC0AA1F1E
:100B4000BB1FEE1FFF1FA217B307E407F50720F036
:100B5000A21BB30BE40BF50B661F771F881F991FB1
:100B60001A9469F760957095809590959B01AC01FA
:100B7000BD01CF010895A29FB001B39FC001A39F03
:100B8000700D811D1124911DB29F700D811D1124C6
:100B9000911D08955058BB27AA270E94E2050C9486
:100BA0005C070E944E0738F00E94550720F039F488
:100BB0009F3F19F426F40C944B070EF4E095E7FBE5
:100BC0000C944507E92F0E946D0758F3BA17620786
:100BD00073078407950720F079F4A6F50C948F0726
:100BE0000EF4E0950B2EBA2FA02D0B01B901900148
:100BF0000C01CA01A0011124FF27591B99F0593F8C
:100C000050F4503E68F11A16F040A22F232F342FD3
:100C10004427585FF3CF469537952795A795F04021
:100C20005395C9F77EF41F16BA0B620B730B840B36
:100C3000BAF09150A1F0FF0FBB1F661F771F881FEE
:100C4000C2F70EC0BA0F621F731F841F48F4879546
:100C500077956795B795F7959E3F08F0B0CF939538
:100C6000880F08F09927EE0F9795879508950E94B1
:100C7000210708F481E008950E9450060C945C0757
:100C80000E94550758F00E944E0740F029F45F3F3C
:100C900029F00C94450751110C9490070C944B07C4
:100CA0000E946D0768F39923B1F3552391F3951BC7
:100CB000550BBB27AA2762177307840738F09F5F7D
:100CC0005F4F220F331F441FAA1FA9F335D00E2EEA
:100CD0003AF0E0E832D091505040E695001CCAF757
:100CE0002BD0FE2F29D0660F771F881FBB1F26171A
:100CF00037074807AB07B0E809F0BB0B802DBF01F1
:100D0000FF2793585F4F3AF09E3F510578F00C94BF
:100D100045070C9490075F3FE4F3983ED4F3869523
:100D200077956795B795F7959F5FC9F7880F911DE0
:100D30009695879597F90895E1E0660F771F881FCC
:100D4000BB1F621773078407BA0720F0621B730B7F
:100D5000840BBA0BEE1F88F7E09508950E94B50644
:100D60006894B1110C94900708950E94750788F05B
:100D70009F5798F0B92F9927B751B0F0E1F0660F5F
:100D8000771F881F991F1AF0BA95C9F714C0B130A0
:100D900091F00E948F07B1E008950C948F07672FA0
:100DA000782F8827B85F39F0B93FCCF386957795CF
:100DB0006795B395D9F73EF49095809570956195B8
:100DC0007F4F8F4F9F4F0895E89409C097FB3EF4E3
:100DD00090958095709561957F4F8F4F9F4F992388
:100DE000A9F0F92F96E9BB279395F6958795779506
:100DF0006795B795F111F8CFFAF4BB0F11F460FFC6
:100E00001BC06F5F7F4F8F4F9F4F16C0882311F01D
:100E100096E911C0772321F09EE8872F762F05C031
:100E2000662371F096E8862F70E060E02AF09A95CC
:100E3000660F771F881FDAF7880F9695879597F9C1
:100E40000895990F0008550FAA0BE0E8FEEF16165B
:100E50001706E807F907C0F012161306E407F507AE
:100E600098F0621B730B840B950B39F40A2661F022
:100E7000232B242B252B21F408950A2609F4A140C5
:100E8000A6958FEF811D811D089597F99F6780E8D2
:100E900070E060E008959FEF80EC089500240A94CC
:100EA0001616170618060906089500240A94121645
:100EB0001306140605060895092E0394000C11F478
:100EC000882352F0BB0F40F4BF2B11F460FF04C025
:100ED0006F5F7F4F8F4F9F4F089557FD9058440F7E
:100EE000551F59F05F3F71F04795880F97FB991F89
:100EF00061F09F3F79F08795089512161306140646
:100F0000551FF2CF4695F1DF08C0161617061806D2
:100F1000991FF1CF86957105610508940895E894AD
:100F2000BB2766277727CB0197F908950E942107F1
:100F300008F48FEF08950E94AE070C945C070E949E
:100F40004E0738F00E94550720F0952311F00C94BD
:100F500045070C944B0711240C9490070E946D07D1
:100F600070F3959FC1F3950F50E0551F629FF001FC
:100F7000729FBB27F00DB11D639FAA27F00DB11D15
:100F8000AA1F649F6627B00DA11D661F829F22279E
:100F9000B00DA11D621F739FB00DA11D621F839F25
:100FA000A00D611D221F749F3327A00D611D231FFB
:100FB000849F600D211D822F762F6A2F11249F5749
:100FC00050409AF0F1F088234AF0EE0FFF1FBB1F4C
:100FD000661F771F881F91505040A9F79E3F51050B
:100FE00080F00C9445070C9490075F3FE4F3983E23
:100FF000D4F3869577956795B795F795E7959F5FB5
:10100000C1F7FE2B880F911D9695879597F9089546
:10101000FA01EE0FFF1F309621053105A1F1611590
:10102000710561F48038BFE39B0749F168949038FB
:10103000810561F08038BFEF9B0741F099234AF5A5
:10104000FF3FE1053105210519F1E8940894E79582
:10105000D901AA2329F4AB2FBE2FF85FD0F310C01B
:10106000FF5F70F4A695E0F7F73950F019F0FF3AFA
:1010700038F49F779F930DD00F9007FC90580895F8
:1010800046F00C944B0760E070E080E89FE3089521
:101090004FE79F775F934F933F932F930E940309EE
:1010A0002F913F914F915F910E949B070C94600894
:1010B00029F416F00C9445070C948F070C944B07F9
:1010C0000E947507A8F39638A0F707F80F92E894E6
:1010D0002BE33AEA48EB5FE70E94B1070F920F92C9
:1010E0000F924DB75EB70F920E944B09E8E6F0E011
:1010F0000E9492084F915F91EF91FF91E595EE1F4D
:10110000FF1F49F0FE57E0684427EE0F441FFA9591
:10111000E1F74195550B0E94C5080F9007FE0C940E
:10112000B9080895DF93CF931F930F93FF92EF9227
:10113000DF927B018C01689406C0DA2EEF010E94D9
:10114000AE07FE01E894A591259135914591559101
:10115000A6F3EF010E94E205FE019701A801DA94CF
:1011600069F7DF90EF90FF900F911F91CF91DF9182
:1011700008959B01AC0160E070E080E89FE30C946F
:101180003C060C9445070C947F090E947507D8F320
:101190009923C9F3940F511DA3F39150504094F03B
:1011A00059F0882332F0660F771F881F9150504006
:1011B000C1F79E3F51052CF7880F911D9695879595
:1011C00097F908955F3FACF0983E9CF0BB27869559
:1011D00077956795B79508F4B1609395C1F7BB0F04
:1011E00058F711F460FFE8CF6F5F7F4F8F4F9F4F2D
:1011F000E3CF0C94900716F00C947F090C944B07E6
:1012000068940C9445070E947507A8F39923C1F3CD
:10121000AEF3DF93CF931F930F93FF92C92FDD2778
:1012200088232AF02197660F771F881FDAF720E0BE
:1012300030E040E85FEB9FE3883920F0803E38F0F3
:1012400021968F770E94CB05E0E9F0E004C00E9470
:10125000CB05EDEBF0E00E9492088B01BE01EC01A2
:10126000FB2E6F5771097595771F880B990B0E949C
:10127000E60628E132E741E35FE30E94AE07AF2DC7
:101280009801AE01FF900F911F91CF91DF910E94C5
:10129000E2050C945C07FA01DC01AA0FBB1F9B015D
:1012A000AC01BF5728F4222733274427507820C0A9
:1012B000B75190F4AB2F0024469537952795011C24
:1012C000A395D2F3002071F0220F331F441FB39572
:1012D000DAF30ED00C94CA0561307105A0E88A07D4
:1012E000B94630F49B01AC016627772788279078B0
:1012F000309621F0208331834283538308959F3FAA
:1013000031F0915020F4879577956795B795880FC0
:10131000911D9695879597F908950E94BB05B7FF93
:101320000895821B930B0895F894FFCF01000000ED
:107800000C94343C0C94513C0C94513C0C94513CE1
:107810000C94513C0C94513C0C94513C0C94513CB4
:107820000C94513C0C94513C0C94513C0C94513CA4
:107830000C94513C0C94513C0C94513C0C94513C94
:107840000C94513C0C94513C0C94513C0C94513C84
:107850000C94513C0C94513C0C94513C0C94513C74
:107860000C94513C0C94513C11241FBECFEFD8E036
:10787000DEBFCDBF11E0A0E0B1E0ECE9FFE702C060
:1078800005900D92A230B107D9F712E0A2E0B1E065
:1078900001C01D92AD30B107E1F70E942D3D0C945F
:1078A000CC3F0C94003C982F959595959595959582
:1078B000905D8F708A307CF0282F295A8091C0000B
:1078C00085FFFCCF9093C6008091C00085FFFCCF60
:1078D0002093C6000895282F205DF0CF982F809127
:1078E000C00085FFFCCF9093C6000895EF92FF92F1
:1078F0000F931F93EE24FF2487018091C00087FD22
:1079000017C00894E11CF11C011D111D81E4E8164B
:1079100082E4F8068FE0080780E0180770F3E09132
:107920000401F091050109958091C00087FFE9CF1E
:107930008091C6001F910F91FF90EF9008950E94D3
:10794000763C982F8091C00085FFFCCF9093C600B5
:1079500091362CF490330CF09053892F089597555D
:10796000892F08951F930E949F3C182F0E949F3CCF
:107970001295107F810F1F9108951F93182F882350
:1079800021F00E94763C1150E1F71F9108951F935A
:10799000182F0E94763C803249F0809103018F5F5E
:1079A000809303018530C1F01F9108958091C0003C
:1079B00085FFFCCF84E18093C6008091C00085FFE5
:1079C000FCCF1093C6008091C00085FFFCCF80E102
:1079D0008093C6001F910895E0910401F091050184
:1079E00009951F9108950E94763C803241F0809164
:1079F00003018F5F80930301853081F008958091AA
:107A0000C00085FFFCCF84E18093C6008091C00058
:107A100085FFFCCF80E18093C6000895E0910401CA
:107A2000F09105010995089540E951E08823A1F0FE
:107A30002D9A28EE33E0FA013197F1F721503040CA
:107A4000D1F72D9828EE33E0FA013197F1F7215064
:107A50003040D1F7815061F708953F924F925F9285
:107A60006F927F928F929F92AF92BF92CF92DF924E
:107A7000EF92FF920F931F93CF93DF93000080E16B
:107A80008093C4001092C50088E18093C10086E015
:107A90008093C2005098589A259A81E00E94143D24
:107AA00024E1F22E9EE1E92E85E9D82E0FE0C02ECA
:107AB00010E1B12EAA24A394B1E49B2EA6E58A2E50
:107AC000F2E57F2EE0E26E2E79E4572E63E5462E36
:107AD00050E5352E0E94763C8033B1F18133B9F107
:107AE000803409F46FC0813409F476C0823409F41B
:107AF00085C0853409F488C0803531F1823521F1A3
:107B0000813511F1853509F485C0863509F48DC0BC
:107B1000843609F496C0843709F403C1853709F423
:107B200072C1863709F466C0809103018F5F80932C
:107B30000301853079F6E0910401F0910501099582
:107B40000E94763C803351F60E94F33CC3CF0E94E2
:107B5000763C803249F78091C00085FFFCCFF092DF
:107B6000C6008091C00085FFFCCF9092C600809136
:107B7000C00085FFFCCF8092C6008091C00085FFC9
:107B8000FCCF7092C6008091C00085FFFCCF609250
:107B9000C6008091C00085FFFCCF5092C600809146
:107BA000C00085FFFCCF4092C6008091C00085FFD9
:107BB000FCCF3092C6008091C00085FFFCCFB09210
:107BC000C60088CF0E94763C863808F4BDCF0E945C
:107BD000763C0E94F33C7ECF0E94763C803809F4CC
:107BE0009CC0813809F40BC1823809F43CC1883942
:107BF00009F48FC080E00E94C73C6CCF84E10E94F2
:107C0000BD3C0E94F33C66CF85E00E94BD3C0E94D3
:107C1000F33C60CF0E94763C809306010E94763C44
:107C2000809307010E94F33C55CF0E94763C80333D
:107C300009F41DC183E00E94BD3C80E00E94C73C66
:107C400049CF0E94763C809309020E94763C809343
:107C5000080280910C028E7F80930C020E94763C79
:107C6000853409F415C18091080290910902892B8D
:107C700089F000E010E00E94763CF801E85FFE4FDA
:107C800080830F5F1F4F80910802909109020817AF
:107C9000190788F30E94763C803209F045CF809125
:107CA0000C0280FF01C16091060170910701660F0F
:107CB000771F7093070160930601A0910802B091AD
:107CC00009021097C9F0E8E0F1E09B01AD014E0F09
:107CD0005F1FF999FECF32BD21BD819180BDFA9A17
:107CE000F99A2F5F3F4FE417F50799F76A0F7B1F4B
:107CF00070930701609306018091C00085FFFCCF5F
:107D0000F092C6008091C00085FFFCCFB092C60003
:107D1000E1CE83E00E94C73CDDCE82E00E94C73CFA
:107D2000D9CE0E94763C809309020E94763C8093D3
:107D300008028091060190910701880F991F909386
:107D40000701809306010E94763C853409F4A6C0A1
:107D500080910C028E7F80930C020E94763C8032D0
:107D600009F0B8CE8091C00085FFFCCFF092C6002C
:107D7000609108027091090261157105B9F140E046
:107D800050E080910C02A82FA170B82FB27011C0E2
:107D9000BB2309F45CC0E0910601F0910701319624
:107DA000F0930701E09306014F5F5F4F46175707B7
:107DB000E8F4AA2369F3F999FECF209106013091E6
:107DC000070132BD21BDF89A90B58091C00085FFB2
:107DD000FCCF9093C6002F5F3F4F30930701209355
:107DE00006014F5F5F4F4617570718F38091C00099
:107DF00085FDE5CE8091C00085FFF8CFE0CE81E023
:107E00000E94C73C67CE0E94763C803209F08CCE3F
:107E10008091C00085FFFCCFF092C6008091C00029
:107E200085FFFCCFE092C6008091C00085FFFCCFAB
:107E3000D092C6008091C00085FFFCCFC092C600E2
:107E40008091C00085FFFCCFB092C60043CEE09188
:107E50000601F091070194918091C00085FFFCCF4D
:107E60009093C6009CCF80E10E94C73C33CE0E9415
:107E7000763C0E94763C182F0E94763C112309F430
:107E800083C0113009F484C08FE00E94C73C22CE29
:107E900080910C02816080930C02E5CE80910C02EF
:107EA000816080930C0259CF809107018823880F4D
:107EB000880B8A2180930B02809106019091070123
:107EC000880F991F90930701809306018091080203
:107ED00080FF09C080910802909109020196909359
:107EE000090280930802F894F999FECF1127E091D6
:107EF0000601F0910701C8E0D1E08091080290915D
:107F00000902103091F40091570001700130D9F34B
:107F100003E000935700E89500915700017001308D
:107F2000D9F301E100935700E89509901990009169
:107F3000570001700130D9F301E000935700E89534
:107F40001395103498F011270091570001700130FB
:107F5000D9F305E000935700E895009157000170B0
:107F60000130D9F301E100935700E895329602976A
:107F700009F0C7CF103011F00296E5CF112480919F
:107F8000C00085FFB9CEBCCE8EE10E94C73CA2CD19
:0E7F900085E90E94C73C9ECDF894FFCF80008B
:00000001FF
