:020000040000FA
:100000000C9496020C94BE020C94BE020C94BE0298
:100010000C94BE020C94BE020C94BE020C94BE0260
:100020000C94BE020C94BE020C94BE020C94BE0250
:100030000C94BE020C94BE020C94BE020C94BE0240
:100040000C94E3080C94BE020C9453090C942D09F3
:100050000C94BE020C94BE020C94BE020C94BE0220
:100060000C94BE020C94BE0207634236B79BD8A71D
:100070001A39685618AEBAAB558C1D3CB7CC5763CD
:10008000BD6DEDFD753EF6177231BF000000803F7B
:1000900008000000BE922449123EABAAAA2ABECD97
:1000A000CCCC4C3E00000080BEABAAAAAA3E000009
:1000B0000000BF000000803F000000000008417801
:1000C000D3BB4387D1133D190E3CC3BD4282AD2B38
:1000D0003E68EC8276BED98FE1A93E4C80EFFFBE30
:1000E00001C4FF7F3F00000000004E6F2063616C81
:1000F0006962726174696F6E20666F756E643B2011
:100100007573696E6720666163746F7279207461BC
:10011000626C652E0043616C6962726174696F6E16
:10012000206C6F616465642066726F6D2045455078
:10013000524F4D2E002020782020202020202020EB
:100140002020203A206578697420616E64207275E1
:100150006E2073657175656E6365720A0020207488
:1001600020202020202020202020203A207072698A
:100170006E742074617267657420696E666F2066A4
:100180006F722063757272656E74206E6F74650095
:10019000202077202F2072202F20662020203A2038
:1001A000777269746520746F20454550524F4D2019
:1001B0002F2072656C6F6164202F20666163746FFD
:1001C00072792064656661756C747300202061200B
:1001D000202020202020202020203A206175746FCC
:1001E0002D7363616E202832207320706572206E3B
:1001F0006F74652C206E6F206368616E676573296C
:1002000000202076203C302E2E3235353E20203AFC
:10021000207365742050574D206469726563746C57
:100220007900202053203C312E2E31363E202020D4
:100230003A2073657420737465702073697A650061
:1002400020202B202F202D202020202020203A206D
:1002500050574D2075702F646F776E206279207330
:10026000746570202864656661756C7420737465AC
:10027000703D312900202069203C302E2E33363E3F
:100280002020203A206A756D7020746F206E6F7484
:100290006520696E646578202843323D30202E2E1B
:1002A0002043353D3336290020206E202F2070203A
:1002B0002020202020203A206E657874202F207086
:1002C000726576206E6F74650020206820202020E3
:1002D000202020202020203A2068656C7000436F89
:1002E0006D6D616E64733A000A3D3D3D20435620BA
:1002F00054554E494E47204D454E5520286D616E50
:1003000075616C2C20443130206F75747075747376
:100310002073656C6563746564206E6F7465292055
:100320003D3D3D00202050574D3D0020487A0020A3
:10033000207461726765743D005D20005B4E6F74D0
:1003400065200043616C6962726174696F6E20732D
:100350006176656420746F20454550524F4D2E00E4
:10036000526576657274656420746F20666163748B
:100370006F7279207461626C6520286E6F742073CF
:1003800061766564292E20557365202777272074B0
:100390006F20706572736973742E00457869746993
:1003A0006E672074756E696E67206D656E752E20A0
:1003B00052756E6E696E672073657175656E6365E3
:1003C000722E2E2E00272E20507265737320276800
:1003D0002720666F722068656C702E00556E6B6EFC
:1003E0006F776E20636D642027004175746F2D73E5
:1003F00063616E20646F6E652E0020487A20205065
:10040000574D3D0020207461726765743D002020C7
:10041000004E6F746520004175746F2D7363616EBB
:1004200020737461727420286E6F206368616E6738
:100430006573206D616465292E2E2E00496E7661EC
:100440006C69642050574D2E2055736520302E2E38
:1004500032353500496E76616C696420696E646579
:10046000782E2055736520302E2E333600496E7657
:10047000616C696420737465702E2055736520313A
:100480002E2E313600537465702073657420746F9E
:100490002000000B0F13171B1F23282C3035393D6C
:1004A0004145494D52565A5E63676B7074787C8043
:1004B00084898D9195999D00000000240027002AD1
:1004C0000000000000230026002900000000002595
:1004D0000028002B000404040404040404020202A3
:1004E0000202020303030303030102040810204075
:1004F00080010204081020010204081020000000FE
:1005000008000201000003040700000000000000D2
:10051000006A016C016F0171017401760178017B41
:10052000017D0180018201850100ED0D11241FBEB6
:10053000CFEFD8E0DEBFCDBF11E0A0E0B1E0E4E551
:10054000FCE202C005900D92A838B107D9F722E06D
:10055000A8E8B1E001C01D92AA36B207E1F712E0A7
:10056000C6E9D2E004C02197FE010E947413C53988
:10057000D107C9F70E9485090C9428160C94000035
:10058000FB016CE070E00E945913DF01AF01495F8D
:100590005F4F2D9130E0281739079CF04CE0469FC3
:1005A000C001479F900D1124820F931F8532910542
:1005B00014F084E290E08B5B9D4FFC01808190E021
:1005C00008954A175B0729F78CE0869F9001879F63
:1005D000300D11248681820F932F911DE7CF833038
:1005E00081F028F4813099F08230A9F008958730A5
:1005F000A9F08830C9F08430B1F4809180008F7DFB
:1006000003C0809180008F7780938000089584B527
:100610008F7784BD089584B58F7DFBCF8091B00026
:100620008F778093B00008958091B0008F7DF9CFCF
:100630001F93CF93DF93E0E0F5E09491ECEEF4E0CC
:10064000D491E8EDF4E0C491CC23B9F0182F9923AC
:1006500019F0892F0E94EF02EC2FF0E0EE0FFF1F40
:10066000E553FB4FA591B4918FB7F894EC9111111C
:1006700008C0D095DE23DC938FBFDF91CF911F910F
:100680000895DE2BF8CFCF93DF93282F30E0F901C8
:10069000E350FB4F8491F901E751FB4FD491F901ED
:1006A000EB52FB4FC491CC23A1F081110E94EF02C9
:1006B000EC2FF0E0EE0FFF1FEF53FB4FA591B4912D
:1006C000EC91ED2381E090E009F480E0DF91CF919F
:1006D000089580E090E0FACFCF93DF9390E0FC01A3
:1006E000E751FB4F24918B529B4FFC01849188234F
:1006F000C9F090E0880F991FFC01E954FB4FA591C8
:10070000B491FC01E553FB4FC591D49161110DC02B
:100710009FB7F8948C91209582238C93888128230D
:1007200028839FBFDF91CF910895623051F49FB726
:10073000F8943C91822F809583238C93E8812E2B13
:10074000EFCF8FB7F894EC912E2B2C938FBFEACF7D
:10075000CF93DF93EC0161E083E00E946C0320976C
:1007600029F480E0DF91CF910C941803CF3FD1059D
:1007700011F481E0F7CFE0E0F5E0E491E33029F116
:1007800040F4E130B1F0E230D9F0C038D1058CF757
:10079000E8CFE73021F1E83051F1E430B1F7809152
:1007A0008000806280938000D0938B00C0938A0089
:1007B00004C084B5806884BDC7BDDF91CF91089522
:1007C00084B5806284BDC8BDF8CF80918000806808
:1007D00080938000D0938900C0938800EECF8091F1
:1007E000B00080688093B000C093B300E6CF8091E2
:1007F000B00080628093B000C093B400DECF8E5012
:10080000806480937C0080917A00806480937A0079
:1008100080917A0086FDFCCF8091780090917900DC
:1008200008953FB7F8948091A0019091A101A09103
:10083000A201B091A30126B5A89B05C02F3F19F0D6
:100840000196A11DB11D3FBFBA2FA92F982F882750
:10085000BC01CD01620F711D811D911D42E0660F2B
:10086000771F881F991F4A95D1F708958F929F92FD
:10087000AF92BF92CF92DF92EF92FF924B015C0159
:100880000E9411046B017C010E9411046C197D0906
:100890008E099F09683E734081059105A8F321E008
:1008A000821A9108A108B10888EEC80E83E0D81E0C
:1008B000E11CF11C81149104A104B10429F7FF90FB
:1008C000EF90DF90CF90BF90AF909F908F90089562
:1008D000AF92BF92CF92DF92EF92FF920F931F934E
:1008E000CF93DF936C017B018B01040F151FEB018C
:1008F0005E01AE18BF08C017D10759F06991D60143
:10090000ED91FC910190F081E02DC6010995892BB4
:1009100079F7C501DF91CF911F910F91FF90EF9073
:10092000DF90CF90BF90AF900895FC01538D448D20
:10093000252F30E0842F90E0821B930B541710F08A
:10094000CF96089501970895FC01918D828D981797
:1009500061F0A28DAE0FBF2FB11D5D968C91928D6F
:100960009F5F9F73928F90E008958FEF9FEF0895A0
:10097000FC01918D828D981731F0828DE80FF11D69
:10098000858D90E008958FEF9FEF08952FB7F8942D
:100990008091A4019091A501A091A601B091A70119
:1009A0002FBF8093B0019093B101A093B201B09397
:1009B000B30188EA91E00E94B80497FF26C02FB7E0
:1009C000F8948091A4019091A501A091A601B09105
:1009D000A7012FBF4091B0015091B1016091B201C8
:1009E0007091B301841B950BA60BB70B4091AC0122
:1009F0005091AD016091AE017091AF0184179507E0
:100A0000A607B707B0F28FEF9FEF0895CF92DF925E
:100A1000EF92FF92CF930E94C604FC0197FD4EC057
:100A20008D32910521F0C0970A9708F040C0C12C83
:100A3000D12C7601C0E0E130F105D1F0ED32F105C5
:100A4000D9F1CF01C0970A9798F4AAE0B0E0A701C6
:100A500096010E9426106F01FF0FEE08FF08C60ED8
:100A6000D71EE81EF91E80E3C81AD108E108F10874
:100A700088EA91E00E94A4040E94C604FC01C09789
:100A80000A97C8F2E130F105B1F2CC2341F0F094BD
:100A9000E094D094C094C11CD11CE11CF11CC7018E
:100AA000B601CF91FF90EF90DF90CF90089588EA44
:100AB00091E00E94A404AFCFC1E0DACFC12CD12CC9
:100AC0007601EDCFFC01918D228D892F90E0805C25
:100AD0009F4F821B91098F739927089588EA91E0AF
:100AE0000E94620521E0892B09F420E0822F0895FD
:100AF00080E090E0892B29F00E946E0581110C9412
:100B000000000895FC01A48DA80FB92FB11DA35AB0
:100B1000BF4F2C91848D90E001968F739927848F1D
:100B2000A689B7892C93A089B1898C918370806440
:100B30008C93938D848D981306C00288F389E02DE1
:100B400080818F7D80830895EF92FF920F931F9392
:100B5000CF93DF93EC0181E0888F9B8D8C8D981370
:100B60001AC0E889F989808185FF15C09FB7F8947C
:100B7000EE89FF896083E889F989808183708064C8
:100B800080839FBF81E090E0DF91CF911F910F9113
:100B9000FF90EF900895F62E0B8D10E00F5F1F4F22
:100BA0000F731127E02E8C8D8E110CC00FB607FC31
:100BB000FACFE889F989808185FFF5CFCE010E94BF
:100BC0008205F1CFEB8DEC0FFD2FF11DE35AFF4FA6
:100BD000F0829FB7F8940B8FEA89FB89808180624D
:100BE000CFCF0F931F93CF93DF938C01D0E0C0E062
:100BF000F801EC0FFD1F6491662341F088EA91E053
:100C00000E94A405892B11F02196F2CFCE01DF912D
:100C1000CF911F910F910895CF93DF93EC01888DB1
:100C20008823B9F0AA89BB89E889F9898C9185FD67
:100C300003C0808186FD0DC00FB607FCF7CF8C91F5
:100C400085FFF2CF808185FFEDCFCE010E94820526
:100C5000E9CFDF91CF91089563E171E00C94C00278
:100C60006CE071E00C94C00265E071E00C94C0028D
:100C7000FC0101900020E9F73197AF01481B590BA7
:100C8000BC0188EA91E00C946804CF93DF930E9442
:100C9000F105EC0182E491E00E9438068C0F9D1F63
:100CA000DF91CF91089588EE92E00E9445068EED87
:100CB00092E00E94450689EC92E00E94450688EA8F
:100CC00092E00E94450685E792E00E94450680E496
:100CD00092E00E94450682E292E00E94450681E091
:100CE00092E00E9445068CEC91E00E94450680E966
:100CF00091E00E9445068DE591E00E94450685E35E
:100D000091E00C9445068F929F92AF92BF920F9301
:100D10001F93CF93DF93CDB7DEB7A1970FB6F894AB
:100D2000DEBF0FBECDBF19A2423008F44AE08E01EB
:100D30000F5D1F4F842E912CB12CA12CA501940185
:100D40000E947010E62FB901CA01EA30F4F4E05DA8
:100D5000D801EE938D01232B242B252B79F790E0DE
:100D600080E0109719F0CD010E943806A1960FB6C9
:100D7000F894DEBF0FBECDBFDF91CF911F910F91D1
:100D8000BF90AF909F908F900895E95CE1CFCF9294
:100D9000DF92EF92FF92CF93DF936B017C016DE2C4
:100DA00088EA91E00E94A405EC0166277727CB0131
:100DB0006C197D098E099F094AE00E9483068C0FF9
:100DC0009D1FDF91CF91FF90EF90DF90CF9008951E
:100DD000CF92DF92EF92FF920F931F93CF93DF9307
:100DE00000D000D0CDB7DEB7F62EE72E6CE070E075
:100DF0000E9459138B01FC01EE0FFF1FEF5EFA4FAB
:100E00006591749144E050E0CE0101966C010E941E
:100E1000BE0E1C820E5F1F4F1F930F93DF92CF9267
:100E200085E491E09F938F931F9285E08F93EF92DB
:100E3000FF920E947A130FB6F894DEBF0FBECDBFAB
:100E40000F900F900F900F90DF91CF911F910F9106
:100E5000FF90EF90DF90CF9008954F925F926F9246
:100E60007F928F929F92AF92BF92CF92DF92EF923A
:100E7000FF920F931F93CF936B017C01742EAC01F3
:100E80009B010E940B12882399F08AE491E0CF9194
:100E90001F910F91FF90EF90DF90CF90BF90AF9098
:100EA0009F908F907F906F905F904F900C9438063A
:100EB00046015701E894B7F82FEF3FEF4FE75FE7A0
:100EC000C501B4010E940B1281110DC02FEF3FEF3D
:100ED0004FE75FE7C501B4010E94CD0E18161CF460
:100EE0008EE491E0D4CF2FEF3FEF4FE75FE4C701EF
:100EF000B6010E94B61118161CF482E591E0C7CF26
:100F00002FEF3FEF4FE75FECC701B6010E94CD0E18
:100F100087FDF3CF20E030E0A901C701B6010E94B0
:100F2000CD0E10E000E087FF0AC06DE288EA91E094
:100F30000E94A4058C01F7FAF094F7F8F094C0E051
:100F400060E070E080E09FE37C1641F020E030E05C
:100F500040E251E40E940E11CF5FF6CFA701960147
:100F60000E94A2102B013C010E9487114B015C01E1
:100F70004AE00E9483067C01E00EF11ECC23C1F101
:100F8000C501B4010E94D20E9B01AC01C301B201A4
:100F90000E94A1104B015C016EE288EA91E00E9480
:100FA000A405E80EF91EC15018F120E030E040E23F
:100FB00051E4C501B4010E94330F2B013C010E9492
:100FC00087114B01B12CA12C4AE0C501B4010E944C
:100FD0008306E80EF91EC501B4010E94D20E9B01E2
:100FE000AC01C301B2010E94A1104B015C01DBCF37
:100FF000C701CF911F910F91FF90EF90DF90CF909D
:10100000BF90AF909F908F907F906F905F904F9028
:101010000895BC01990F880B990B97FD0C94C70696
:101020004AE00C948306EF92FF920F931F93CF93A5
:10103000DF93CDB7DEB7A9970FB6F894DEBF0FBE2A
:10104000CDBFCE0101967C0110E000E0C8010E94F6
:10105000F10FF70181937F010F5F1F4F09321105D7
:10106000A9F78981833411F58A818635F9F48B815A
:101070008435E1F48C818133C9F485E2FE01359633
:10108000A5E4B2E001900D928A95E1F785E191E047
:10109000A9960FB6F894DEBF0FBECDBFDF91CF91FA
:1010A0001F910F91FF90EF900C944506E2E9F4E058
:1010B000A5E4B2E08AE692E024912D9331968A1756
:1010C0009B07D1F78AEE90E0E3CF6CE070E00E94DE
:1010D00059139B012E5F3F4F4CE0429FB001439F4D
:1010E000700D1124680F791F072E000C880B990BC7
:1010F0000E94D40E20E030E040E451E40E940E1142
:101100009B01AC0160E070E080E090E40E94BB11C4
:1011100024E130ED42E851E40E94330F0895CF926C
:10112000DF92EF92FF920F931F93CF93DF9300D044
:1011300000D01F92CDB7DEB78C01BE016F5F7F4F2D
:101140000E94E806C8010E9465086B017C018CE3DF
:1011500093E00E94F105C8010E94090889E393E029
:101160000E94F105CE0101960E9438068FE293E0BD
:101170000E94F10542E0C701B6010E942D078BE2F3
:1011800093E00E94F10584E293E00E94F105F801EA
:10119000EB5BFD4F608170E090E080E04AE00E94F0
:1011A000830682E491E00E9438060F900F900F9022
:1011B0000F900F90DF91CF911F910F91FF90EF90C3
:1011C000DF90CF9008951F920F920FB60F921124C7
:1011D0002F933F938F939F93AF93BF938091A401DD
:1011E0009091A501A091A601B091A70130919F0116
:1011F00023E0230F2D3758F50196A11DB11D209333
:101200009F018093A4019093A501A093A601B093A0
:10121000A7018091A0019091A101A091A201B0919C
:10122000A3010196A11DB11D8093A0019093A1017E
:10123000A093A201B093A301BF91AF919F918F9111
:101240003F912F910F900FBE0F901F90189526E899
:10125000230F0296A11DB11DD2CF1F920F920FB680
:101260000F9211242F933F934F935F936F937F932C
:101270008F939F93AF93BF93EF93FF9388EA91E08F
:101280000E948205FF91EF91BF91AF919F918F9145
:101290007F916F915F914F913F912F910F900FBE72
:1012A0000F901F9018951F920F920FB60F92112456
:1012B0002F938F939F93EF93FF93E091B801F09159
:1012C000B9018081E091BE01F091BF0182FD1BC098
:1012D00090818091C1018F5F8F732091C20182172D
:1012E00041F0E091C101F0E0E855FE4F958F809309
:1012F000C101FF91EF919F918F912F910F900FBEA0
:101300000F901F9018958081F4CFCF93DF93CDB7C6
:10131000DEB7AA970FB6F894DEBF0FBECDBF7894A4
:1013200084B5826084BD84B5816084BD85B58260EA
:1013300085BD85B5816085BD80916E00816080939B
:101340006E00109281008091810082608093810004
:101350008091810081608093810080918000816014
:10136000809380008091B10084608093B10080916F
:10137000B00081608093B00080917A008460809397
:101380007A0080917A00826080937A0080917A005E
:10139000816080937A0080917A00806880937A00DF
:1013A0001092C100E091B801F091B90182E0808310
:1013B000E091B401F091B5011082E091B601F09195
:1013C000B70180E180831092C001E091BC01F091EF
:1013D000BD0186E08083E091BA01F091BB0180817C
:1013E00080618083E091BA01F091BB0180818860C7
:1013F0008083E091BA01F091BB0180818068808395
:10140000E091BA01F091BB0180818F7D808360E023
:1014100081E10E946C0361E08BE00E946C0361E05B
:1014200083E00E946C0362E084E00E946C0383E826
:101430008093B00081E08093B1001092B30061E02E
:101440008AE00E946C0381E28093800089E08093AF
:10145000810010928B0010928A001092B30090E0ED
:1014600080E00E94A803A5E4B2E0E2E9F4E0849100
:101470008D93319622E0AA36B207C9F70E9413086D
:1014800084E00E944303892B09F0BDC068E572E047
:1014900080E090E00E94360484E00E944303892BA0
:1014A00009F0B1C08CED95E0A0E0B0E08093AC0114
:1014B0009093AD01A093AE01B093AF0180E490E0B2
:1014C0000E94A8038091450290E090938B00809346
:1014D0008A000E94530690E080E00E948F08F12C61
:1014E000E12CDD24D394F3E4CF2EA6E54A2EB4E517
:1014F0007B2E11E3612E88EA91E00E946205892B20
:10150000D1F388EA91E00E94A404182F883609F4E8
:1015100075C10CF03EC08B3209F487C194F48D3054
:1015200051F3803241F38A3031F38CED93E00E9425
:10153000F105612F88EA91E00E94A40585EC93E013
:10154000A9C1833509F488C17CF48D3271F7F701A4
:10155000EB5BFD4F8081882309F477C18D19990BCE
:1015600097FF72C180E070C1813609F4ADC1A5E476
:10157000B2E0E2E9F4E08636C1F684918D933196CB
:1015800022E0AA36B207C9F780E693E00E9445063A
:1015900040C1823709F41AC2FCF48E3609F431C115
:1015A000803709F43AC1893609F0BFCF0E94060599
:1015B000653271058105910508F06FC17B01FB0162
:1015C000EB5BFD4F208130E030938B0020938A004D
:1015D000CB010E948F088FCF863709F461C12CF4AC
:1015E000843709F0A2CFC701F4CF873709F4C7C108
:1015F000883709F09ACF90E080E00E94A8038BE939
:1016000093E00E94450685E10E94FF03BC01990F0B
:10161000880B990B611571058105910511F00E94E8
:10162000B50E72E0872E912CA12CB12C6EE8262EDF
:1016300061E0362E84E00E94430311E0009709F434
:1016400010E0892B09F04EC080910001882309F435
:1016500049C08FB7F894C090A401D090A501E09044
:10166000A601F090A7018FBF809188019091890118
:10167000A0918A01B0918B01A7019601281B390B1B
:101680004A0B5B0BDA01C901893C9105A105B10543
:1016900048F180918C0190918D01019663E070E09A
:1016A0000E94451390938D0180938C0186E591E013
:1016B0000E94380660918C0170918D01072E000CFC
:1016C000880B990B97FF85C10E94C70682E491E0C1
:1016D0000E943806C0928801D0928901E0928A0166
:1016E000F0928B011093000181E10E94430331E0ED
:1016F0003AA7009709F41AA6892B09F45EC28091D3
:101700009E0181115AC28EE00E94FF036C0182E1AA
:101710000E94FF032FEF33E0DC010E946D1324E8E9
:1017200033E040E050E00E940710C20ED31E760165
:10173000C11444E0D40624F0EE24EA9453E0F52EDC
:10174000F7FE02C0F12CE12C8FE00E94FF038C0118
:1017500080E10E94FF03BC01990F880B990B0E9446
:10176000D40E20E030EC4FE754E40E940E112B0120
:101770003C01C70181599140853E910508F42DC176
:1017800027E030E0D8010E946D1330E020E06230A5
:101790005CEF75075FEF8507950774F027E030E091
:1017A000683FEFE17E078105910534F42FEF33E0C8
:1017B00040E050E00E940710220F331FF901EE5C59
:1017C000FE4F00811181F8E2CF16D1040CF468C1FC
:1017D00020E9C21621E0D2060CF407C136E7C31691
:1017E00032E0D3060CF42CC146EBC41643E0D40619
:1017F0000CF433C1F801E357FE4FF5C00E945306C5
:101800007ACE34E2E316F10409F4EDCE4FEFE41A98
:10181000F40AF701EB5BFD4F18C0E114F10409F481
:10182000E2CE51E0E51AF108F4CFF701EB5BFD4F92
:1018300080818F3F51F08D0D9927991F8F3F910522
:1018400019F014F08FEF90E08083808190E0909306
:101850008B0080938A00C7CE0E9406054B015C0175
:10186000DC01CB010197A109B1094097A105B105A0
:1018700078F4D62E85E894E00E94F1054AE0C5018F
:10188000B4010E94830682E491E00E94380633CEC0
:101890008DE694E00E9445062ECE84E594E0FACFD2
:1018A0000E9406056F3F71058105910509F048F416
:1018B000F701EB5BFD4F608370938B0060938A00B0
:1018C00092CE8CE394E0E6CF87E194E00E94450657
:1018D000E5E48E2EE2E09E2E10E000E0BE016F5F98
:1018E0007F4FC8010E94E806F401808190E0909348
:1018F0008B0080938A0081E194E00E94F105C80189
:101900000E9409088EE094E00E94F105CE01019644
:101910000E94380684E094E00E94F105C8010E940C
:10192000650842E00E942D078AEF93E00E94F105CE
:10193000F40161914F0170E090E080E04AE00E9484
:10194000830682E491E00E94380660ED77E080E053
:1019500090E00E9436040F5F1F4F0532110509F019
:10196000BDCF8AEE93E00E944506F701EB5BFD4F89
:10197000808190E090938B0080938A00BCCDC982D7
:101980004A827B826C8285E2E5E4F2E0DE01159614
:1019900001900D928A95E1F79E012F5F3F4F49011B
:1019A00010E000E0F40151904F01C8010E94F10FD6
:1019B000581621F0652DC8010E94F90F0F5F1F4FC7
:1019C0000932110579F783E493E064CF0E9413088C
:1019D00020CF4AE00E94830679CE08E010E0F8CEDE
:1019E00002571E4FF801208165C09701FF0C440B80
:1019F000550B2852310941095109A8E2B0E00E9473
:101A0000261028E631E040E050E00E94071069010E
:101A10007A01FAE0CF0ED11CE11CF11C0E94660E87
:101A20000D2C000CEE08FF0824E630E040E050E00A
:101A30000E9407106C157D058E059F050CF0DACE0F
:101A40000E94660EA50194010E94071021E0672BF9
:101A5000682B692B79F520E02DC0C701865792408D
:101A60003AE0C32ED12C84359140C0F69701FF0C8B
:101A7000440B550B2657324041095109A8EDBFEFE1
:101A80000E94341020E431E040E050E00E94071052
:101A900069017A0182E3C80ED11CE11CF11CBECFA2
:101AA000000F111F01501109003111050CF498CFDE
:101AB00020919D010DE911E0F80192918F01918330
:101AC0002E163F06C9F720938E01F10127E030E082
:101AD00070E060E0819190E0022E02C0880F991FB3
:101AE0000A94E2F7682B792B2150310998F7072ED9
:101AF000000C880B990B0E94D40EA30192010E9446
:101B0000330F0E948011CB016093B3000E94A803A1
:101B100080E10E94FF03BC01990F880B990B0E9482
:101B2000D40E20E030EC4FE754E40E940E116B011C
:101B30007C0127E030E0B0E0A0E0F80181918F0166
:101B400090E0022E02C0880F991F0A94E2F7A82B9A
:101B5000B92B2150310988F724E230E00E946D133F
:101B60002FEF30E040E050E00E940710B901330F42
:101B7000880B990B0E94D40EA70196010E94330F87
:101B80000E948011CB016532710514F084E290E06F
:101B900097FF02C090E080E0E0918C01F0918D0110
:101BA000EE0FFF1FE45DFE4F0190F081E02D0995DF
:101BB000992790938B0080938A002AA520939E01F9
:101BC00080E090E0892B09F435CD0E946E058823D2
:101BD00009F42CCD0E94000029CDE8EAF1E013823F
:101BE000128288EE93E0A0E0B0E084839583A68320
:101BF000B7838EE191E09183808385EC90E09587B7
:101C0000848784EC90E09787868780EC90E0918BC6
:101C1000808B81EC90E0938B828B82EC90E0958BB3
:101C2000848B86EC90E0978B868B118E128E138EB0
:101C3000148E08958F929F92AF92BF92CF92DF92AF
:101C4000EF92FF92CF93DF93EC01688179818A81D3
:101C50009B81611571058105910521F464E279ED9F
:101C60008BE597E02DE133EF41E050E00E94071053
:101C700049015A019B01AC01A7EAB1E40E94261078
:101C80006B017C01ACEEB4EFA50194010E9434100D
:101C9000C60ED71EE81EF91EF7FE06C081E0C81A60
:101CA000D108E10880E8F80AC882D982EA82FB827A
:101CB000C701B6019F77DF91CF91FF90EF90DF9042
:101CC000CF90BF90AF909F908F9008958F929F92EA
:101CD000AF92BF92CF92DF92EF92FF92609101019B
:101CE00070910201809103019091040161157105C9
:101CF0008105910521F464E279ED8BE597E02DE112
:101D000033EF41E050E00E94071049015A019B0166
:101D1000AC01A7EAB1E40E9426106B017C01ACEE95
:101D2000B4EFA50194010E943410C60ED71EE81E20
:101D3000F91EF7FE06C081E0C81AD108E10880E864
:101D4000F80AC0920101D0920201E0920301F092E0
:101D50000401C701B6019F77FF90EF90DF90CF900D
:101D6000BF90AF909F908F90089560930101709302
:101D7000020180930301909304010895FB01DC01AB
:101D80004150504048F005900D920020C9F701C025
:101D90001D9241505040E0F708950E940F0F08F443
:101DA00081E00895E89409C097FB3EF490958095F2
:101DB000709561957F4F8F4F9F4F9923A9F0F92F11
:101DC00096E9BB279395F695879577956795B7958F
:101DD000F111F8CFFAF4BB0F11F460FF1BC06F5F75
:101DE0007F4F8F4F9F4F16C0882311F096E911C087
:101DF000772321F09EE8872F762F05C0662371F0A8
:101E000096E8862F70E060E02AF09A95660F771FBB
:101E1000881FDAF7880F9695879597F90895990F97
:101E20000008550FAA0BE0E8FEEF16161706E807A4
:101E3000F907C0F012161306E407F50798F0621BC5
:101E4000730B840B950B39F40A2661F0232B242B9A
:101E5000252B21F408950A2609F4A140A6958FEFB9
:101E6000811D811D08950E94460F0C94B70F0E949A
:101E7000A90F38F00E94B00F20F0952311F00C94B8
:101E8000A00F0C94A60F11240C94EB0F0E94C80F06
:101E900070F3959FC1F3950F50E0551F629FF001BD
:101EA000729FBB27F00DB11D639FAA27F00DB11DD6
:101EB000AA1F649F6627B00DA11D661F829F22275F
:101EC000B00DA11D621F739FB00DA11D621F839FE6
:101ED000A00D611D221F749F3327A00D611D231FBC
:101EE000849F600D211D822F762F6A2F11249F570A
:101EF00050409AF0F1F088234AF0EE0FFF1FBB1F0D
:101F0000661F771F881F91505040A9F79E3F5105CB
:101F100080F00C94A00F0C94EB0F5F3FE4F3983E1D
:101F2000D4F3869577956795B795F795E7959F5F75
:101F3000C1F7FE2B880F911D9695879597F9089507
:101F400097F99F6780E870E060E008959FEF80EC6C
:101F5000089500240A94161617061806090608950F
:101F600000240A9412161306140605060895092E75
:101F70000394000C11F4882352F0BB0F40F4BF2BE4
:101F800011F460FF04C06F5F7F4F8F4F9F4F089524
:101F900057FD9058440F551F59F05F3F71F047951A
:101FA000880F97FB991F61F09F3F79F087950895FF
:101FB000121613061406551FF2CF4695F1DF08C01E
:101FC000161617061806991FF1CF8695710561053B
:101FD00008940895E894BB2766277727CB0197F9E3
:101FE0000895F999FECF92BD81BDF89A992780B5E1
:101FF0000895262FF999FECF1FBA92BD81BD20BD4D
:102000000FB6F894FA9AF99A0FBE01960895052E24
:1020100097FB1EF400940E941E1057FD07D00E94EB
:10202000701007FC03D04EF40C941E105095409590
:10203000309521953F4F4F4F5F4F08959095809574
:10204000709561957F4F8F4F9F4F08950E9492101A
:10205000A59F900DB49F900DA49F800D911D1124FC
:102060000895B7FF0C9426100E942610821B930B34
:1020700008952F923F924F925F926F927F928F922C
:102080009F92AF92BF92CF92DF92EF92FF920F9307
:102090001F93CF93DF93CDB7DEB7CA1BDB0B0FB611
:1020A000F894DEBF0FBECDBF09942A8839884888CE
:1020B0005F846E847D848C849B84AA84B984C88464
:1020C000DF80EE80FD800C811B81AA81B981CE0F5B
:1020D000D11D0FB6F894DEBF0FBECDBFED01089540
:1020E000A1E21A2EAA1BBB1BFD010DC0AA1FBB1F1C
:1020F000EE1FFF1FA217B307E407F50720F0A21B8E
:10210000B30BE40BF50B661F771F881F991F1A94FA
:1021100069F760957095809590959B01AC01BD0124
:10212000CF010895A29FB001B39FC001A39F700D7E
:10213000811D1124911DB29F700D811D1124911DCF
:1021400008955058BB27AA270E94B9100C94B70FC6
:102150000E94A90F38F00E94B00F20F039F49F3F81
:1021600019F426F40C94A60F0EF4E095E7FB0C94FA
:10217000A00FE92F0E94C80F58F3BA176207730720
:102180008407950720F079F4A6F50C94EA0F0EF475
:10219000E0950B2EBA2FA02D0B01B90190010C0177
:1021A000CA01A0011124FF27591B99F0593F50F48F
:1021B000503E68F11A16F040A22F232F342F4427E7
:1021C000585FF3CF469537952795A795F0405395DF
:1021D000C9F77EF41F16BA0B620B730B840BBAF0AF
:1021E0009150A1F0FF0FBB1F661F771F881FC2F71A
:1021F0000EC0BA0F621F731F841F48F4879577952E
:102200006795B795F7959E3F08F0B0CF9395880FE7
:1022100008F09927EE0F9795879508950E9422114F
:102220000C94B70F0E94B00F58F00E94A90F40F015
:1022300029F45F3F29F00C94A00F51110C94EB0F7F
:102240000C94A60F0E94C80F68F39923B1F355238D
:1022500091F3951B550BBB27AA27621773078407B9
:1022600038F09F5F5F4F220F331F441FAA1FA9F34F
:1022700035D00E2E3AF0E0E832D091505040E6953D
:10228000001CCAF72BD0FE2F29D0660F771F881F9E
:10229000BB1F261737074807AB07B0E809F0BB0B91
:1022A000802DBF01FF2793585F4F3AF09E3F5105A5
:1022B00078F00C94A00F0C94EB0F5F3FE4F3983E82
:1022C000D4F3869577956795B795F7959F5FC9F78E
:1022D000880F911D9695879597F90895E1E0660F0F
:1022E000771F881FBB1F621773078407BA0720F088
:1022F000621B730B840BBA0BEE1F88F7E0950895F1
:102300000E9487116894B1110C94EB0F08950E94FC
:10231000D00F88F09F5798F0B92F9927B751B0F098
:10232000E1F0660F771F881F991F1AF0BA95C9F759
:1023300014C0B13091F00E94EA0FB1E008950C94FE
:10234000EA0F672F782F8827B85F39F0B93FCCF3B1
:10235000869577956795B395D9F73EF490958095D6
:10236000709561957F4F8F4F9F4F08950E940F0F7B
:1023700008F48FEF0895FA01EE0FFF1F3096210544
:102380003105A1F16115710561F48038BFE39B0748
:1023900049F168949038810561F08038BFEF9B0760
:1023A00041F099234AF5FF3FE1053105210519F177
:1023B000E8940894E795D901AA2329F4AB2FBE2FFE
:1023C000F85FD0F310C0FF5F70F4A695E0F7F7391F
:1023D00050F019F0FF3A38F49F779F930DD00F908B
:1023E00007FC9058089546F00C94A60F60E070E04A
:1023F00080E89FE308954FE79F775F934F933F9364
:102400002F930E94BB122F913F914F915F910E9499
:10241000330F0C9418120E940F0F880B990B08951C
:1024200029F416F00C94A00F0C94EA0F0C94A60F4C
:102430000E94D00FA8F39638A0F707F80F92E894FF
:102440002BE33AEA48EB5FE70E94490F0F920F92A5
:102450000F924DB75EB70F920E940313E8E6F0E0CB
:102460000E944A124F915F91EF91FF91E595EE1F07
:10247000FF1F49F0FE57E0684427EE0F441FFA950E
:10248000E1F74195550B0E947D120F9007FE0C94C9
:1024900071120895DF93CF931F930F93FF92EF92E2
:1024A000DF927B018C01689406C0DA2EEF010E9456
:1024B000460FFE01E894A5912591359145915591DE
:1024C000A6F3EF010E94B910FE019701A801DA946A
:1024D00069F7DF90EF90FF900F911F91CF91DF91FF
:1024E00008959B01AC0160E070E080E89FE30C94EC
:1024F0000E110C94A00F0C9437130E94D00FD8F338
:102500009923C9F3940F511DA3F39150504094F0B7
:1025100059F0882332F0660F771F881F9150504082
:10252000C1F79E3F51052CF7880F911D9695879511
:1025300097F908955F3FACF0983E9CF0BB278695D5
:1025400077956795B79508F4B1609395C1F7BB0F80
:1025500058F711F460FFE8CF6F5F7F4F8F4F9F4FA9
:10256000E3CF0C94EB0F16F00C9437130C94A60FDA
:1025700068940C94A00F0E94D00FA8F39923C1F384
:10258000AEF3DF93CF931F930F93FF92C92FDD27F5
:1025900088232AF02197660F771F881FDAF720E03B
:1025A00030E040E85FEB9FE3883920F0803E38F070
:1025B00021968F770E94A210E0E9F0E004C00E940B
:1025C000A210EDEBF0E00E944A128B01BE01EC017B
:1025D000FB2E6F5771097595771F880B990B0E9419
:1025E000D40E28E132E741E35FE30E94460FAF2DAE
:1025F0009801AE01FF900F911F91CF91DF910E9442
:10260000B9100C94B70FFA01DC01AA0FBB1F9B0194
:10261000AC01BF5728F4222733274427507820C025
:10262000B75190F4AB2F0024469537952795011CA0
:10263000A395D2F3002071F0220F331F441FB395EE
:10264000DAF30ED00C94A11061307105A0E88A076E
:10265000B94630F49B01AC0166277727882790782C
:10266000309621F0208331834283538308959F3F26
:1026700031F0915020F4879577956795B795880F3D
:10268000911D9695879597F90895AA1BBB1B51E15B
:1026900007C0AA1FBB1FA617B70710F0A61BB70BD2
:1026A000881F991F5A95A9F780959095BC01CD0177
:1026B000089597FB072E16F4009407D077FD09D0F4
:1026C0000E94451307FC05D03EF4909581959F4FDD
:1026D0000895709561957F4F08950E949210B7FFFD
:1026E0000895821B930B0895EE0FFF1F0590F49140
:1026F000E02D0994AEE0B0E0E0E8F3E10C9447107F
:102700000D891E898F89988D26E02C831A83098371
:1027100097FF02C080E090E801979E838D83AE0111
:10272000455E5F4F698D7A8DCE0101960E94AA1396
:102730004D815E8157FD0AC02F81388542175307AE
:102740000CF49A01020F131FF80110822E96E4E098
:102750000C946310ABE0B0E0E0EBF3E10C943910C3
:102760007C013B018A01FC0117821682838181FF73
:10277000C8C1CE0101965C01F7019381F30193FD7D
:10278000859193FF81913F01882309F453C18532DC
:1027900039F493FD859193FF81913F01853229F4AE
:1027A000B70190E00E949A15E7CF912C212C312C93
:1027B000FFE1F31538F08B3211F190F4803209F11A
:1027C000833229F137FC3CC020ED280F2A3050F528
:1027D00036FE20C08AE0989E200D1124922E06C05D
:1027E0008D3291F0803371F7689430F8F30193FDE6
:1027F000859193FF81913F018111DACF21C06894C7
:1028000031F8689432F8F2CF689433F8EFCF6894D7
:1028100034F8ECCFEAE02E9E200D1124222E68948D
:1028200035F8E4CF8E3229F436FC04C1689436F8CA
:10283000DDCF8C3619F4689437F8D8CF8836B1F2EA
:10284000982F9F7D95549330E0F08336A1F1833724
:10285000C1F1833509F063C02801F2E04F0E511C2D
:10286000F801C080D180692D70E036FC02C06FEFA6
:102870007FEFC6010E9484154C01689437F88201ED
:102880000AC00C5F1F4FFFE3F98388248394912CC7
:102890006501E89437F833FE2DC0522C8114910461
:1028A00071F5552009F468CFB70180E290E00E94ED
:1028B0009A155A94F6CFF801808189830E5F1F4FD5
:1028C000E4CF2801F2E04F0E511CF801C080D18006
:1028D000692D70E036FC02C06FEF7FEFC6010E94E9
:1028E0008F154C018201D5CFB70180E290E00E94A4
:1028F0009A152A942814190409F0B0F7CECFF601DE
:1029000037FC859137FE81916F01B70190E00E94FD
:102910009A1551105A94F1E08F1A9108BFCF84365E
:1029200019F0893609F077C0F80137FE6BC0608175
:102930007181828193810C5F1F4FF32DFF763F2EB3
:1029400097FF09C090958095709561957F4F8F4F47
:102950009F4F689437F82AE030E0A5010E94CA151D
:10296000C82ECA188C2C432C36FE0CC0E89440F8B4
:10297000C91440F434FE05C032FC03C0F32DFE7EC2
:102980004F2E892C44FE95C0FE01EC0DF11D808177
:10299000803309F087C0242D297E422E842D887033
:1029A000582E43FC95C040FE8FC09C2C821418F416
:1029B0002C0C922C981844FE91C0B70180E390E053
:1029C0000E949A1542FE09C088E790E041FE02C0CD
:1029D00088E590E0B7010E949A15C91408F48AC0EE
:1029E000CA94D12C9FEFC91AD90ACA0CDB1CF60174
:1029F00082916F01B70190E00E949A15AC14BD045A
:102A0000B1F74FCF60817181072E000C880B990BB5
:102A10000E5F1F4F92CFD32CE894D4F82AE030E019
:102A2000853739F1232D297FD22E8F3601F148F4D5
:102A30008835A9F0F701868197812B96E2E10C9405
:102A40005510803749F08837A9F7D4FE02C0689442
:102A5000D2F820E130E00DC06894D4F8F6CF34FE0F
:102A600003C0822F8660D82E20E132E002C028E029
:102A700030E0F801D7FE0FC06081718182819381BF
:102A80000C5F1F4FA5010E94CA15C82ECA183D2C05
:102A9000E89437F867CF6081718190E080E00E5F45
:102AA0001F4FF0CF42FC02C0839478CF839483946D
:102AB00075CF842D867809F471CFF6CFB70180E207
:102AC00090E00E949A1583948214C0F3512C73CF26
:102AD000522C5818821408F46ECFF8CF842D8678C3
:102AE00009F47BCF8BE241FE80E247FC8DE2B70127
:102AF00090E071CFB70180E390E00E949A159A941C
:102B00006CCF8FEF9FEF99CFFC0105906150704023
:102B10000110D8F7809590958E0F9F1F0895FC01A6
:102B20006150704001900110D8F7809590958E0FFC
:102B30009F1F08950F931F93CF93DF93182F092F93
:102B4000EB018B8181FD09C01FEF0FEF812F902FCB
:102B5000DF91CF911F910F91089582FF14C02E81B4
:102B60003F818C819D81281739073CF4E881F981E8
:102B7000CF0101969983888310838E819F8101966E
:102B80009F838E83E3CFE885F985812F0995892B73
:102B9000A1F3DACFFA01AA27283051F1203181F1CF
:102BA000E8946F936E7F6E5F7F4F8F4F9F4FAF4F55
:102BB000B1E03ED0B4E03CD0670F781F891F9A1F68
:102BC000A11D680F791F8A1F911DA11D6A0F711D1C
:102BD000811D911DA11D20D009F468943F912AE028
:102BE000269F11243019305D3193DEF6CF01089510
:102BF000462F4770405D4193B3E00FD0C9F7F6CF41
:102C0000462F4F70405D4A3318F0495D31FD405208
:102C1000419302D0A9F7EACFB4E0A695979587959E
:102C200077956795BA95C9F700976105710508957D
:102C30009B01AC010A2E0694579547953795279529
:102C4000BA95C9F7620F731F841F951FA01D0895C1
:102C5000F894FFCF01010000000002040507090BF2
:102C60000002030507080A0001030507080A00001F
:102C70000000A405680495040C066205A404B804C9
:102C8000340630062C06020003000400050006008E
:102C900008000C0010000D0A0025732564006E6109
:102CA0006E00696E66006F766600537769746368BC
:102CB000656420746F207363616C653A2000430083
:102CC00043230044004423004500460046230047B8
:0C2CD000004723004100412300420000A7
:107800000C94343C0C94513C0C94513C0C94513CE1
:107810000C94513C0C94513C0C94513C0C94513CB4
:107820000C94513C0C94513C0C94513C0C94513CA4
:107830000C94513C0C94513C0C94513C0C94513C94
:107840000C94513C0C94513C0C94513C0C94513C84
:107850000C94513C0C94513C0C94513C0C94513C74
:107860000C94513C0C94513C11241FBECFEFD8E036
:10787000DEBFCDBF11E0A0E0B1E0ECE9FFE702C060
:1078800005900D92A230B107D9F712E0A2E0B1E065
:1078900001C01D92AD30B107E1F70E942D3D0C945F
:1078A000CC3F0C94003C982F959595959595959582
:1078B000905D8F708A307CF0282F295A8091C0000B
:1078C00085FFFCCF9093C6008091C00085FFFCCF60
:1078D0002093C6000895282F205DF0CF982F809127
:1078E000C00085FFFCCF9093C6000895EF92FF92F1
:1078F0000F931F93EE24FF2487018091C00087FD22
:1079000017C00894E11CF11C011D111D81E4E8164B
:1079100082E4F8068FE0080780E0180770F3E09132
:107920000401F091050109958091C00087FFE9CF1E
:107930008091C6001F910F91FF90EF9008950E94D3
:10794000763C982F8091C00085FFFCCF9093C600B5
:1079500091362CF490330CF09053892F089597555D
:10796000892F08951F930E949F3C182F0E949F3CCF
:107970001295107F810F1F9108951F93182F882350
:1079800021F00E94763C1150E1F71F9108951F935A
:10799000182F0E94763C803249F0809103018F5F5E
:1079A000809303018530C1F01F9108958091C0003C
:1079B00085FFFCCF84E18093C6008091C00085FFE5
:1079C000FCCF1093C6008091C00085FFFCCF80E102
:1079D0008093C6001F910895E0910401F091050184
:1079E00009951F9108950E94763C803241F0809164
:1079F00003018F5F80930301853081F008958091AA
:107A0000C00085FFFCCF84E18093C6008091C00058
:107A100085FFFCCF80E18093C6000895E0910401CA
:107A2000F09105010995089540E951E08823A1F0FE
:107A30002D9A28EE33E0FA013197F1F721503040CA
:107A4000D1F72D9828EE33E0FA013197F1F7215064
:107A50003040D1F7815061F708953F924F925F9285
:107A60006F927F928F929F92AF92BF92CF92DF924E
:107A7000EF92FF920F931F93CF93DF93000080E16B
:107A80008093C4001092C50088E18093C10086E015
:107A90008093C2005098589A259A81E00E94143D24
:107AA00024E1F22E9EE1E92E85E9D82E0FE0C02ECA
:107AB00010E1B12EAA24A394B1E49B2EA6E58A2E50
:107AC000F2E57F2EE0E26E2E79E4572E63E5462E36
:107AD00050E5352E0E94763C8033B1F18133B9F107
:107AE000803409F46FC0813409F476C0823409F41B
:107AF00085C0853409F488C0803531F1823521F1A3
:107B0000813511F1853509F485C0863509F48DC0BC
:107B1000843609F496C0843709F403C1853709F423
:107B200072C1863709F466C0809103018F5F80932C
:107B30000301853079F6E0910401F0910501099582
:107B40000E94763C803351F60E94F33CC3CF0E94E2
:107B5000763C803249F78091C00085FFFCCFF092DF
:107B6000C6008091C00085FFFCCF9092C600809136
:107B7000C00085FFFCCF8092C6008091C00085FFC9
:107B8000FCCF7092C6008091C00085FFFCCF609250
:107B9000C6008091C00085FFFCCF5092C600809146
:107BA000C00085FFFCCF4092C6008091C00085FFD9
:107BB000FCCF3092C6008091C00085FFFCCFB09210
:107BC000C60088CF0E94763C863808F4BDCF0E945C
:107BD000763C0E94F33C7ECF0E94763C803809F4CC
:107BE0009CC0813809F40BC1823809F43CC1883942
:107BF00009F48FC080E00E94C73C6CCF84E10E94F2
:107C0000BD3C0E94F33C66CF85E00E94BD3C0E94D3
:107C1000F33C60CF0E94763C809306010E94763C44
:107C2000809307010E94F33C55CF0E94763C80333D
:107C300009F41DC183E00E94BD3C80E00E94C73C66
:107C400049CF0E94763C809309020E94763C809343
:107C5000080280910C028E7F80930C020E94763C79
:107C6000853409F415C18091080290910902892B8D
:107C700089F000E010E00E94763CF801E85FFE4FDA
:107C800080830F5F1F4F80910802909109020817AF
:107C9000190788F30E94763C803209F045CF809125
:107CA0000C0280FF01C16091060170910701660F0F
:107CB000771F7093070160930601A0910802B091AD
:107CC00009021097C9F0E8E0F1E09B01AD014E0F09
:107CD0005F1FF999FECF32BD21BD819180BDFA9A17
:107CE000F99A2F5F3F4FE417F50799F76A0F7B1F4B
:107CF00070930701609306018091C00085FFFCCF5F
:107D0000F092C6008091C00085FFFCCFB092C60003
:107D1000E1CE83E00E94C73CDDCE82E00E94C73CFA
:107D2000D9CE0E94763C809309020E94763C8093D3
:107D300008028091060190910701880F991F909386
:107D40000701809306010E94763C853409F4A6C0A1
:107D500080910C028E7F80930C020E94763C8032D0
:107D600009F0B8CE8091C00085FFFCCFF092C6002C
:107D7000609108027091090261157105B9F140E046
:107D800050E080910C02A82FA170B82FB27011C0E2
:107D9000BB2309F45CC0E0910601F0910701319624
:107DA000F0930701E09306014F5F5F4F46175707B7
:107DB000E8F4AA2369F3F999FECF209106013091E6
:107DC000070132BD21BDF89A90B58091C00085FFB2
:107DD000FCCF9093C6002F5F3F4F30930701209355
:107DE00006014F5F5F4F4617570718F38091C00099
:107DF00085FDE5CE8091C00085FFF8CFE0CE81E023
:107E00000E94C73C67CE0E94763C803209F08CCE3F
:107E10008091C00085FFFCCFF092C6008091C00029
:107E200085FFFCCFE092C6008091C00085FFFCCFAB
:107E3000D092C6008091C00085FFFCCFC092C600E2
:107E40008091C00085FFFCCFB092C60043CEE09188
:107E50000601F091070194918091C00085FFFCCF4D
:107E60009093C6009CCF80E10E94C73C33CE0E9415
:107E7000763C0E94763C182F0E94763C112309F430
:107E800083C0113009F484C08FE00E94C73C22CE29
:107E900080910C02816080930C02E5CE80910C02EF
:107EA000816080930C0259CF809107018823880F4D
:107EB000880B8A2180930B02809106019091070123
:107EC000880F991F90930701809306018091080203
:107ED00080FF09C080910802909109020196909359
:107EE000090280930802F894F999FECF1127E091D6
:107EF0000601F0910701C8E0D1E08091080290915D
:107F00000902103091F40091570001700130D9F34B
:107F100003E000935700E89500915700017001308D
:107F2000D9F301E100935700E89509901990009169
:107F3000570001700130D9F301E000935700E89534
:107F40001395103498F011270091570001700130FB
:107F5000D9F305E000935700E895009157000170B0
:107F60000130D9F301E100935700E895329602976A
:107F700009F0C7CF103011F00296E5CF112480919F
:107F8000C00085FFB9CEBCCE8EE10E94C73CA2CD19
:0E7F900085E90E94C73C9ECDF894FFCF80008B
:00000001FF
