:020000040000FA
:100000000C948E000C94AB000C94AB000C94AB00E1
:100010000C94AB000C94AB000C94AB000C94AB00B4
:100020000C94AB000C94AB000C94AB000C94AB00A4
:100030000C94AB000C94AB000C94AB000C94AB0094
:100040000C9447010C94AB000C94AB000C94AB00E7
:100050000C94AB000C94AB000C94AB000C94AB0074
:100060000C94AB000C94AB0008000000BE92244935
:10007000123EABAAAA2ABECDCCCC4C3E00000080DA
:10008000BEABAAAAAA3E00000000BF000000803F4D
:100090000000000000084178D3BB4387D1133D190D
:1000A0000E3CC3BD4282AD2B3E68EC8276BED98F3A
:1000B000E1A93E4C80EFFFBE01C4FF7F3F0000007E
:1000C00000000000000023002600290000000000BE
:1000D000240027002A0000000000250028002B0033
:1000E00004040404040404040202020202020303DE
:1000F00003030303010204081020408001020408E6
:100100001020010204081020000000080002010075
:1001100000030407000000000000000011241FBEBF
:10012000CFEFD8E0DEBFCDBF11E0A0E0B1E0E4E06A
:10013000FEE002C005900D92A230B107D9F721E090
:10014000A2E0B1E001C01D92A331B207E1F70E9425
:1001500091010C9400070C940000833081F028F486
:10016000813099F08230A9F008958730A9F0883065
:10017000C9F08430B1F4809180008F7D03C08091FC
:1001800080008F7780938000089584B58F7784BD39
:10019000089584B58F7DFBCF8091B0008F778093D9
:1001A000B00008958091B0008F7DF9CF1F93CF9359
:1001B000DF93282F30E0F901E85FFE4F8491F901C9
:1001C000EC50FF4FD491F901E052FF4FC491CC2382
:1001D000A9F0162F81110E94AD00EC2FF0E0EE0F78
:1001E000FF1FEA52FF4FA591B4918FB7F894EC919D
:1001F000111108C0D095DE23DC938FBFDF91CF9122
:100200001F910895DE2BF8CFCF93DF9390E0FC0190
:10021000EC50FF4F249180529F4FFC018491882322
:10022000D1F090E0880F991FFC01E453FF4FA59196
:10023000B491FC01EA52FF4FC591D491623071F440
:100240009FB7F8943C91822F809583238C93E8810B
:100250002E2B28839FBFDF91CF9108958FB7F894FD
:10026000EC912E2B2C938FBFF6CF8E508064809311
:100270007C0080917A00806480937A0080917A007B
:1002800086FDFCCF809178009091790008951F92AF
:100290000F920FB60F9211242F933F938F939F933A
:1002A000AF93BF9380910F0190911001A091110124
:1002B000B091120130910E0123E0230F2D3758F534
:1002C0000196A11DB11D20930E0180930F01909303
:1002D0001001A0931101B093120180910A01909135
:1002E0000B01A0910C01B0910D010196A11DB11D52
:1002F00080930A0190930B01A0930C01B0930D0120
:10030000BF91AF919F918F913F912F910F900FBE11
:100310000F901F90189526E8230F0296A11DB11D7E
:10032000D2CFCF93DF9300D000D0CDB7DEB7789493
:1003300084B5826084BD84B5816084BD85B58260EA
:1003400085BD85B5816085BD80916E00816080939B
:100350006E00109281008091810082608093810004
:100360008091810081608093810080918000816014
:10037000809380008091B10084608093B10080916F
:10038000B00081608093B00080917A008460809397
:100390007A0080917A00826080937A0080917A005E
:1003A000816080937A0080917A00806880937A00DF
:1003B0001092C10062E082E10E94040161E08BE0E2
:1003C0000E94040161E083E00E94040161E08AE090
:1003D0000E94040160E08BE00E94D60060E083E0B0
:1003E0000E94D60081E28093800089E080938100A2
:1003F00088248A9453E0952EA12CB12C8FB7F894C1
:10040000C0900F01D0901001E0901101F090120106
:100410008FBF8EE00E9435019A8389838FE00E940E
:1004200035018C0180E10E9435013C0181E10E948F
:100430003501811524E0920714F08FEF93E0BC01A1
:1004400097FF02C070E060E0072E000C880B990B4C
:100450000E94570520E030E040EA50E40E94570631
:1004600020E030EC4FE754E40E94AD041B012C0166
:100470002AE037ED43E25CE30E94A80487FF08C04E
:100480004AE0242E47ED342E43E2442E4CE3542E12
:10049000C201B1010E940F0628E132E741E35FE3A8
:1004A0000E94AD0428E73AE944ED50E40E943C0480
:1004B0002AED33E74FE051E40E94AD0420E030E044
:1004C0004FE753E40E94570620E030E040E05FE34E
:1004D0000E943C040E941F057C836B836F3F710563
:1004E00029F024F08FEF90E09C838B8320E831E0AB
:1004F000D8010E94F906A50194010E94D803205852
:100500003F4F4F4F5F4FAB81BC81B7FF02C0B0E0A0
:10051000A0E00E940204272E382E492E552447FCC5
:100520005A9409811A81B801110F880B990B37E091
:10053000660F771F881F991F3A95D1F7A50194017F
:100540000E94D8032054310941095109220E331E5B
:10055000441E551E1FEF211631044104510429F099
:1005600024F0212C312C21012A9457FE03C0212C88
:10057000312C21013A82298261E08AE00E94040143
:1005800009811A81012B09F047C060E08AE00E94CE
:10059000D600EAE1F1E08491E6E0F1E0F491F9833C
:1005A000E2EFF0E0F491FB83F11181C08091010151
:1005B000811190C080930101809100018111BFC021
:1005C00061E08BE00E94D60081E080930001809181
:1005D000020190910301A0910401B09105010097DF
:1005E000A105B10589F0C816D906EA06FB0660F038
:1005F00060E083E00E94D600109202011092030195
:10060000109204011092050120E030E0232B09F440
:10061000F5CE0E940000F2CE09811A810F3F11052C
:1006200011F461E0B3CFE2E1F1E08491833029F18C
:1006300050F48130C1F08230D9F009811A8100383C
:1006400011057CF7A2CF873011F1883041F1843059
:10065000A1F78091800080628093800030928B00AF
:1006600020928A0096CF84B5806884BD27BC91CF44
:1006700084B5806284BD28BC8CCF80918000806866
:1006800080938000309289002092880082CF8091F0
:10069000B00080688093B0002092B3007ACF809140
:1006A000B00080628093B0002092B40072CF8111BC
:1006B0000E94AD000B81E02FF0E0EE0FFF1FEE5324
:1006C000FF4FA591B4918C911981182309F46ECF35
:1006D00081E070CF80910001823079F58091060130
:1006E00090910701A0910801B0910901A70196011D
:1006F000281B390B4A0B5B0BDA01C9010697A105D0
:10070000B105D8F0C0920601D0920701E09208012D
:10071000F092090110920001D701C6018896A11D2F
:10072000B11D8093020190930301A0930401B09343
:10073000050161E083E00E94D60080E03BCF81307C
:1007400009F045CF22E630E0D3010E94F906A50169
:1007500094010E94D803BA01A9014E5F5F4F6F4F09
:100760007F4F423051056105710520F442E050E0B1
:1007700060E070E08091060190910701A09108016E
:10078000B091090197018601081B190B2A0B3B0B3D
:10079000D901C80184179507A607B70708F417CF32
:1007A00060E08BE00E94D60012E0109300010FCFB2
:1007B000052E97FB1EF400940E94EF0357FD07D00F
:1007C0000E940A0407FC03D04EF40C94EF035095EA
:1007D0004095309521953F4F4F4F5F4F089590952D
:1007E0008095709561957F4F8F4F9F4F08950E9420
:1007F0002C04A59F900DB49F900DA49F800D911D7A
:1008000011240895B7FF0C94F7030E94F703821B8D
:10081000930B0895A1E21A2EAA1BBB1BFD010DC06C
:10082000AA1FBB1FEE1FFF1FA217B307E407F507A0
:1008300020F0A21BB30BE40BF50B661F771F881F7C
:10084000991F1A9469F760957095809590959B0112
:10085000AC01BD01CF010895A29FB001B39FC001BB
:10086000A39F700D811D1124911DB29F700D811DDC
:100870001124911D08955058BB27AA270E945304A4
:100880000C94CD050E94BF0538F00E94C60520F0EB
:1008900039F49F3F19F426F40C94BC050EF4E0954E
:1008A000E7FB0C94B605E92F0E94DE0558F3BA1752
:1008B000620773078407950720F079F4A6F50C9476
:1008C00000060EF4E0950B2EBA2FA02D0B01B901F6
:1008D00090010C01CA01A0011124FF27591B99F0B6
:1008E000593F50F4503E68F11A16F040A22F232FC2
:1008F000342F4427585FF3CF469537952795A79512
:10090000F0405395C9F77EF41F16BA0B620B730BB8
:10091000840BBAF09150A1F0FF0FBB1F661F771F29
:10092000881FC2F70EC0BA0F621F731F841F48F4DE
:10093000879577956795B795F7959E3F08F0B0CF67
:100940009395880F08F09927EE0F9795879508954E
:100950000E94920508F481E008950E94C1040C945D
:10096000CD050E94C60558F00E94BF0540F029F44D
:100970005F3F29F00C94B60551110C9401060C94BC
:10098000BC050E94DE0568F39923B1F3552391F36A
:10099000951B550BBB27AA2762177307840738F0EE
:1009A0009F5F5F4F220F331F441FAA1FA9F335D04B
:1009B0000E2E3AF0E0E832D091505040E695001CFF
:1009C000CAF72BD0FE2F29D0660F771F881FBB1FB9
:1009D000261737074807AB07B0E809F0BB0B802D97
:1009E000BF01FF2793585F4F3AF09E3F510578F0C3
:1009F0000C94B6050C9401065F3FE4F3983ED4F3E3
:100A0000869577956795B795F7959F5FC9F7880F96
:100A1000911D9695879597F90895E1E0660F771FE8
:100A2000881FBB1F621773078407BA0720F0621B79
:100A3000730B840BBA0BEE1F88F7E09508950E94A4
:100A400026056894B1110C94010608950E94E605EC
:100A500088F09F5798F0B92F9927B751B0F0E1F07F
:100A6000660F771F881F991F1AF0BA95C9F714C02F
:100A7000B13091F00E940006B1E008950C94000698
:100A8000672F782F8827B85F39F0B93FCCF3869568
:100A900077956795B395D9F73EF4909580957095C5
:100AA00061957F4F8F4F9F4F0895E89409C097FB42
:100AB0003EF490958095709561957F4F8F4F9F4F35
:100AC0009923A9F0F92F96E9BB279395F695879579
:100AD00077956795B795F111F8CFFAF4BB0F11F43C
:100AE00060FF1BC06F5F7F4F8F4F9F4F16C08823E3
:100AF00011F096E911C0772321F09EE8872F762F19
:100B000005C0662371F096E8862F70E060E02AF059
:100B10009A95660F771F881FDAF7880F9695879545
:100B200097F90895990F0008550FAA0BE0E8FEEF1A
:100B300016161706E807F907C0F012161306E407A1
:100B4000F50798F0621B730B840B950B39F40A269A
:100B500061F0232B242B252B21F408950A2609F478
:100B6000A140A6958FEF811D811D089597F99F677C
:100B700080E870E060E008959FEF80EC0895002425
:100B80000A941616170618060906089500240A94F2
:100B900012161306140605060895092E0394000C78
:100BA00011F4882352F0BB0F40F4BF2B11F460FF07
:100BB00004C06F5F7F4F8F4F9F4F089557FD905830
:100BC000440F551F59F05F3F71F04795880F97FB11
:100BD000991F61F09F3F79F08795089512161306CB
:100BE0001406551FF2CF4695F1DF08C016161706FA
:100BF0001806991FF1CF869571056105089408952F
:100C0000E894BB2766277727CB0197F9089516F05C
:100C10000C94C4060C94BC0568940C94B6050E9410
:100C2000E605A8F39923C1F3AEF3DF93CF931F93A7
:100C30000F93FF92C92FDD2788232AF02197660F93
:100C4000771F881FDAF720E030E040E85FEB9FE392
:100C5000883920F0803E38F021968F770E943C043E
:100C6000E8E6F0E004C00E943C04E5E9F0E00E9400
:100C7000D2068B01BE01EC01FB2E6F5771097595F1
:100C8000771F880B990B0E94570528E132E741E353
:100C90005FE30E946A06AF2D9801AE01FF900F91AD
:100CA0001F91CF91DF910E9453040C94CD050E94B7
:100CB0006A060C94CD050E94BF0538F00E94C60557
:100CC00020F0952311F00C94B6050C94BC0511246A
:100CD0000C9401060E94DE0570F3959FC1F3950FF9
:100CE00050E0551F629FF001729FBB27F00DB11DB0
:100CF000639FAA27F00DB11DAA1F649F6627B00D40
:100D0000A11D661F829F2227B00DA11D621F739F28
:100D1000B00DA11D621F839FA00D611D221F749F36
:100D20003327A00D611D231F849F600D211D822F7D
:100D3000762F6A2F11249F5750409AF0F1F08823A4
:100D40004AF0EE0FFF1FBB1F661F771F881F9150D1
:100D50005040A9F79E3F510580F00C94B6050C94C5
:100D600001065F3FE4F3983ED4F386957795679547
:100D7000B795F795E7959F5FC1F7FE2B880F911DFB
:100D80009695879597F908959F3F31F0915020F4FB
:100D9000879577956795B795880F911D9695879557
:100DA00097F90895DF93CF931F930F93FF92EF92DC
:100DB000DF927B018C01689406C0DA2EEF010E945D
:100DC0006A06FE01E894A5912591359145915591CA
:100DD000A6F3EF010E945304FE019701A801DA94E3
:100DE00069F7DF90EF90FF900F911F91CF91DF9106
:100DF00008950E942C04B7FF0895821B930B089559
:060E0000F894FFCF02018F
:107800000C94343C0C94513C0C94513C0C94513CE1
:107810000C94513C0C94513C0C94513C0C94513CB4
:107820000C94513C0C94513C0C94513C0C94513CA4
:107830000C94513C0C94513C0C94513C0C94513C94
:107840000C94513C0C94513C0C94513C0C94513C84
:107850000C94513C0C94513C0C94513C0C94513C74
:107860000C94513C0C94513C11241FBECFEFD8E036
:10787000DEBFCDBF11E0A0E0B1E0ECE9FFE702C060
:1078800005900D92A230B107D9F712E0A2E0B1E065
:1078900001C01D92AD30B107E1F70E942D3D0C945F
:1078A000CC3F0C94003C982F959595959595959582
:1078B000905D8F708A307CF0282F295A8091C0000B
:1078C00085FFFCCF9093C6008091C00085FFFCCF60
:1078D0002093C6000895282F205DF0CF982F809127
:1078E000C00085FFFCCF9093C6000895EF92FF92F1
:1078F0000F931F93EE24FF2487018091C00087FD22
:1079000017C00894E11CF11C011D111D81E4E8164B
:1079100082E4F8068FE0080780E0180770F3E09132
:107920000401F091050109958091C00087FFE9CF1E
:107930008091C6001F910F91FF90EF9008950E94D3
:10794000763C982F8091C00085FFFCCF9093C600B5
:1079500091362CF490330CF09053892F089597555D
:10796000892F08951F930E949F3C182F0E949F3CCF
:107970001295107F810F1F9108951F93182F882350
:1079800021F00E94763C1150E1F71F9108951F935A
:10799000182F0E94763C803249F0809103018F5F5E
:1079A000809303018530C1F01F9108958091C0003C
:1079B00085FFFCCF84E18093C6008091C00085FFE5
:1079C000FCCF1093C6008091C00085FFFCCF80E102
:1079D0008093C6001F910895E0910401F091050184
:1079E00009951F9108950E94763C803241F0809164
:1079F00003018F5F80930301853081F008958091AA
:107A0000C00085FFFCCF84E18093C6008091C00058
:107A100085FFFCCF80E18093C6000895E0910401CA
:107A2000F09105010995089540E951E08823A1F0FE
:107A30002D9A28EE33E0FA013197F1F721503040CA
:107A4000D1F72D9828EE33E0FA013197F1F7215064
:107A50003040D1F7815061F708953F924F925F9285
:107A60006F927F928F929F92AF92BF92CF92DF924E
:107A7000EF92FF920F931F93CF93DF93000080E16B
:107A80008093C4001092C50088E18093C10086E015
:107A90008093C2005098589A259A81E00E94143D24
:107AA00024E1F22E9EE1E92E85E9D82E0FE0C02ECA
:107AB00010E1B12EAA24A394B1E49B2EA6E58A2E50
:107AC000F2E57F2EE0E26E2E79E4572E63E5462E36
:107AD00050E5352E0E94763C8033B1F18133B9F107
:107AE000803409F46FC0813409F476C0823409F41B
:107AF00085C0853409F488C0803531F1823521F1A3
:107B0000813511F1853509F485C0863509F48DC0BC
:107B1000843609F496C0843709F403C1853709F423
:107B200072C1863709F466C0809103018F5F80932C
:107B30000301853079F6E0910401F0910501099582
:107B40000E94763C803351F60E94F33CC3CF0E94E2
:107B5000763C803249F78091C00085FFFCCFF092DF
:107B6000C6008091C00085FFFCCF9092C600809136
:107B7000C00085FFFCCF8092C6008091C00085FFC9
:107B8000FCCF7092C6008091C00085FFFCCF609250
:107B9000C6008091C00085FFFCCF5092C600809146
:107BA000C00085FFFCCF4092C6008091C00085FFD9
:107BB000FCCF3092C6008091C00085FFFCCFB09210
:107BC000C60088CF0E94763C863808F4BDCF0E945C
:107BD000763C0E94F33C7ECF0E94763C803809F4CC
:107BE0009CC0813809F40BC1823809F43CC1883942
:107BF00009F48FC080E00E94C73C6CCF84E10E94F2
:107C0000BD3C0E94F33C66CF85E00E94BD3C0E94D3
:107C1000F33C60CF0E94763C809306010E94763C44
:107C2000809307010E94F33C55CF0E94763C80333D
:107C300009F41DC183E00E94BD3C80E00E94C73C66
:107C400049CF0E94763C809309020E94763C809343
:107C5000080280910C028E7F80930C020E94763C79
:107C6000853409F415C18091080290910902892B8D
:107C700089F000E010E00E94763CF801E85FFE4FDA
:107C800080830F5F1F4F80910802909109020817AF
:107C9000190788F30E94763C803209F045CF809125
:107CA0000C0280FF01C16091060170910701660F0F
:107CB000771F7093070160930601A0910802B091AD
:107CC00009021097C9F0E8E0F1E09B01AD014E0F09
:107CD0005F1FF999FECF32BD21BD819180BDFA9A17
:107CE000F99A2F5F3F4FE417F50799F76A0F7B1F4B
:107CF00070930701609306018091C00085FFFCCF5F
:107D0000F092C6008091C00085FFFCCFB092C60003
:107D1000E1CE83E00E94C73CDDCE82E00E94C73CFA
:107D2000D9CE0E94763C809309020E94763C8093D3
:107D300008028091060190910701880F991F909386
:107D40000701809306010E94763C853409F4A6C0A1
:107D500080910C028E7F80930C020E94763C8032D0
:107D600009F0B8CE8091C00085FFFCCFF092C6002C
:107D7000609108027091090261157105B9F140E046
:107D800050E080910C02A82FA170B82FB27011C0E2
:107D9000BB2309F45CC0E0910601F0910701319624
:107DA000F0930701E09306014F5F5F4F46175707B7
:107DB000E8F4AA2369F3F999FECF209106013091E6
:107DC000070132BD21BDF89A90B58091C00085FFB2
:107DD000FCCF9093C6002F5F3F4F30930701209355
:107DE00006014F5F5F4F4617570718F38091C00099
:107DF00085FDE5CE8091C00085FFF8CFE0CE81E023
:107E00000E94C73C67CE0E94763C803209F08CCE3F
:107E10008091C00085FFFCCFF092C6008091C00029
:107E200085FFFCCFE092C6008091C00085FFFCCFAB
:107E3000D092C6008091C00085FFFCCFC092C600E2
:107E40008091C00085FFFCCFB092C60043CEE09188
:107E50000601F091070194918091C00085FFFCCF4D
:107E60009093C6009CCF80E10E94C73C33CE0E9415
:107E7000763C0E94763C182F0E94763C112309F430
:107E800083C0113009F484C08FE00E94C73C22CE29
:107E900080910C02816080930C02E5CE80910C02EF
:107EA000816080930C0259CF809107018823880F4D
:107EB000880B8A2180930B02809106019091070123
:107EC000880F991F90930701809306018091080203
:107ED00080FF09C080910802909109020196909359
:107EE000090280930802F894F999FECF1127E091D6
:107EF0000601F0910701C8E0D1E08091080290915D
:107F00000902103091F40091570001700130D9F34B
:107F100003E000935700E89500915700017001308D
:107F2000D9F301E100935700E89509901990009169
:107F3000570001700130D9F301E000935700E89534
:107F40001395103498F011270091570001700130FB
:107F5000D9F305E000935700E895009157000170B0
:107F60000130D9F301E100935700E895329602976A
:107F700009F0C7CF103011F00296E5CF112480919F
:107F8000C00085FFB9CEBCCE8EE10E94C73CA2CD19
:0E7F900085E90E94C73C9ECDF894FFCF80008B
:00000001FF
