:100000000C9461000C947E000C947E000C947E0095
:100010000C947E000C947E000C947E000C947E0068
:100020000C947E000C947E000C947E000C947E0058
:100030000C947E000C947E000C947E000C947E0048
:100040000C9449020C947E000C947E000C947E006B
:100050000C947E000C947E000C947E000C947E0028
:100060000C947E000C947E0000000000230026000B
:10007000290000000000240027002A0000000000E2
:10008000250028002B0004040404040404040202D4
:100090000202020203030303030301020408102007
:1000A0004080010204081020010204081020000012
:1000B0000008000201000003040700000000000027
:1000C000000011241FBECFEFD8E0DEBFCDBF11E08E
:1000D000A0E0B1E0E4E7F0E102C005900D92A635A2
:1000E000B107D9F721E0A6E5B1E001C01D92AD3717
:1000F000B207E1F70E9493020C9438080C940000B8
:10010000833081F028F4813099F08230A9F008958D
:100110008730A9F08830C9F08430B1F48091800034
:100120008F7D03C0809180008F7780938000089539
:1001300084B58F7784BD089584B58F7DFBCF809182
:10014000B0008F778093B00008958091B0008F7DCC
:10015000F9CF1F93CF93DF93282F30E0F901E255B9
:10016000FF4F8491F901E656FF4FD491F901EA5708
:10017000FF4FC491CC23A9F0162F81110E9480005B
:10018000EC2FF0E0EE0FFF1FE458FF4FA591B49164
:100190008FB7F894EC91111108C0D095DE23DC9351
:1001A0008FBFDF91CF911F910895DE2BF8CFCF93B2
:1001B000DF9390E0FC01E656FF4F24918A579F4F52
:1001C000FC0184918823D1F090E0880F991FFC01F5
:1001D000EE58FF4FA591B491FC01E458FF4FC59133
:1001E000D491623071F49FB7F8943C91822F80953E
:1001F00083238C93E8812E2B28839FBFDF91CF919F
:1002000008958FB7F894EC912E2B2C938FBFF6CFD7
:100210001F93CF93DF93182FEB0161E00E94D7006B
:10022000209739F460E0812FDF91CF911F910C94DA
:10023000A900CF3FD10511F461E0F5CFE12FF0E047
:10024000E255FF4FE491E33031F140F4E130B1F099
:10025000E230E1F0C038D1057CF7E4CFE73029F196
:10026000E83059F1E430B1F78091800080628093EA
:100270008000D0938B00C0938A0004C084B580684E
:1002800084BDC7BDDF91CF911F91089584B5806271
:1002900084BDC8BDF7CF80918000806880938000C6
:1002A000D0938900C0938800EDCF8091B000806822
:1002B0008093B000C093B300E5CF8091B00080621E
:1002C0008093B000C093B400DDCF8E5080648093E3
:1002D0007C0080917A00806480937A0080917A001B
:1002E00086FDFCCF809178009091790008958F5F12
:1002F00031F41092600160E083E00C94A9008093D7
:100300005A0181E08093600110925B012FB7F8944D
:100310008091790190917A01A0917B01B0917C014B
:100320002FBF80935C0190935D01A0935E01B09319
:100330005F01E1CFAF92BF92CF92DF92EF92FF9237
:100340000F931F93CF93DF936B017C01EA0120E0B1
:1003500030E0A9010E94970787FF4FC060E070E07E
:1003600080E09FEBA70196010E94CC050E94AF069A
:100370006D33710514F06CE370E09B0177FF02C0F0
:1003800030E020E0F90159018DE0A81AB108890197
:100390008CE0C82ED12CFE2E4F2FF7FD0AC0CF01C6
:1003A000B6010E940908DE01A80FB91F8C918111C6
:1003B00017C0F02E412F0D33110554F4C801B601BA
:1003C0000E940908DE01A80FB91F8C91811108C095
:1003D00031970F5F1F4FAE16BF06E9F6F22E432F7F
:1003E0008F2D942FDF91CF911F910F91FF90EF9060
:1003F000DF90CF90BF90AF90089560E070E080E014
:100400009FE3B0CFCF92DF92EF92FF926B017C011E
:1004100020E030E0A9010E94380687FD36C020E0C8
:1004200030E040E752E4C701B6010E949707181672
:1004300034F4C12CD12C80E7E82E82E4F82E20E0A1
:1004400030E040E752E4C701B6010E943D0620E0DB
:1004500030E04FE753E40E949C0720E030E040E0AA
:100460005FE30E94CC050E94AF066F3F710519F053
:1004700014F06FEF70E0CB0177FF02C090E080E0F6
:10048000FF90EF90DF90CF900895C12CD12C760192
:10049000D6CF1F920F920FB60F9211242F933F9336
:1004A0008F939F93AF93BF938091790190917A013D
:1004B000A0917B01B0917C013091780123E0230F62
:1004C0002D3758F50196A11DB11D20937801809319
:1004D000790190937A01A0937B01B0937C01809184
:1004E000740190917501A0917601B0917701019608
:1004F000A11DB11D8093740190937501A0937601A5
:10050000B0937701BF91AF919F918F913F912F91C0
:100510000F900FBE0F901F90189526E8230F02969C
:10052000A11DB11DD2CF789484B5826084BD84B5FD
:10053000816084BD85B5826085BD85B5816085BDDE
:1005400080916E00816080936E0010928100809196
:10055000810082608093810080918100816080931E
:100560008100809180008160809380008091B10043
:1005700084608093B1008091B00081608093B0006E
:1005800080917A00846080937A0080917A00826002
:1005900080937A0080917A00816080937A008091C4
:1005A0007A00806880937A001092C10062E084E053
:1005B0000E94D70061E083E00E94D70061E08AE0FA
:1005C0000E94D70061E08BE00E94D70060E083E0EA
:1005D0000E94A90081E28093800089E080938100DD
:1005E00083E88093B00081E08093B10010926901AC
:1005F00010926A0110926B0110926C0110926D01C1
:1006000010926E0110926F011092700110926101B0
:1006100010926201109263011092640110926501C0
:100620001092660110926701109268011092730196
:100630001092720190E080E00E9477018EE00E94AB
:100640006501EC018FE00E9465011C0180E10E94C0
:1006500065017C0126E030E0DE010E941D082FEFDD
:1006600033E040E050E00E947B052730310514F074
:1006700026E030E0C90137FF02C090E080E0209121
:100680007201309173012817390731F0909373018B
:10069000809372010E947701C0907201D090730123
:1006A000E2EBF0E08491EEE9F0E0C491EAE8F0E0FA
:1006B000D491DD2309F4F6C081110E948000ED2F52
:1006C000F0E0EE0FFF1FE859FF4FA591B4918C9118
:1006D000C82331E020E009F430E0832F922F2FB7B8
:1006E000F8944091790150917A0160917B01709169
:1006F0007C012FBF009156011091570120915801A4
:10070000309159014A015B01801A910AA20AB30A89
:10071000950184010F31110521053105D0F120919A
:100720000001309101012130310599F5009789F5DB
:10073000209171019924939429252093710121110D
:1007400020C000916D0110916E0120916F013091D8
:1007500070010093690110936A0120936B0130933B
:100760006C01009165011091660120916701309143
:10077000680100936101109362012093630130933B
:100780006401409356015093570160935801709350
:100790005901909301018093000181E10E9465015C
:1007A0003C0182E10E946501D82FC92F809171011F
:1007B000882309F47AC02FEF30E0D3010E941D088E
:1007C0002FEF33E040E050E00E947B0589012F3F8E
:1007D000310519F014F00FEF10E02FEF30E0AD2FDE
:1007E000BC2F0E941D082FEF33E040E050E00E9434
:1007F0007B05E9012F3F310519F014F0CFEFD0E070
:10080000B80117FF02C070E060E08AE00E940801B2
:10081000BE01D7FF02C070E060E08BE00E940801DB
:10082000809160018823A1F12FB7F894809179011C
:1008300090917A01A0917B01B0917C012FBF4091F2
:100840005C0150915D0160915E0170915F014C010E
:100850005D01841A950AA60AB70AB501A4014837B2
:10086000510561057105A0F080935C0190935D01D5
:10087000A0935E01B0935F0180915B01811127C15C
:1008800061E083E00E94A9009924939490925B0117
:1008900080E0A82E80E0B82EAB2809F4CFCE0E94CD
:1008A0000000CCCE90E080E01ACF3CE0A32EAC9CC0
:1008B0008001AD9C100D11240E5F1E4F28E130E029
:1008C000D7010E941D082FEF33E040E050E00E9466
:1008D0007B0549015A018CE0881A9108A108B108EA
:1008E000B301611494E0790614F06FEF73E077FFC1
:1008F00002C070E060E0072E000C880B990B0E948C
:10090000E70620E030E040E752E40E949C0720E048
:1009100030EC4FE754E40E943D06A8010E949A0182
:100920007C016D2F7C2F6115E4E07E0714F06FEFE2
:1009300073E077FF02C070E060E0072E000C880BC8
:10094000990B0E94E70620E030E040E752E40E9465
:100950009C0720E030EC4FE754E40E943D06A801DC
:100960000E949A01B701680D791D6D33710514F06D
:100970006CE370E0EC01C80DD91DCD33D10514F046
:10098000CCE3D0E077FF02C070E060E0072E000CFF
:10099000880B990B0E94E7064B015C0180926D0168
:1009A00090926E01A0926F01B0927001BE01D7FFCC
:1009B00002C070E060E0072E000C880B990B0E94CB
:1009C000E7066B017C01C0926501D0926601E0925E
:1009D0006701F09268014090690150906A0160904F
:1009E0006B0170906C01FAE02F16310414F1A30131
:1009F0009201C501B4010E94CB054B015C01B1011C
:100A000025E0759567952A95E1F76F5F7F4F072E73
:100A1000000C880B990B0E94E7069B01AC01C501F5
:100A2000B4010E943D06A30192010E94CC054B0136
:100A30005C018092690190926A01A0926B01B09270
:100A40006C01409061015090620160906301709070
:100A500064010AE02016310414F1A3019201C701D8
:100A6000B6010E94CB056B017C01B10195E0759543
:100A700067959A95E1F76F5F7F4F072E000C880B03
:100A8000990B0E94E7069B01AC01C701B6010E94C9
:100A90003D06A30192010E94CC056B017C01C0922E
:100AA0006101D0926201E0926301F0926401C5019C
:100AB000B4010E940202EC01C701B6010E940202C9
:100AC0008C01BE018AE00E940801B801A6CE60E058
:100AD00083E00E94A90010925B0180915A01882353
:100AE00019F0815080935A0180915A018111D0CE22
:100AF00010926001CDCE052E97FB1EF400940E944B
:100B0000920557FD07D00E949A0507FC03D04EF4CA
:100B10000C94920550954095309521953F4F4F4F3D
:100B20005F4F089590958095709561957F4F8F4F99
:100B30009F4F0895A1E21A2EAA1BBB1BFD010DC0F9
:100B4000AA1FBB1FEE1FFF1FA217B307E407F5077D
:100B500020F0A21BB30BE40BF50B661F771F881F59
:100B6000991F1A9469F760957095809590959B01EF
:100B7000AC01BD01CF010895A29FB001B39FC00198
:100B8000A39F700D811D1124911DB29F700D811DB9
:100B90001124911D08955058BB27AA270E94E305F0
:100BA0000C945D070E944F0738F00E94560720F012
:100BB00039F49F3F19F426F40C944C070EF4E09599
:100BC000E7FB0C944607E92F0E946E0758F3BA170B
:100BD000620773078407950720F079F4A6F50C9453
:100BE00090070EF4E0950B2EBA2FA02D0B01B90142
:100BF00090010C01CA01A0011124FF27591B99F093
:100C0000593F50F4503E68F11A16F040A22F232F9E
:100C1000342F4427585FF3CF469537952795A795EE
:100C2000F0405395C9F77EF41F16BA0B620B730B95
:100C3000840BBAF09150A1F0FF0FBB1F661F771F06
:100C4000881FC2F70EC0BA0F621F731F841F48F4BB
:100C5000879577956795B795F7959E3F08F0B0CF44
:100C60009395880F08F09927EE0F9795879508952B
:100C70000E94220708F481E008950E9451060C9416
:100C80005D070E94560758F00E944F0740F029F474
:100C90005F3F29F00C94460751110C9491070C9476
:100CA0004C070E946E0768F39923B1F3552391F323
:100CB000951B550BBB27AA2762177307840738F0CB
:100CC0009F5F5F4F220F331F441FAA1FA9F335D028
:100CD0000E2E3AF0E0E832D091505040E695001CDC
:100CE000CAF72BD0FE2F29D0660F771F881FBB1F96
:100CF000261737074807AB07B0E809F0BB0B802D74
:100D0000BF01FF2793585F4F3AF09E3F510578F09F
:100D10000C9446070C9491075F3FE4F3983ED4F39C
:100D2000869577956795B795F7959F5FC9F7880F73
:100D3000911D9695879597F90895E1E0660F771FC5
:100D4000881FBB1F621773078407BA0720F0621B56
:100D5000730B840BBA0BEE1F88F7E09508950E9481
:100D6000B6066894B1110C94910708950E94760715
:100D700088F09F5798F0B92F9927B751B0F0E1F05C
:100D8000660F771F881F991F1AF0BA95C9F714C00C
:100D9000B13091F00E949007B1E008950C94900753
:100DA000672F782F8827B85F39F0B93FCCF3869545
:100DB00077956795B395D9F73EF4909580957095A2
:100DC00061957F4F8F4F9F4F0895E89409C097FB1F
:100DD0003EF490958095709561957F4F8F4F9F4F12
:100DE0009923A9F0F92F96E9BB279395F695879556
:100DF00077956795B795F111F8CFFAF4BB0F11F419
:100E000060FF1BC06F5F7F4F8F4F9F4F16C08823BF
:100E100011F096E911C0772321F09EE8872F762FF5
:100E200005C0662371F096E8862F70E060E02AF036
:100E30009A95660F771F881FDAF7880F9695879522
:100E400097F90895990F0008550FAA0BE0E8FEEFF7
:100E500016161706E807F907C0F012161306E4077E
:100E6000F50798F0621B730B840B950B39F40A2677
:100E700061F0232B242B252B21F408950A2609F455
:100E8000A140A6958FEF811D811D089597F99F6759
:100E900080E870E060E008959FEF80EC0895002402
:100EA0000A941616170618060906089500240A94CF
:100EB00012161306140605060895092E0394000C55
:100EC00011F4882352F0BB0F40F4BF2B11F460FFE4
:100ED00004C06F5F7F4F8F4F9F4F089557FD90580D
:100EE000440F551F59F05F3F71F04795880F97FBEE
:100EF000991F61F09F3F79F08795089512161306A8
:100F00001406551FF2CF4695F1DF08C016161706D6
:100F10001806991FF1CF869571056105089408950B
:100F2000E894BB2766277727CB0197F908950E949D
:100F3000220708F48FEF08950E94AF070C945D0715
:100F40000E944F0738F00E94560720F0952311F0B9
:100F50000C9446070C944C0711240C9491070E94A2
:100F60006E0770F3959FC1F3950F50E0551F629F78
:100F7000F001729FBB27F00DB11D639FAA27F00DF2
:100F8000B11DAA1F649F6627B00DA11D661F829F19
:100F90002227B00DA11D621F739FB00DA11D621FFE
:100FA000839FA00D611D221F749F3327A00D611D1B
:100FB000231F849F600D211D822F762F6A2F1124FD
:100FC0009F5750409AF0F1F088234AF0EE0FFF1F30
:100FD000BB1F661F771F881F91505040A9F79E3F87
:100FE000510580F00C9446070C9491075F3FE4F3A1
:100FF000983ED4F3869577956795B795F795E795DD
:101000009F5FC1F7FE2B880F911D9695879597F9E5
:10101000089597FB072E16F4009407D077FD09D0AA
:101020000E94240807FC05D03EF4909581959F4FBF
:101030000895709561957F4F08950E94BC05B7FF94
:101040000895821B930B0895AA1BBB1B51E107C097
:10105000AA1FBB1FA617B70710F0A61BB70B881F48
:10106000991F5A95A9F780959095BC01CD010895D7
:04107000F894FFCF22
:101074000100010001000101000100010001010063
:101084000101000100010100010001000101000152
:101094000001010000010100010001000001000144
:1010A4000000010000010001000100000100010036
:1010B4000101000100010001010001010001000122
:0610C40000010100010023
:00000001FF
