:100000000C9461000C947E000C947E000C947E0095
:100010000C947E000C947E000C947E000C947E0068
:100020000C947E000C947E000C947E000C947E0058
:100030000C947E000C947E000C947E000C947E0048
:100040000C94A6010C947E000C947E000C947E000F
:100050000C947E000C947E000C947E000C947E0028
:100060000C947E000C947E00000000002400270009
:100070002A0000000000250028002B0000000000DE
:1000800023002600290004040404040404040202DA
:100090000202020203030303030301020408102007
:1000A0004080010204081020010204081020000012
:1000B0000008000201000003040700000000000027
:1000C000000011241FBECFEFD8E0DEBFCDBF11E08E
:1000D000A0E0B1E0E8E6FBE002C005900D92AA3096
:1000E000B107D9F721E0AAE0B1E001C01D92A33623
:1000F000B207E1F70E94F0010C94B2050C940000E5
:10010000833081F028F4813099F08230A9F008958D
:100110008730A9F08830C9F08430B1F48091800034
:100120008F7D03C0809180008F7780938000089539
:1001300084B58F7784BD089584B58F7DFBCF809182
:10014000B0008F778093B00008958091B0008F7DCC
:10015000F9CFCF93DF93282F30E0F901E255FF4F1D
:100160008491F901E656FF4FD491F901EA57FF4F08
:10017000C491CC23A1F081110E948000EC2FF0E00B
:10018000EE0FFF1FE458FF4FA591B491EC91ED23C2
:1001900081E090E009F480E0DF91CF91089580E064
:1001A00090E0FACF1F93CF93DF93282F30E0F9012F
:1001B000E255FF4F8491F901E656FF4FD491F901C2
:1001C000EA57FF4FC491CC23A9F0162F81110E944A
:1001D0008000EC2FF0E0EE0FFF1FEE58FF4FA591CF
:1001E000B4918FB7F894EC91111108C0D095DE232B
:1001F000DC938FBFDF91CF911F910895DE2BF8CF55
:10020000CF93DF9390E0FC01E656FF4F24918A578D
:100210009F4FFC0184918823C9F090E0880F991FBB
:10022000FC01E859FF4FA591B491FC01EE58FF4F36
:10023000C591D49161110DC09FB7F8948C91209510
:1002400082238C938881282328839FBFDF91CF91BD
:100250000895623051F49FB7F8943C91822F8095B5
:1002600083238C93E8812E2BEFCF8FB7F894EC91FA
:100270002E2B2C938FBFEACF8E50806480937C000E
:1002800080917A00806480937A0080917A0086FD64
:10029000FCCF809178009091790008953FB7F89451
:1002A00080915F0190916001A0916101B091620124
:1002B00026B5A89B05C02F3F19F00196A11DB11DC1
:1002C0003FBFBA2FA92F982F8827BC01CD01620FFD
:1002D000711D811D911D42E0660F771F881F991FB8
:1002E0004A95D1F708958F929F92AF92BF92CF9285
:1002F000DF92EF92FF926B017C010E944E014B0155
:100300005C01C114D104E104F104B9F00E944E0172
:10031000681979098A099B09683E7340810591052E
:1003200080F321E0C21AD108E108F10888EE880EB6
:1003300083E0981EA11CB11CE4CFFF90EF90DF90EA
:10034000CF90BF90AF909F908F9008951F920F9283
:100350000FB60F9211242F933F938F939F93AF93D8
:10036000BF9380915B0190915C01A0915D01B09180
:100370005E0130915A0123E0230F2D3758F5019685
:10038000A11DB11D20935A0180935B0190935C01E4
:10039000A0935D01B0935E0180915F019091600137
:1003A000A0916101B09162010196A11DB11D8093E0
:1003B0005F0190936001A0936101B0936201BF91CE
:1003C000AF919F918F913F912F910F900FBE0F9002
:1003D0001F90189526E8230F0296A11DB11DD2CFBC
:1003E000CF93DF93CDB7DEB728970FB6F894DEBF73
:1003F0000FBECDBF789484B5826084BD84B5816022
:1004000084BD85B5826085BD85B5816085BD8091DF
:100410006E00816080936E00109281008091810057
:10042000826080938100809181008160809381004F
:10043000809180008160809380008091B100846011
:100440008093B1008091B00081608093B000809172
:100450007A00846080937A0080917A008260809331
:100460007A0080917A00816080937A0080917A008E
:10047000806880937A001092C10060E081E10E9460
:10048000000160E082E10E94000160E08EE00E94D5
:10049000000160E08FE00E94000160E080E10E94C6
:1004A000000161E08AE00E94000161E08BE00E94AF
:1004B000000161E083E00E94000162E084E00E94AC
:1004C000000185E10E943C01BC01990F880B990B4A
:1004D000611571058105910511F00E94170560E015
:1004E00083E00E94D20044244A9443E0542E612CBD
:1004F000712C3AE0232E312C81E10E94A90021E0E9
:10050000892B09F420E0209359018FE00E943C01DF
:10051000883C9105A4F51092580110925701109251
:10052000560184E00E94A9007C01892B09F054C087
:10053000C0905701D09058012FE031E03A832983D1
:10054000EC14FD040CF044C00E94C804A301920105
:100550000E94200520910201309103016217730768
:1005600084F5E981FA81318220823FEFE31AF30AB0
:1005700049815A814E5F5F4F5A834983E1CF803969
:1005800021E0920754F484E090E090935801809326
:10059000570181E080935601C4CF883532E093073C
:1005A0001CF488E090E0F1CF803293401CF480E1AD
:1005B00090E0EBCFE0E2F0E0F0935801E0935701D8
:1005C000E8CF2BE030E0E981FA8131832083CDCF81
:1005D000109255011092540180915901882309F419
:1005E00048C180915301811144C18FB7F894C090E4
:1005F0005B01D0905C01E0905D01F0905E018FBFE7
:1006000080904F0190905001A0905101B090520104
:10061000C0924F01D0925001E0925101F0925201EC
:100620008EE00E943C01909305018093040120918B
:100630005601222341F02FEF33E0281B390B309372
:1006400005012093040182E10E943C0120910401F4
:1006500030910501820F931F811554E0950714F026
:100660008FEF93E097FF02C090E080E0909303014A
:100670008093020180E10E943C019E838D830E9451
:10068000C80469837A838B839C832EE531E0AD8136
:10069000BE810E949705A30192010E9420052D832F
:1006A0003E834F83588769817A818B819C8128EEB4
:1006B00033E040E050E00E9420052D813E814F81D3
:1006C0005885621773078407950764F48091590170
:1006D0008093530180E090E0892B09F40DCF0E94B4
:1006E000000007CF80E10E943C019E838D830E9421
:1006F000C80469837A838B839C838D819E819C014E
:10070000990F440B550B2453334041095109A4E17F
:10071000B0E00E943F052BEC30E040E050E00E944A
:1007200020052D833E834F83588769817A818B8191
:100730009C8124E630E040E050E00E9420052D81BD
:100740003E814F81588562177307840795070CF027
:1007500050C00E94C80427E030E040E050E00E9412
:1007600020056D5F7F4F8F4F9F4F7A8369830E9473
:10077000C804C818D908EA08FB0823E030E040E0C4
:1007800050E00E9420059B01AC012E5F3F4F4F4F70
:100790005F4FC701B6010E94520549015A01F12C71
:1007A000E12C49815A81E416F5061CF50E94C80423
:1007B000A30192010E9420052091020130910301C2
:1007C0001AE0621773070CF41BE061E0812F0E94AE
:1007D000D200C501B4010E94730160E0812F0E9424
:1007E000D200C501B4010E9473015FEFE51AF50A5A
:1007F000D8CF80915601882309F468C00E94C804AC
:100800008091540190915501FC01EE0FFF1FE15FB3
:10081000FE4F208131813093010120930001019628
:1008200060915701709158010E9483059093550182
:100830008093540161E0809100010E94D20061E048
:1008400083E00E94D2002FB7F89480915B019091D1
:100850005C01A0915D01B0915E012FBF80930B01FF
:1008600090930C01A0930D01B0930E0181E0809351
:100870000A0180910A01882309F428CF2FB7F89440
:1008800080915B0190915C01A0915D01B0915E014E
:100890002FBF40910B0150910C0160910D0170919F
:1008A0000E01841B950BA60BB70B4497A105B10550
:1008B00008F40CCF60E0809100010E94D20060E05B
:1008C00083E00E94D20010920A0100CF0E94C80467
:1008D000A30192010E9420052091020130910301A1
:1008E0008AE090E06217730714F48BE090E0909335
:1008F0000101809300019ECF8F929F92AF92BF9291
:10090000CF92DF92EF92FF92CF93DF93EC01688159
:1009100079818A819B81611571058105910521F499
:1009200064E279ED8BE597E02DE133EF41E050E0B3
:100930000E94200549015A019B01AC01A7EAB1E4DC
:100940000E943F056B017C01ACEEB4EFA501940160
:100950000E944D05C60ED71EE81EF91EF7FE06C002
:1009600081E0C81AD108E10880E8F80AC882D98273
:10097000EA82FB82C701B6019F77DF91CF91FF909A
:10098000EF90DF90CF90BF90AF909F908F900895A1
:100990008F929F92AF92BF92CF92DF92EF92FF928F
:1009A0006091060170910701809108019091090101
:1009B000611571058105910521F464E279ED8BE5FE
:1009C00097E02DE133EF41E050E00E94200549011E
:1009D0005A019B01AC01A7EAB1E40E943F056B01FB
:1009E0007C01ACEEB4EFA50194010E944D05C60E4A
:1009F000D71EE81EF91EF7FE06C081E0C81AD1080E
:100A0000E10880E8F80AC0920601D0920701E0925E
:100A10000801F0920901C701B6019F77FF90EF909E
:100A2000DF90CF90BF90AF909F908F90089560938C
:100A300006017093070180930801909309010895BE
:100A4000052E97FB1EF400940E94370557FD07D032
:100A50000E94520507FC03D04EF40C9437055095C4
:100A60004095309521953F4F4F4F5F4F089590959A
:100A70008095709561957F4F8F4F9F4F08950E948D
:100A80007405A59F900DB49F900DA49F800D911D9E
:100A900011240895B7FF0C943F050E943F05821B67
:100AA000930B0895A1E21A2EAA1BBB1BFD010DC0DA
:100AB000AA1FBB1FEE1FFF1FA217B307E407F5070E
:100AC00020F0A21BB30BE40BF50B661F771F881FEA
:100AD000991F1A9469F760957095809590959B0180
:100AE000AC01BD01CF010895A29FB001B39FC00129
:100AF000A39F700D811D1124911DB29F700D811D4A
:100B00001124911D089597FB072E16F4009407D029
:100B100077FD09D00E949E0507FC05D03EF4909514
:100B200081959F4F0895709561957F4F08950E941C
:100B30007405B7FF0895821B930B0895AA1BBB1B76
:100B400051E107C0AA1FBB1FA617B70710F0A61BCD
:100B5000B70B881F991F5A95A9F780959095BC01EE
:080B6000CD010895F894FFCFC8
:0A0B68000A00000200020100000074
:00000001FF
