:100000000C9461000C947E000C947E000C947E0095
:100010000C947E000C947E000C947E000C947E0068
:100020000C947E000C947E000C947E000C947E0058
:100030000C947E000C947E000C947E000C947E0048
:100040000C946E010C947E000C947E000C947E0047
:100050000C947E000C947E000C947E000C947E0028
:100060000C947E000C947E0000000000230026000B
:10007000290000000000240027002A0000000000E2
:10008000250028002B0004040404040404040202D4
:100090000202020203030303030301020408102007
:1000A0004080010204081020010204081020000012
:1000B0000008000201000003040700000000000027
:1000C000000011241FBECFEFD8E0DEBFCDBF11E08E
:1000D000A0E0B1E0EAE7FDE002C005900D92A0309B
:1000E000B107D9F727E0A0E0B1E001C01D92A4312B
:1000F000B207E1F70E94B8010C94BB060C94000013
:10010000833081F028F4813099F08230A9F008958D
:100110008730A9F08830C9F08430B1F48091800034
:100120008F7D03C0809180008F7780938000089539
:1001300084B58F7784BD089584B58F7DFBCF809182
:10014000B0008F778093B00008958091B0008F7DCC
:10015000F9CF1F93CF93DF93E1EBF0E09491EDE9BA
:10016000F0E0D491E9E8F0E0C491CC23B9F0182F85
:10017000992319F0892F0E948000EC2FF0E0EE0FF8
:10018000FF1FE458FF4FA591B4918FB7F894EC91FD
:10019000111108C0D095DE23DC938FBFDF91CF9182
:1001A0001F910895DE2BF8CFCF93DF9390E0FC01F1
:1001B000E656FF4F24918A579F4FFC018491882374
:1001C000D1F090E0880F991FFC01EE58FF4FA591E8
:1001D000B491FC01E458FF4FC591D491623071F4A1
:1001E0009FB7F8943C91822F809583238C93E8816C
:1001F0002E2B28839FBFDF91CF9108958FB7F8945E
:10020000EC912E2B2C938FBFF6CFCF93DF93EC0185
:1002100061E083E00E94D400209729F480E0DF9120
:10022000CF910C94A900CF3FD10511F481E0F7CF15
:10023000E1EBF0E0E491E33029F140F4E130B1F09A
:10024000E230D9F0C038D1058CF7E8CFE73021F1A2
:10025000E83051F1E430B1F7809180008062809302
:100260008000D0938B00C0938A0004C084B580685E
:1002700084BDC7BDDF91CF91089584B5806284BDF0
:10028000C8BDF8CF80918000806880938000D093B3
:100290008900C0938800EECF8091B0008068809381
:1002A000B000C093B300E6CF8091B000806280932D
:1002B000B000C093B400DECF8E50806480937C0089
:1002C00080917A00806480937A0080917A0086FD24
:1002D000FCCF809178009091790008951F920F9241
:1002E0000FB60F9211242F933F938F939F93AF9349
:1002F000BF938091100790911107A0911207B091C0
:10030000130730910F0723E0230F2D3758F501967F
:10031000A11DB11D20930F07809310079093110723
:10032000A0931207B093130780910B0790910C07CD
:10033000A0910D07B0910E070196A11DB11D8093EC
:100340000B0790930C07A0930D07B0930E07BF9176
:10035000AF919F918F913F912F910F900FBE0F9072
:100360001F90189526E8230F0296A11DB11DD2CF2C
:10037000789484B5826084BD84B5816084BD85B580
:10038000826085BD85B5816085BD80916E0081608C
:1003900080936E0010928100809181008260809332
:1003A0008100809181008160809381008091800034
:1003B0008160809380008091B10084608093B1005F
:1003C0008091B00081608093B00080917A00846059
:1003D00080937A0080917A00826080937A00809185
:1003E0007A00816080937A0080917A00806880939F
:1003F0007A001092C10062E084E00E94D40061E0C3
:1004000083E00E94D40061E08BE00E94D40083E886
:100410008093B00082E08093B1001092B3008824F2
:100420008A94E3E09E2EA12CB12C77247394E2EB06
:10043000F0E08491EEE9F0E0C491EAE8F0E0D491D4
:1004400010E000E0DD2399F081110E948000ED2F83
:10045000F0E0EE0FFF1FE859FF4FA591B4918C918A
:10046000C82391E080E009F490E0092F182F8FB79E
:10047000F894C0901007D0901107E0901207F09008
:1004800013078FBF80910A07811113C0809109075C
:1004900081110FC08EE00E945C0197FD03969C01C4
:1004A00035952795359527952093B300C9010E946E
:1004B000050180910A07882309F447C0C091070706
:1004C000D0910807C115F3E0DF070CF03EC0809122
:1004D000030790910407A0910507B0910607A701B3
:1004E0009601281B390B4A0B5B0BDA01C9010A97ED
:1004F000A105B10550F1C0920307D0920407E09224
:100500000507F09206078EE00E945C0197FD0396B6
:100510009C013595279535952795CC0FDD1FCD5F2F
:10052000DE4F288339832093B300C9010E9405015F
:10053000809107079091080701969093020180939C
:100540000101909308078093070780910A07882389
:1005500009F446C0809107079091080781159340E0
:1005600094F010920A0770920907109208071092EF
:10057000070770920001C0920307D0920407E0922F
:100580000507F0920607012B09F444C08091000191
:1005900081111092000180910A078823D9F11092ED
:1005A0000A077092090710920807109207072AC0DD
:1005B000C12CD12C7601BFC0C12CD12C7601ECC04E
:1005C000C12CD12C8FE7E82E83E4F82EE5C020E083
:1005D00030E040E05FE3C701B6010E944604E4C09A
:1005E000012BA1F680910001811114C070920A07BD
:1005F0001092090710920807109207071092020143
:1006000010920101C0920307D0920407E0920507FF
:10061000F092060780910907882309F4DFC08FE074
:100620000E945C01EC0181E10E945C018C019E0151
:10063000A1EFBFEF0E949806A50194010E94F60366
:1006400019012A0184E1280E311C411C511C2FE0A4
:1006500030E0D8010E94A006A50194010E94F60393
:10066000221A330A8091030790910407A09105078D
:10067000B0910607A7019601281B390B4A0B5B0BAB
:10068000DA01C901121413041CF022242394312C22
:10069000032C000C4408550882159305A405B505E4
:1006A00008F49CC0C0920307D0920407E0920507AB
:1006B000F092060780E10E945C018C0182E10E94B9
:1006C0005C01EC01B801110F880B990B0E946205C7
:1006D00020E030EC4FE754E40E94B8046B017C0149
:1006E000BE01DD0F880B990B0E94620520E030EC03
:1006F0004FE754E40E94B8049B01AC01C701B60166
:100700000E9447046B017C0120E030E0A9010E94B7
:10071000B30487FD4DCF20E030E040E85FE3C70140
:10072000B6010E941206181634F4C12CD12C20E810
:10073000E22E2FE3F22EE0910707F0910807EE0F6B
:10074000FF1FED5FFE4F60817181072E000C880B4B
:10075000990B0E946205A70196010E9417066B0182
:100760007C0120E030E0A9010E94B30487FD24CF82
:1007700020E030E04FE753E4C701B6010E941206C3
:1007800018160CF41DCF20E030E0A901C701B60116
:100790000E94120687FD1BCF20E030E040E05FE3BF
:1007A000C701B6010E9447040E942A056093B30066
:1007B000C701B6010E942A05CB010E940501809164
:1007C000070790910807019660910101709102015D
:1007D0000E948406909308078093070740E050E04A
:1007E000452B09F424CE0E94000021CE052E97FB54
:1007F0001EF400940E940D0457FD07D00E941504BA
:1008000007FC03D04EF40C940D04509540953095A0
:1008100021953F4F4F4F5F4F08959095809570956C
:1008200061957F4F8F4F9F4F0895A1E21A2EAA1B0B
:10083000BB1BFD010DC0AA1FBB1FEE1FFF1FA21790
:10084000B307E407F50720F0A21BB30BE40BF50B8D
:10085000661F771F881F991F1A9469F76095709516
:10086000809590959B01AC01BD01CF010895A29F99
:10087000B001B39FC001A39F700D811D1124911D74
:10088000B29F700D811D1124911D08955058BB27F2
:10089000AA270E945E040C94D8050E94CA0538F06D
:1008A0000E94D10520F039F49F3F19F426F40C94EE
:1008B000C7050EF4E095E7FB0C94C105E92F0E94F3
:1008C000E90558F3BA17620773078407950720F004
:1008D00079F4A6F50C940B060EF4E0950B2EBA2FC6
:1008E000A02D0B01B90190010C01CA01A001112436
:1008F000FF27591B99F0593F50F4503E68F11A16E2
:10090000F040A22F232F342F4427585FF3CF469572
:1009100037952795A795F0405395C9F77EF41F1694
:10092000BA0B620B730B840BBAF09150A1F0FF0F5E
:10093000BB1F661F771F881FC2F70EC0BA0F621F4A
:10094000731F841F48F4879577956795B795F7953A
:100950009E3F08F0B0CF9395880F08F09927EE0FCF
:100960009795879508950E949D0508F481E0089564
:100970000E94CC040C94D8050E94D10558F00E9426
:10098000CA0540F029F45F3F29F00C94C1055111CC
:100990000C940C060C94C7050E94E90568F3992392
:1009A000B1F3552391F3951B550BBB27AA2762176B
:1009B0007307840738F09F5F5F4F220F331F441F78
:1009C000AA1FA9F335D00E2E3AF0E0E832D09150AC
:1009D0005040E695001CCAF72BD0FE2F29D0660F99
:1009E000771F881FBB1F261737074807AB07B0E8DC
:1009F00009F0BB0B802DBF01FF2793585F4F3AF0E2
:100A00009E3F510578F00C94C1050C940C065F3F95
:100A1000E4F3983ED4F3869577956795B795F79567
:100A20009F5FC9F7880F911D9695879597F908954F
:100A3000E1E0660F771F881FBB1F621773078407EB
:100A4000BA0720F0621B730B840BBA0BEE1F88F7FA
:100A5000E09508950E9431056894B1110C940C063C
:100A600008950E94F10588F09F5798F0B92F9927B3
:100A7000B751B0F0E1F0660F771F881F991F1AF089
:100A8000BA95C9F714C0B13091F00E940B06B1E0DD
:100A900008950C940B06672F782F8827B85F39F0DC
:100AA000B93FCCF3869577956795B395D9F73EF422
:100AB00090958095709561957F4F8F4F9F4F0895CA
:100AC000E89409C097FB3EF49095809570956195E8
:100AD0007F4F8F4F9F4F9923A9F0F92F96E9BB279E
:100AE0009395F695879577956795B795F111F8CF1A
:100AF000FAF4BB0F11F460FF1BC06F5F7F4F8F4F85
:100B00009F4F16C0882311F096E911C0772321F07A
:100B10009EE8872F762F05C0662371F096E8862F12
:100B200070E060E02AF09A95660F771F881FDAF769
:100B3000880F9695879597F90895990F0008550F96
:100B4000AA0BE0E8FEEF16161706E807F907C0F053
:100B500012161306E407F50798F0621B730B840B5B
:100B6000950B39F40A2661F0232B242B252B21F435
:100B700008950A2609F4A140A6958FEF811D811DD5
:100B8000089597F99F6780E870E060E008959FEF0F
:100B900080EC089500240A94161617061806090614
:100BA000089500240A9412161306140605060895E3
:100BB000092E0394000C11F4882352F0BB0F40F46B
:100BC000BF2B11F460FF04C06F5F7F4F8F4F9F4FAB
:100BD000089557FD9058440F551F59F05F3F71F02D
:100BE0004795880F97FB991F61F09F3F79F0879594
:100BF0000895121613061406551FF2CF4695F1DF1D
:100C000008C0161617061806991FF1CF86957105AC
:100C1000610508940895E894BB2766277727CB01E0
:100C200097F908950E949D0508F48FEF08950E949A
:100C30002A060C94D8050E94CA0538F00E94D105F6
:100C400020F0952311F00C94C1050C94C7051124D4
:100C50000C940C060E94E90570F3959FC1F3950F63
:100C600050E0551F629FF001729FBB27F00DB11D30
:100C7000639FAA27F00DB11DAA1F649F6627B00DC0
:100C8000A11D661F829F2227B00DA11D621F739FA9
:100C9000B00DA11D621F839FA00D611D221F749FB7
:100CA0003327A00D611D231F849F600D211D822FFE
:100CB000762F6A2F11249F5750409AF0F1F0882325
:100CC0004AF0EE0FFF1FBB1F661F771F881F915052
:100CD0005040A9F79E3F510580F00C94C1050C943B
:100CE0000C065F3FE4F3983ED4F3869577956795BD
:100CF000B795F795E7959F5FC1F7FE2B880F911D7C
:100D00009695879597F9089597FB072E16F400940A
:100D100007D077FD09D00E94A70607FC05D03EF456
:100D2000909581959F4F0895709561957F4F089597
:100D30000E943704332312F48A1B9B0B0C94A206E7
:100D40000E943704B7FF0895821B930B0895AA1BD6
:100D5000BB1B51E107C0AA1FBB1FA617B70710F0A6
:100D6000A61BB70B881F991F5A95A9F780959095D8
:0A0D7000BC01CD010895F894FFCFF7
:00000001FF
