:100000000C94A2000C94BF000C94BF000C94BF0091
:100010000C94BF000C94BF000C94BF000C94BF0064
:100020000C94BF000C94BF000C94BF000C94BF0054
:100030000C94BF000C94BF000C94BF000C94BF0044
:100040000C940A060C94BF000C94BF000C94BF00E3
:100050000C94BF000C94BF000C94BF000C94BF0024
:100060000C94BF000C94BF0007634236B79BD8A71F
:100070001A39685618AEBAAB558C1D3CB7CC5763CD
:10008000BD6DEDFD753EF6177231BF000000803F7B
:1000900008000000BE922449123EABAAAA2ABECD97
:1000A000CCCC4C3E00000080BEABAAAAAA3E000009
:1000B0000000BF000000803F000000000008417801
:1000C000D3BB4387D1133D190E3CC3BD4282AD2B38
:1000D0003E68EC8276BED98FE1A93E4C80EFFFBE30
:1000E00001C4FF7F3F00000000000000000023006B
:1000F0002600290000000000240027002A0000003C
:100100000000250028002B00040404040404040457
:1001100002020202020203030303030301020408B2
:100120001020408001020408102001020408102061
:1001300000000008000201000003040700000000A6
:100140000000000011241FBECFEFD8E0DEBFCDBFFE
:1001500011E0A0E0B1E0ECEAFDE102C005900D92F3
:10016000A431B107D9F727E0A4E1B1E001C01D92A5
:10017000AD35B207E1F70E9454060C94D40E0C94EE
:100180000000833081F028F4813099F08230A9F0AA
:1001900008958730A9F08830C9F08430B1F4809197
:1001A00080008F7D03C0809180008F7780938000D6
:1001B000089584B58F7784BD089584B58F7DFBCF76
:1001C0008091B0008F778093B00008958091B00047
:1001D0008F7DF9CF1F93CF93DF93E3E3F1E0949109
:1001E000EFE1F1E0D491EBE0F1E0C491CC23B9F080
:1001F000182F992319F0892F0E94C100EC2FF0E0ED
:10020000EE0FFF1FE250FF4FA591B4918FB7F89406
:10021000EC91111108C0D095DE23DC938FBFDF91E4
:10022000CF911F910895DE2BF8CFCF93DF9390E00D
:10023000FC01E45EFE4F2491885F9E4FFC01849197
:100240008823C9F090E0880F991FFC01EC50FF4F04
:10025000A591B491FC01E250FF4FC591D491611179
:100260000DC09FB7F8948C91209582238C93888140
:10027000282328839FBFDF91CF910895623051F4E6
:100280009FB7F8943C91822F809583238C93E881CB
:100290002E2BEFCF8FB7F894EC912E2B2C938FBF92
:1002A000EACF8E50806480937C0080917A008064D5
:1002B00080937A0080917A0086FDFCCF809178004F
:1002C0009091790008953FB7F894809159079091E3
:1002D0005A07A0915B07B0915C0726B5A89B05C0A3
:1002E0002F3F19F00196A11DB11D3FBFBA2FA92FB5
:1002F000982F8827BC01CD01620F711D811D911DB2
:1003000042E0660F771F881F991F4A95D1F708951D
:100310002FB7F89460915507709156078091570751
:10032000909158072FBF08952F923F924F925F925E
:100330006F927F928F929F92AF92BF92CF92DF92F5
:10034000EF92FF92CF93DF9300D000D0CDB7DEB70E
:100350003C014A015B01CB01BA010E94F50B6B0124
:100360009B012F5F3F4F2F3F310519F014F030E014
:1003700020E0F601EE0FFF1FE60DF71D2080318013
:10038000512C412C220F331F260D371DF90160819E
:10039000718190E080E062197309840995090E94D7
:1003A0002D0C69837A838B839C83B601DD0C880BCB
:1003B000990B0E942D0C9B01AC01C501B4010E9458
:1003C000110B9B01AC0169817A818B819C810E9418
:1003D000E20C0E94F50BDC01CB01820D931DA41DE4
:1003E000B51D0097F1E0AF07B10524F08FEF9FEF47
:1003F000A0E0B0E0B7FF03C080E090E0DC010F9028
:100400000F900F900F90DF91CF91FF90EF90DF90C2
:10041000CF90BF90AF909F908F907F906F905F90A4
:100420004F903F902F9008952F923F924F925F925E
:100430006F927F928F929F92AF92BF92CF92DF92F4
:10044000EF92FF920F931F93CF93DF93CDB7DEB759
:10045000C25DD1090FB6F894DEBF0FBECDBFCD533C
:10046000DF4F8883C35CD040C953DF4F9883C75C9C
:10047000D0408B015E0121E6A20EB11CD12CC12C13
:100480007501F8EE4F2EF3E05F2E612C712CC01633
:10049000D106C4F40E94560AA30192010E94AE0A3A
:1004A0000E942D0C20E030E04AE754E40E94830BC8
:1004B000D5016D937D938D939D935D01BFEFCB1A15
:1004C000DB0AE5CF4801012E000CAA08BB0860E05A
:1004D00070E0CB011016110634F40E94560AA501F3
:1004E00094010E94AE0A660F771F660F771F6E0D8C
:1004F0007F1DFB01108211821282138260E070E086
:10050000CB011016110634F40E94560AA50194017D
:100510000E94AE0A660F771F660F771F6E0D7F1D54
:1005200080E090E0A0E8BFE3FB0180839183A28399
:10053000B3839E012F5F3F4F6901CF53DF4F398354
:100540002883C15CD040312C212C412C512C32010C
:1005500056E9852E912CA12CB12C2016310674F56C
:100560000E94560AA50194010E94AE0A6E5C7F4F5C
:100570008F4F9F4F0E942D0C20E030E04AE754E45B
:100580000E94830B9B01AC01C301B2010E94120BBC
:100590002B013C01CF53DF4FA881B981C15CD04012
:1005A0004D925D926D927D92CF53DF4FB983A883B8
:1005B000C15CD040BFEF2B1A3B0ACFCFB12CA12C8E
:1005C000A016B106C4F4F6016191719181919191E7
:1005D0006F014F01F4E08F1A9108A30192010E946C
:1005E000830BD4016D937D938D939C931397BFEFF1
:1005F000AB1ABB0AE5CF01501109F70140815181C7
:1006000062817381C801880F991F880F991FE80FB5
:10061000F91F4083518362837383E1E0F0E0EC0FC4
:10062000FD1FE80FF91F80E090E0A0E8BFE38083A2
:100630009183A283B38360E070E0CB0110161106B2
:100640004CF40E94560A9801012E000C440B550BE5
:100650000E94AE0AC353DF4F79836883CD5CD040DC
:100660000E94560A20EA30E040E050E00E94AE0AC4
:1006700060557109810991090E942D0C20E030E03C
:1006800048EC52E40E94830BC153DF4F68837983A7
:100690008A839B83CF5CD040CD53DF4FF881C35C0E
:1006A000D040C553DF4FF883CB5CD040C953DF4FF8
:1006B0002881C75CD040C453DF4F2883CC5CD04036
:1006C000CF53DF4F19821882C15CD040CF53DF4F28
:1006D000A881B981C15CD040BD01BB0F880B990BCB
:1006E0000E942D0C20E030E04FE753E40E94830B82
:1006F0002B013C016E01B5E0CB0ED11C312C212C1D
:100700007101EFEFEE1AFE0A201631066CF4D601E5
:100710002D913D914D915D916D01C301B2010E94FA
:10072000DD0C18160CF43DC16801E016F1060CF45E
:1007300067017101EE0CFF1CEE0CFF1CE1E0F0E024
:10074000EC0FFD1FEE0DFF1D80809180A280B38015
:10075000A5019401C301B2010E94110B2B013C01C0
:10076000CC0CDD1CCC0CDD1CE1E0F0E0EC0FFD1F3F
:10077000EC0DFD1DA5019401608171818281938141
:100780000E94110B9B01AC01C301B2010E94830BBB
:100790004B015C01E1E6F0E0EC0FFD1FEE0DFF1DEB
:1007A00080819181A281B381CD53DF4F888399836A
:1007B000AA83BB83C35CD040A501940160E070E0D4
:1007C00080E89FE30E94110B2B013C01A1E6B0E001
:1007D000AC0FBD1FCA0EDB1ED6018D919D910D90F1
:1007E000BC91A02DC953DF4F88839983AA83BB8313
:1007F000C75CD040C353DF4FE881F981CD5CD04066
:10080000E215F30509F0D3C09C01AD01CD53DF4FD4
:10081000688179818A819B81C35CD0400E94120BE0
:1008200020E030E040E05FE30E94E20CC153DF4F84
:10083000288139814A815B81CF5CD0400E94120BB4
:100840006B017C0120E030E0A9010E947E0B87FD56
:10085000AAC020E030E040E85FE3C701B6010E9493
:10086000DD0C181634F4C12CD12C80E8E82E8FE36F
:10087000F82EA3019201C301B2010E94120BA5013F
:1008800094010E94E20CA70196010E94E20C6B0108
:100890007C01A3019201C301B2010E94E20CCD537D
:1008A000DF4F288139814A815B81C35CD0400E943F
:1008B000E20C9B01AC01C701B6010E94120B6B0157
:1008C0007C01A5019401C501B4010E94E20CC95349
:1008D000DF4F288139814A815B81C75CD0400E940B
:1008E000E20C9B01AC01C701B6010E94120B6B0127
:1008F0007C0120E030E0A9010E947E0B70E060E006
:1009000087FD16C020E030E040E85FE3C701B60194
:100910000E94DD0C6FEF7FEF181654F020E03FEFE0
:100920004FE757E4C701B6010E94E20C0E94FC0B9E
:10093000C553DF4FA881B981CB5CD0406D937D93C7
:10094000C553DF4FB983A883CB5CD040CF53DF4F73
:10095000E881F981C15CD0403196CF53DF4FF983F4
:10096000E883C15CD040E115F14009F0AFCECE5232
:10097000DF4F0FB6F894DEBF0FBECDBFDF91CF9132
:100980001F910F91FF90EF90DF90CF90BF90AF90AD
:100990009F908F907F906F905F904F903F902F909F
:1009A00008951701ADCEC12CD12C760162CFCD5365
:1009B000DF4F288139814A815B81C35CD040C3010C
:1009C000B2010E94E20C6B017C01C953DF4F288108
:1009D00039814A815B81C75CD040C501B4017FCFBA
:1009E000CF92DF92EF92FF920F931F93CF93DF93FB
:1009F0008C01EB01888181116CC00E94560A20E1B4
:100A000037E240E050E00E94AE0A0E942D0C6B01DC
:100A10007C01D801ED91FC9120E030E040EA50E407
:100A200060817181828193810E94E20C9B01AC0103
:100A3000C701B6010E947E0B87FF48C081E0888312
:100A40000E94560A28E230E040E050E00E94AE0AE0
:100A5000665F7F4F8F4F9F4F0E942D0C20E030E04C
:100A600048EC52E40E94830B69837A838B839C83D6
:100A70000E94560A20EF3AE040E050E00E94AE0AA1
:100A800068517C4F8F4F9F4F0E942D0C6B017C0152
:100A9000D8011296ED91FC912DEC3CEC4CEC5DE311
:100AA00060817181828193810E94120B9B01AC0154
:100AB000C701B6010E94830B6D837E838F83988765
:100AC0000E94880169877A878B879C878881882321
:100AD000A9F00E94880109851A852B853C85601B39
:100AE000710B820B930B0E942B0C2D813E814F8149
:100AF00058850E94DD0C18160CF41882DF91CF91F6
:100B00001F910F91FF90EF90DF90CF900895CF92BB
:100B1000DF92EF92FF9281E00E94EA0081E08093F1
:100B20004F070E94880160934B0770934C07809396
:100B30004D0790934E0780E10E945101BC01990F2F
:100B4000880B990B0E942D0C20E030E040E151E42D
:100B50000E94E20C20E030EC4FE754E40E94830B4B
:100B600020E030E040E450E40E94120B0E94F50BBC
:100B70006B0185E10E945101BC01990F880B990B13
:100B8000611571058105910511F00E94A50AB60154
:100B900084E195E00E94140284E10E945101BC01AD
:100BA000990F880B990B611571058105910511F05D
:100BB0000E94A50AB60184E193E00E9414020E94FB
:100BC0006301611571058105910511F00E94A50A67
:100BD000B60184E191E00E94140210921407109271
:100BE0001507109216071092170710921807109207
:100BF000190710921A0710921B0710921C071092E7
:100C00001D0710921E0710921F07FF90EF90DF90B4
:100C1000CF9008951F920F920FB60F9211242F9329
:100C20003F938F939F93AF93BF938091550790917C
:100C30005607A0915707B09158073091540723E009
:100C4000230F2D3758F50196A11DB11D2093540790
:100C50008093550790935607A0935707B093580772
:100C60008091590790915A07A0915B07B0915C075A
:100C70000196A11DB11D8093590790935A07A09327
:100C80005B07B0935C07BF91AF919F918F913F91AC
:100C90002F910F900FBE0F901F90189526E8230FED
:100CA0000296A11DB11DD2CFCF93DF93CDB7DEB792
:100CB00060970FB6F894DEBF0FBECDBF789484B5B1
:100CC000826084BD84B5816084BD85B5826085BD48
:100CD00085B5816085BD80916E00816080936E00D6
:100CE00010928100809181008260809381008091C8
:100CF000810081608093810000E810E08091800095
:100D00008160809380008091B10084608093B10005
:100D10008091B00081608093B00080917A008460FF
:100D200080937A0080917A00826080937A0080912B
:100D30007A00816080937A0080917A008068809345
:100D40007A001092C10060E08EE00E94150160E020
:100D50008FE00E94150160E080E10E94150160E0D3
:100D600081E10E94150162E084E00E94150161E0CA
:100D700083E00E94150161E089E00E94150161E0B5
:100D80008AE00E94150161E08BE00E94150181EA72
:100D90008093800089E08093810083E88093B00095
:100DA00082E08093B1001093890000938800109333
:100DB0008B0000938A0080E88093B30085E10E9455
:100DC0005101BC01990F880B990B611571058105C3
:100DD000910511F00E94A50A0E9487051E0129E0D5
:100DE000220E311C00E010E0E4E3F1E08491E0E247
:100DF000F1E0F490ECE0F1E0E490EE2009F402C3BD
:100E000081110E94C100EE2DF0E0EE0FFF1FE651B0
:100E1000FF4FA591B4918C91F82291E080E009F404
:100E200090E0E92EF82E80910E018E151F0451F0EE
:100E30000E94880160935007709351078093520776
:100E4000909353070E94880180905007909051071B
:100E5000A0905207B0905307681979098A099B0935
:100E6000633371058105910580F080910C019091AB
:100E70000D018E159F0549F0F0920D01E0920C01D5
:100E8000E114F10411F40E9487058E2D8170809386
:100E90000E0180914F078823C1F00E948801C09005
:100EA0004B07D0904C07E0904D07F0904E076C191F
:100EB0007D098E099F09693C71058105910528F01E
:100EC00080E00E94EA0010924F078EE00E945101DC
:100ED000BC01990F880B990B0E942D0C20E030EC7F
:100EE0004FE754E40E94830B9B01AC0160E070E08B
:100EF00086E993E40E944F0D4B015C0181E10E9461
:100F00005101BC01990F880B990B0E942D0C20E018
:100F100030EC4FE754E40E94830B20E030E0A9015D
:100F20000E94120B6B017C012AE037ED43E25CE387
:100F3000C501B4010E94E20C9B01AC01C701B601DE
:100F40000E94120B6B017C0120E030E0A9010E949D
:100F50007E0B87FD5AC2C986DA86EB86FC8620E0C6
:100F600030E040E251E469857A858B859C850E945A
:100F7000DD0C181644F480E090E0A0E2B1E489872B
:100F80009A87AB87BC870E9463016B017C018091CB
:100F9000470790914807A0914907B0914A07A701D8
:100FA0009601281B390B4A0B5B0BCA01B9010E9441
:100FB0002B0C20E034E244E759E40E94830B2B0120
:100FC0003C0120E030E0A9010E947E0B181644F09D
:100FD0003FE6432E32E1532E33E8632E3AE3732E7D
:100FE000C0924707D0924807E0924907F0924A071B
:100FF0008FE00E945101BC01990F880B990B0E9450
:101000002D0C20E030EC4FE754E40E94830B6D83FD
:101010007E838F839887C984DA84EB84FC8426E6F8
:1010200036E646E65FE3C701B6010E94E20C4B01DB
:101030005C012DEC3CEC4CE85FE3C701B6010E947B
:10104000E20C6D877E878F87988B45E050E04C0FD0
:101050005D1F5A8349833C822B826AE377E0CE018D
:1010600001960E94F0046DE277E0CE0101960E94A5
:10107000F00460E277E0CE0101960E94F0048091D6
:101080003A07882371F020913B0730913C0740914B
:101090003D0750913E07C501B4010E94E20C4B018F
:1010A0005C0180912D07882371F020912E073091EB
:1010B0002F074091300750913107C701B6010E94B8
:1010C000E20C6B017C0180912007882391F0209134
:1010D00021073091220740912307509124076D8505
:1010E0007E858F8598890E94E20C6D877E878F8729
:1010F000988B20E030E040E853E4C501B4010E9441
:10110000E20CA30192010E94E20C20911C07309195
:101110001D0740911E0750911F070E94120B4B01A3
:101120005C0180921C0790921D07A0921E07B0924E
:101130001F0720E030E040E853E4C701B6010E94F9
:10114000E20CA30192010E94E20C20911807309159
:10115000190740911A0750911B070E94120B6B014F
:101160007C01C0921807D0921907E0921A07F092FA
:101170001B0720E030E040E853E46D857E858F85D5
:1011800098890E94E20CA30192010E94E20C209136
:1011900014073091150740911607509117070E94C8
:1011A000120B2B013C0140921407509215076092DC
:1011B00016077092170720E030E040E853E4C501BD
:1011C000B4010E94DD0C87FD10C020E030E040E853
:1011D00053E4C501B4010E94110B60931C07709386
:1011E0001D0780931E0790931F0720E030E040E822
:1011F00053E4C701B6010E94DD0C87FD10C020E05A
:1012000030E040E853E4C701B6010E94110B60933F
:1012100018077093190780931A0790931B0720E013
:1012200030E040E853E4C301B2010E94DD0C87FDC9
:1012300010C020E030E040E853E4C301B2010E9456
:10124000110B609314077093150780931607909302
:10125000170740911C0750911D0760911E07709160
:101260001F0784E195E00E9494015C0140911807FA
:101270005091190760911A0770911B0784E193E060
:101280000E9494016C0140911407509115076091E0
:1012900016077091170784E191E00E9494017C0188
:1012A000B50160587F4F672F7727072E000C880BFA
:1012B000990B0E942D0C2DEC3CEC4CEC5DE30E9454
:1012C000E20C4B015C0126E636E646E65FE3609100
:1012D00008017091090180910A0190910B010E940F
:1012E000E20C9B01AC01C501B4010E94120B2B0161
:1012F0003C01409208015092090160920A017092EB
:101300000B01B60160587F4F672F7727072E000C1F
:10131000880B990B0E942D0C2DEC3CEC4CEC5DE302
:101320000E94E20C4B015C0126E636E646E65FE3EE
:10133000609104017091050180910601909107016F
:101340000E94E20C9B01AC01C501B4010E94120B8A
:101350004B015C018092040190920501A09206016C
:10136000B0920701B70160587F4F672F7727072E8C
:10137000000C880B990B0E942D0C2DEC3CEC4CECD6
:101380005DE30E94E20C6B017C0126E636E646E650
:101390005FE36091000170910101809102019091E1
:1013A00003010E94E20C9B01AC01C701B6010E943F
:1013B000120B6B017C01C0920001D0920101E092FE
:1013C0000201F0920301C301B2010E94FC0B70E024
:1013D0007093890060938800C501B4010E94FC0BE2
:1013E00070E070938B0060938A00C701B6010E9481
:1013F000FC0B6093B3000115110509F4F5CC0E94B4
:101400000000F2CCF12CE12C0ECD19861A861B8639
:101410001C86A5CD8F929F92AF92BF92CF92DF9202
:10142000EF92FF92CF93DF93EC01688179818A81FB
:101430009B81611571058105910521F464E279EDC7
:101440008BE597E02DE133EF41E050E00E94AE0ADA
:1014500049015A019B01AC01A7EAB1E40E94CD0AFF
:101460006B017C01ACEEB4EFA50194010E94DB0A94
:10147000C60ED71EE81EF91EF7FE06C081E0C81A88
:10148000D108E10880E8F80AC882D982EA82FB82A2
:10149000C701B6019F77DF91CF91FF90EF90DF906A
:1014A000CF90BF90AF909F908F9008958F929F9212
:1014B000AF92BF92CF92DF92EF92FF9260910F01B5
:1014C00070911001809111019091120161157105C7
:1014D0008105910521F464E279ED8BE597E02DE13A
:1014E00033EF41E050E00E94AE0A49015A019B01EE
:1014F000AC01A7EAB1E40E94CD0A6B017C01ACEE1D
:10150000B4EFA50194010E94DB0AC60ED71EE81EA7
:10151000F91EF7FE06C081E0C81AD108E10880E88C
:10152000F80AC0920F01D0921001E0921101F092DE
:101530001201C701B6019F77FF90EF90DF90CF9027
:10154000BF90AF909F908F90089560930F0170931C
:10155000100180931101909312010895052E97FBBD
:101560001EF400940E94C50A57FD07D00E94E00AAD
:1015700007FC03D04EF40C94C50A50954095309565
:1015800021953F4F4F4F5F4F0895909580957095EF
:1015900061957F4F8F4F9F4F08950E94020BA59F2B
:1015A000900DB49F900DA49F800D911D112408955E
:1015B000B7FF0C94CD0A0E94CD0A821B930B0895AD
:1015C000A1E21A2EAA1BBB1BFD010DC0AA1FBB1F47
:1015D000EE1FFF1FA217B307E407F50720F0A21BB9
:1015E000B30BE40BF50B661F771F881F991F1A9426
:1015F00069F760957095809590959B01AC01BD0150
:10160000CF010895A29FB001B39FC001A39F700DA9
:10161000811D1124911DB29F700D811D1124911DFA
:1016200008955058BB27AA270E94290B0C94A30C9D
:101630000E94950C38F00E949C0C20F039F49F3FDA
:1016400019F426F40C94920C0EF4E095E7FB0C943C
:101650008C0CE92F0E94B40C58F3BA176207730779
:101660008407950720F079F4A6F50C94D60C0EF4B7
:10167000E0950B2EBA2FA02D0B01B90190010C01A2
:10168000CA01A0011124FF27591B99F0593F50F4BA
:10169000503E68F11A16F040A22F232F342F442712
:1016A000585FF3CF469537952795A795F04053950A
:1016B000C9F77EF41F16BA0B620B730B840BBAF0DA
:1016C0009150A1F0FF0FBB1F661F771F881FC2F745
:1016D0000EC0BA0F621F731F841F48F48795779559
:1016E0006795B795F7959E3F08F0B0CF9395880F13
:1016F00008F09927EE0F9795879508950E94680C3A
:1017000008F481E008950E94970B0C94A30C0E94AA
:101710009C0C58F00E94950C40F029F45F3F29F092
:101720000C948C0C51110C94D70C0C94920C0E94BC
:10173000B40C68F39923B1F3552391F3951B550B22
:10174000BB27AA2762177307840738F09F5F5F4F94
:10175000220F331F441FAA1FA9F335D00E2E3AF0D3
:10176000E0E832D091505040E695001CCAF72BD0EB
:10177000FE2F29D0660F771F881FBB1F261737073C
:101780004807AB07B0E809F0BB0B802DBF01FF276E
:1017900093585F4F3AF09E3F510578F00C948C0CB3
:1017A0000C94D70C5F3FE4F3983ED4F3869577957D
:1017B0006795B795F7959F5FC9F7880F911D969527
:1017C000879597F90895E1E0660F771F881FBB1F83
:1017D000621773078407BA0720F0621B730B840B30
:1017E000BA0BEE1F88F7E09508950E94FC0B6894F1
:1017F000B1110C94D70C08950E94BC0C88F09F572F
:1018000098F0B92F9927B751B0F0E1F0660F771F24
:10181000881F991F1AF0BA95C9F714C0B13091F01A
:101820000E94D60CB1E008950C94D60C672F782F47
:101830008827B85F39F0B93FCCF3869577956795DF
:10184000B395D9F73EF490958095709561957F4F4B
:101850008F4F9F4F0895E89409C097FB3EF49095F1
:101860008095709561957F4F8F4F9F4F9923A9F079
:10187000F92F96E9BB279395F69587957795679508
:10188000B795F111F8CFFAF4BB0F11F460FF1BC04C
:101890006F5F7F4F8F4F9F4F16C0882311F096E9DF
:1018A00011C0772321F09EE8872F762F05C066238D
:1018B00071F096E8862F70E060E02AF09A95660F46
:1018C000771F881FDAF7880F9695879597F90895FF
:1018D000990F0008550FAA0BE0E8FEEF1616170641
:1018E000E807F907C0F012161306E407F50798F0A9
:1018F000621B730B840B950B39F40A2661F0232BC2
:10190000242B252B21F408950A2609F4A140A6953D
:101910008FEF811D811D089597F99F6780E870E022
:1019200060E008959FEF80EC089500240A94161655
:10193000170618060906089500240A9412161306BD
:10194000140605060895092E0394000C11F488234B
:1019500052F0BB0F40F4BF2B11F460FF04C06F5F67
:101960007F4F8F4F9F4F089557FD9058440F551F3D
:1019700059F05F3F71F04795880F97FB991F61F011
:101980009F3F79F087950895121613061406551F88
:10199000F2CF4695F1DF08C0161617061806991FF4
:1019A000F1CF86957105610508940895E894BB27E9
:1019B00066277727CB0197F908950E94680C08F4F1
:1019C0008FEF08950E94F50C0C94A30C0E94950CC7
:1019D00038F00E949C0C20F0952311F00C948C0C94
:1019E0000C94920C11240C94D70C0E94B40C70F33C
:1019F000959FC1F3950F50E0551F629FF001729FB4
:101A0000BB27F00DB11D639FAA27F00DB11DAA1FC2
:101A1000649F6627B00DA11D661F829F2227B00D0F
:101A2000A11D621F739FB00DA11D621F839FA00D9A
:101A3000611D221F749F3327A00D611D231F849FEA
:101A4000600D211D822F762F6A2F11249F57504041
:101A50009AF0F1F088234AF0EE0FFF1FBB1F661FBC
:101A6000771F881F91505040A9F79E3F510580F085
:101A70000C948C0C0C94D70C5F3FE4F3983ED4F399
:101A8000869577956795B795F795E7959F5FC1F729
:101A9000FE2B880F911D9695879597F90895FA0169
:101AA000EE0FFF1F309621053105A1F1611571057B
:101AB00061F48038BFE39B0749F168949038810551
:101AC00061F08038BFEF9B0741F099234AF5FF3F53
:101AD000E1053105210519F1E8940894E795D9014C
:101AE000AA2329F4AB2FBE2FF85FD0F310C0FF5FFD
:101AF00070F4A695E0F7F73950F019F0FF3A38F492
:101B00009F779F930DD00F9007FC9058089546F053
:101B10000C94920C60E070E080E89FE308954FE73A
:101B20009F775F934F933F932F930E944A0E2F917D
:101B30003F914F915F910E94E20C0C94A70D29F404
:101B400016F00C948C0C0C94D60C0C94920C0E94F5
:101B5000BC0CA8F39638A0F707F80F92E8942BE393
:101B60003AEA48EB5FE70E94F80C0F920F920F924F
:101B70004DB75EB70F920E94920EE8E6F0E00E9429
:101B8000D90D4F915F91EF91FF91E595EE1FFF1FEA
:101B900049F0FE57E0684427EE0F441FFA95E1F73D
:101BA0004195550B0E940C0E0F9007FE0C94000EF1
:101BB0000895DF93CF931F930F93FF92EF92DF92DD
:101BC0007B018C01689406C0DA2EEF010E94F50CAF
:101BD000FE01E894A5912591359145915591A6F383
:101BE000EF010E94290BFE019701A801DA9469F721
:101BF000DF90EF90FF900F911F91CF91DF910895AB
:101C00009B01AC0160E070E080E89FE30C94830BE3
:101C10000C948C0C0C94C60E0E94BC0CD8F3992327
:101C2000C9F3940F511DA3F39150504094F059F013
:101C3000882332F0660F771F881F91505040C1F7FC
:101C40009E3F51052CF7880F911D9695879597F922
:101C500008955F3FACF0983E9CF0BB278695779542
:101C60006795B79508F4B1609395C1F7BB0F58F726
:101C700011F460FFE8CF6F5F7F4F8F4F9F4FE3CF2F
:101C80000C94D70C16F00C94C60E0C94920C68941D
:101C90000C948C0C0E94BC0CA8F39923C1F3AEF3F6
:101CA000DF93CF931F930F93FF92C92FDD278823D4
:101CB0002AF02197660F771F881FDAF720E030E0BF
:101CC00040E85FEB9FE3883920F0803E38F02196B2
:101CD0008F770E94120BE0E9F0E004C00E94120B23
:101CE000EDEBF0E00E94D90D8B01BE01EC01FB2E63
:101CF0006F5771097595771F880B990B0E942D0CF2
:101D000028E132E741E35FE30E94F50CAF2D980133
:101D1000AE01FF900F911F91CF91DF910E94290B8F
:101D20000C94A30CFA01DC01AA0FBB1F9B01AC01B0
:101D3000BF5728F4222733274427507820C0B751B3
:101D400090F4AB2F0024469537952795011CA39559
:101D5000D2F3002071F0220F331F441FB395DAF342
:101D60000ED00C94110B61307105A0E88A07B946BA
:101D700030F49B01AC01662777278827907830964E
:101D800021F0208331834283538308959F3F31F0B4
:101D9000915020F4879577956795B795880F911D99
:0C1DA0009695879597F90895F894FFCF69
:101DAC00000000430000004300000043010001015B
:041DBC000000000023
:00000001FF
