:100000000C94A2000C94BF000C94BF000C94BF0091
:100010000C94BF000C94BF000C94BF000C94BF0064
:100020000C94BF000C94BF000C94BF000C94BF0054
:100030000C94BF000C94BF000C94BF000C94BF0044
:100040000C9497020C94BF000C94BF000C94BF005A
:100050000C94BF000C94BF000C94BF000C94BF0024
:100060000C94BF000C94BF0007634236B79BD8A71F
:100070001A39685618AEBAAB558C1D3CB7CC5763CD
:10008000BD6DEDFD753EF6177231BF000000803F7B
:1000900008000000BE922449123EABAAAA2ABECD97
:1000A000CCCC4C3E00000080BEABAAAAAA3E000009
:1000B0000000BF000000803F000000000008417801
:1000C000D3BB4387D1133D190E3CC3BD4282AD2B38
:1000D0003E68EC8276BED98FE1A93E4C80EFFFBE30
:1000E00001C4FF7F3F00000000000000000023006B
:1000F0002600290000000000240027002A0000003C
:100100000000250028002B00040404040404040457
:1001100002020202020203030303030301020408B2
:100120001020408001020408102001020408102061
:1001300000000008000201000003040700000000A6
:100140000000000011241FBECFEFD8E0DEBFCDBFFE
:1001500011E0A0E0B1E0ECE7FAE102C005900D92F9
:10016000A838B107D9F725E0A8E8B1E001C01D9291
:10017000A73BB207E1F70E94E1020C943C0D0C94FE
:100180000000833081F028F4813099F08230A9F0AA
:1001900008958730A9F08830C9F08430B1F4809197
:1001A00080008F7D03C0809180008F7780938000D6
:1001B000089584B58F7784BD089584B58F7DFBCF76
:1001C0008091B0008F778093B00008958091B00047
:1001D0008F7DF9CF1F93CF93DF93282F30E0F90164
:1001E000E05DFE4F8491F901E45EFE4FD491F90188
:1001F000E85FFE4FC491CC23A9F0162F81110E9415
:10020000C100EC2FF0E0EE0FFF1FE250FF4FA59171
:10021000B4918FB7F894EC91111108C0D095DE23FA
:10022000DC938FBFDF91CF911F910895DE2BF8CF24
:10023000CF93DF9390E0FC01E45EFE4F2491885F52
:100240009E4FFC0184918823D1F090E0880F991F84
:10025000FC01EC50FF4FA591B491FC01E250FF4F1F
:10026000C591D491623071F49FB7F8943C91822F7C
:10027000809583238C93E8812E2B28839FBFDF9169
:10028000CF9108958FB7F894EC912E2B2C938FBFBC
:10029000F6CF1F93CF93DF93182FEB0161E00E94FD
:1002A0001801209739F460E0812FDF91CF911F91E1
:1002B0000C94EA00CF3FD10511F461E0F5CFE12FB6
:1002C000F0E0E05DFE4FE491E33031F140F4E130E5
:1002D000B1F0E230E1F0C038D1057CF7E4CFE7308F
:1002E00029F1E83059F1E430B1F780918000806263
:1002F00080938000D0938B00C0938A0004C084B5A3
:10030000806884BDC7BDDF91CF911F91089584B5EA
:10031000806284BDC8BDF7CF8091800080688093E3
:100320008000D0938900C0938800EDCF8091B00009
:1003300080688093B000C093B300E5CF8091B00097
:1003400080628093B000C093B400DDCF806480935E
:100350007C0080917A00806480937A0080917A009A
:1003600086FDFCCF809178009091790008953FB789
:10037000F8948091B3059091B405A091B505B09122
:10038000B60526B5A89B05C02F3F19F00196A11D03
:10039000B11D3FBFBA2FA92F982F8827BC01CD01CF
:1003A000620F711D811D911D42E0660F771F881F2E
:1003B000991F4A95D1F708958F929F92AF92BF925D
:1003C000CF92DF92EF92FF924B015C010E94B70146
:1003D0006B017C010E94B7016C197D098E099F0990
:1003E000683E734081059105A8F321E0821A9108C7
:1003F000A108B10888EEC80E83E0D81EE11CF11CEC
:1004000081149104A104B10429F7FF90EF90DF90CB
:10041000CF90BF90AF909F908F9008958F929F92B2
:10042000AF92BF92CF92DF92EF92FF9282E00E9452
:10043000A60124EF31E0DC010E94210D88248A947A
:1004400023E0922EA12CB12CA50194010E94E70873
:100450006901309389012093880184E00E94A601FC
:1004600024EF31E0DC010E94210DA50194010E94DE
:10047000E708D601A20FB31F24EF31E00E94210D3F
:1004800028EE33E040E050E00E94E70849018CE0AC
:10049000881A8EEF980A092C000CAA08BB0844EFB2
:1004A000C42EDD24D394C21AD30A0D2C000CEE08FE
:1004B000FF08C814D904EA04FB048CF48C189D08C6
:1004C000AE08BF0841F00E948F08A50194010E9468
:1004D000E7084B015C01C80CD91CEA1CFB1C2091ED
:1004E000020130910301E8E4F1E090E080E0419105
:1004F0005191C416D50654F040815181C416D506D9
:100500002CF4DC01A85FBE4F2D913C910296803403
:10051000910569F73093030120930201FF90EF905A
:10052000DF90CF90BF90AF909F908F9008951F92D3
:100530000F920FB60F9211242F933F938F939F9397
:10054000AF93BF938091AF059091B005A091B10595
:10055000B091B2053091AE0523E0230F2D3758F549
:100560000196A11DB11D2093AE058093AF05909318
:10057000B005A093B105B093B2058091B3059091F9
:10058000B405A091B505B091B6050196A11DB11DA8
:100590008093B3059093B405A093B505B093B605C9
:1005A000BF91AF919F918F913F912F910F900FBE6F
:1005B0000F901F90189526E8230F0296A11DB11DDC
:1005C000D2CFCF93DF93CDB7DEB72E970FB6F89487
:1005D000DEBF0FBECDBF789484B5826084BD84B584
:1005E000816084BD85B5826085BD85B5816085BD2E
:1005F00080916E00816080936E00109281008091E6
:10060000810082608093810080918100816080936D
:100610008100809180008160809380008091B10092
:1006200084608093B1008091B00081608093B000BD
:1006300080917A00846080937A0080917A00826051
:1006400080937A0080917A00816080937A00809113
:100650007A00806880937A001092C10002E911E06C
:100660001A82198229813A81B901330F880B990BBB
:100670000E94660A2BEB3BE740E85BE30E941B0B02
:10068000F80161937193819391938F0129813A814C
:100690002F5F3F4F3A8329832F3F310519F761E0E0
:1006A0008BE00E94180161E083E00E94180162E083
:1006B00084E00E9418010E94B70160939E05709328
:1006C0009F058093A0059093A1052FB7F894809182
:1006D000AF059091B005A091B105B091B2052FBFC3
:1006E0008093A8059093A905A093AA05B093AB05A4
:1006F00080918100887F809381008091810081605A
:100700008093810062E370E080E090E00E94DC0171
:100710000FEF10E060E0262E60E0362EE4E3F1E01B
:100720008491E0E2F1E0F491F983ECE0F1E0F490FF
:10073000F11059C168EC70E080E090E00E94DC01AB
:100740008091AC059091AD05019662E070E00E9449
:100750000D0D9093AD058093AC058091A805909107
:10076000A905A091AA05B091AB05C296A11DB11D26
:100770002FB7F8944091AF055091B0056091B10545
:100780007091B2052FBF84179507A607B70708F029
:10079000A1C080E00E94A6018D83998383E00E941E
:1007A000A6012D81398137FF02C02F5F3F4F35955C
:1007B0002795AC0197FF02C04F5F5F4F5595479556
:1007C000240F351F211532400CF01EC180E00E941D
:1007D000A6018D83998383E00E94A6014D815981F2
:1007E00057FF02C04F5F5F4F559547959C0197FF9C
:1007F00002C02F5F3F4F35952795240F351F40913D
:10080000020150910301429FC001439F900D529FEE
:10081000900D11249093A7058093A60581E00E9476
:10082000A6018D83998384E00E94A6012D813981E0
:1008300037FF02C02D5F3F4F35952795359527959A
:10084000AC0197FF02C04D5F5F4F55954795559599
:100850004795240F351F2F3F310511F00CF0D7C0FD
:1008600081E00E94A6018D83998384E00E94A60105
:100870002D81398137FF02C02D5F3F4F3595279578
:1008800035952795AC0197FF02C04D5F5F4F559599
:10089000479555954795240F351F3093A50520930F
:1008A000A405EFEFF0E0F093A305E093A2052FB7C6
:1008B000F8948091AF059091B005A091B105B091E9
:1008C000B2052FBF8093A8059093A905A093AA0510
:1008D000B093AB05C0909A05D0909B05E0909C0525
:1008E000F0909D0560919E0570919F058091A005F7
:1008F0009091A1050E94660A4B015C01209196052A
:10090000309197054091980550919905C701B6011E
:100910000E944A099B01AC01C501B4010E944B0928
:100920004B015C010E94B7010E94640A9B01AC016B
:10093000C501B4010E94B70918160CF44DC0C0924D
:100940009605D0929705E0929805F09299058091CE
:1009500094059091950501968F3F91050CF05AC032
:1009600090939505809394058091AC059091AD0589
:10097000009709F46AC0019709F47BC10E94B7018E
:1009800060939E0570939F058093A0059093A105A9
:100990006091A2057091A305072E000C880B990B9E
:1009A0000E94660A20918E0130918F014091900142
:1009B000509191010E941B0B20E030E04FE753E47F
:1009C0000E94BC090E942E0A6B018BE00E94490123
:1009D000B60183E00E9449012114310409F49ECE3E
:1009E0000E94000097CE81110E94C100EF2DF0E01F
:1009F000EE0FFF1FE651FF4FA591B4918C91F98145
:100A0000F82309F497CEA9CE2FEF31E0F8CE2FEFDF
:100A100030E043CF1092950510929405809100012B
:100A20009091010190939305809392050E948F0805
:100A30002FEF30E040E050E00E94E70870930101A2
:100A4000609300010E940E028FCFE0919405F09117
:100A50009505EE0FFF1FEE0FFF1FEE56FE4F808035
:100A60009180A280B380A501940160E070E080E8ED
:100A70009FE30E944A096B017C01AC019B010E942B
:100A80001B0B20E030E040E450E40E941B0BA5016A
:100A900094010E941B0B6D837E838F839887209126
:100AA000A4053091A5053E872D8720E030E040E485
:100AB00050E4C701B6010E941B0B2B013C01A501AC
:100AC0009401C501B4010E941B0B9B01AC01C30141
:100AD000B2010E941B0B69877A878B879C8720E075
:100AE00030E040E450E4C501B4010E94880B698302
:100AF0007A838B839C83B8018D859E85681B790BD7
:100B0000072E000C880B990B0E94660A29853A85EE
:100B10004B855C850E941B0B4B015C01ED85FE85BE
:100B2000BF01FF0F880B990B0E94660A2D813E8141
:100B30004F8158850E941B0B9B01AC01C501B4017C
:100B40000E944B094B015C0120E030E04FE753E489
:100B500069817A818B819C810E941B0B9B01AC0176
:100B6000C501B4010E944B094B015C016091A605CF
:100B70007091A705072E000C880B990B0E94660A3E
:100B80009B01AC01C501B4010E941B0B9B01AC0190
:100B90000E944B0920E030E040E85FE30E944B09EF
:100BA00060939A0570939B0580939C0590939D0597
:100BB00020E030E040E450E4C701B6010E94880B19
:100BC0002B013C016091920570919305072E000C5A
:100BD000880B990B0E94660A4B015C016091000131
:100BE00070910101072E000C880B990B0E94660A78
:100BF0006B017C01A5019401C301B2010E941B0B92
:100C00002B013C01A50194016D817E818F81988526
:100C10000E941B0B9B01AC01C301B2010E944B0956
:100C20004B015C01A701960169857A858B859C85BE
:100C30000E941B0B9B01AC01C501B4010E944B0932
:100C40004B015C01A701960169817A818B819C81AE
:100C50000E941B0B9B01AC01C501B4010E944B0912
:100C600060938E0170938F01809390019093910116
:100C700085CEE0919405F0919505EE0FFF1FEE0FE4
:100C8000FF1FEE56FE4F80809180A280B380A501A9
:100C9000940160E070E080E89FE30E944A096B01E4
:100CA0007C01AC019B010E941B0B20E030E040E482
:100CB00050E40E941B0BA50194010E941B0B6D8345
:100CC0007E838F8398872091A4053091A5053E8768
:100CD0002D8720E030E040E450E4C701B6010E94D7
:100CE0001B0B2B013C01A5019401C501B4010E941D
:100CF0001B0B9B01AC01C301B2010E941B0B698756
:100D00007A878B879C8720E030E040E450E4C5017F
:100D1000B4010E94880B69837A838B839C83B8011A
:100D20008D859E85681B790B072E000C880B990B0F
:100D30000E94660A29853A854B855C850E941B0BBB
:100D40004B015C01ED85FE85BF01FF0F880B990B00
:100D50000E94660A2D813E814F8158850E941B0B9F
:100D60009B01AC01C501B4010E944B094B015C0120
:100D700020E030E04FE753E469817A818B819C81E8
:100D80000E941B0B9B01AC01C501B4010E944B09E1
:100D90004B015C016091A6057091A705072E000C20
:100DA000880B990B0E94660A9B01AC01C501B40136
:100DB0000E941B0B9B01AC010E944B0920E030E01C
:100DC00040E85FE30E944B0960939A0570939B058E
:100DD00080939C0590939D0520E030E040E450E432
:100DE000C701B6010E94880B2B013C01609192055E
:100DF00070919305072E000C880B990B0E94660AD0
:100E00004B015C016091000170910101072E000C03
:100E1000880B990B0E94660A6B017C01A501940165
:100E2000C301B2010E941B0B2B013C01A5019401DF
:100E30006D817E818F8198850E941B0B9B01AC0187
:100E4000C301B2010E944B094B015C01A70196014D
:100E500069857A858B859C850E941B0B9B01AC0163
:100E6000C501B4010E944B094B015C01A701960129
:100E700069817A818B819C810E941B0B9B01AC0153
:100E8000C501B4010E944B0960938E0170938F01DC
:100E900080939001909391010E948F0824E630E0A6
:100EA00040E050E00E94E70865307105810591053A
:100EB00034F580918C0190918D01892B01F50E9470
:100EC0008F082FE030E040E050E00E94E7086B5FC1
:100ED0007F4F8F4F9F4F70938D0160938C010E94C5
:100EE0008F0824E630E040E050E00E94E7086253BB
:100EF00071098109910970938B0160938A01E090D7
:100F00008C01F0908D011E141F042CF560918A0154
:100F100070918B01072E000C880B990B0E94660ABA
:100F20009B01AC0160918E0170918F0180919001C5
:100F3000909191010E944B0960938E0170938F01F3
:100F40008093900190939101F1E0EF1AF108F092F3
:100F50008D01E0928C010E948F0824E630E040E091
:100F600050E00E94E7086F3071058105910514F586
:100F70000E948F0828E230E040E050E00E94E7083D
:100F800064517109810991090E94660A9B01AC01B3
:100F900060918E0170918F018091900190919101EB
:100FA0000E944B0960938E0170938F018093900192
:100FB00090939101C0908E01D0908F01E0909001AC
:100FC000F090910120E030E0A901C701B6010E9434
:100FD000B70987FD54C020E030E04FE753E4C70174
:100FE000B6010E94160B181634F4C12CD12C8FE7D1
:100FF000E82E83E4F82EC0928E01D0928F01E09209
:101000009001F09291016091A2057091A305072EC5
:10101000000C880B990B0E94660AA70196010E949A
:101020001B0B20E030E04FE753E40E94BC090E9414
:101030002E0A8BE00E9449018091940590919505BC
:101040008F3F91050CF49ACC10929505109294055F
:1010500080910001909101019093930580939205F6
:101060000E948F082FEF30E040E050E00E94E70838
:1010700070930101609300010E940E027FCCC12C8D
:10108000D12C7601B8CF8F929F92AF92BF92CF9220
:10109000DF92EF92FF92CF93DF93EC016881798129
:1010A0008A819B81611571058105910521F464E2B6
:1010B00079ED8BE597E02DE133EF41E050E00E94C0
:1010C000E70849015A019B01AC01A7EAB1E40E947B
:1010D00006096B017C01ACEEB4EFA50194010E94FE
:1010E0001409C60ED71EE81EF91EF7FE06C081E0E1
:1010F000C81AD108E10880E8F80AC882D982EA82D1
:10110000FB82C701B6019F77DF91CF91FF90EF90EF
:10111000DF90CF90BF90AF909F908F9008958F9267
:101120009F92AF92BF92CF92DF92EF92FF92609127
:1011300004017091050180910601909107016115EC
:1011400071058105910521F464E279ED8BE597E065
:101150002DE133EF41E050E00E94E70849015A01D8
:101160009B01AC01A7EAB1E40E9406096B017C0176
:10117000ACEEB4EFA50194010E941409C60ED71E6F
:10118000E81EF91EF7FE06C081E0C81AD108E10882
:1011900080E8F80AC0920401D0920501E0920601AD
:1011A000F0920701C701B6019F77FF90EF90DF90A3
:1011B000CF90BF90AF909F908F900895609304015F
:1011C0007093050180930601909307010895052E01
:1011D00097FB1EF400940E94FE0857FD07D00E9462
:1011E000190907FC03D04EF40C94FE085095409565
:1011F000309521953F4F4F4F5F4F089590958095C3
:10120000709561957F4F8F4F9F4F08950E943B09C6
:10121000A59F900DB49F900DA49F800D911D11244A
:101220000895B7FF0C9406090E940609821B930BD0
:101230000895A1E21A2EAA1BBB1BFD010DC0AA1F17
:10124000BB1FEE1FFF1FA217B307E407F50720F02F
:10125000A21BB30BE40BF50B661F771F881F991FAA
:101260001A9469F760957095809590959B01AC01F3
:10127000BD01CF010895A29FB001B39FC001A39FFC
:10128000700D811D1124911DB29F700D811D1124BF
:10129000911D08955058BB27AA270E9462090C94FB
:1012A000DC0A0E94CE0A38F00E94D50A20F039F4F8
:1012B0009F3F19F426F40C94CB0A0EF4E095E7FB5B
:1012C0000C94C50AE92F0E94ED0A58F3BA17620779
:1012D00073078407950720F079F4A6F50C940F0B9B
:1012E0000EF4E0950B2EBA2FA02D0B01B901900141
:1012F0000C01CA01A0011124FF27591B99F0593F85
:1013000050F4503E68F11A16F040A22F232F342FCC
:101310004427585FF3CF469537952795A795F0401A
:101320005395C9F77EF41F16BA0B620B730B840B2F
:10133000BAF09150A1F0FF0FBB1F661F771F881FE7
:10134000C2F70EC0BA0F621F731F841F48F487953F
:1013500077956795B795F7959E3F08F0B0CF939531
:10136000880F08F09927EE0F9795879508950E94AA
:10137000A10A08F481E008950E94D0090C94DC0AC7
:101380000E94D50A58F00E94CE0A40F029F45F3F2F
:1013900029F00C94C50A51110C94100B0C94CB0A33
:1013A0000E94ED0A68F39923B1F3552391F3951B3D
:1013B000550BBB27AA2762177307840738F09F5F76
:1013C0005F4F220F331F441FAA1FA9F335D00E2EE3
:1013D0003AF0E0E832D091505040E695001CCAF750
:1013E0002BD0FE2F29D0660F771F881FBB1F261713
:1013F00037074807AB07B0E809F0BB0B802DBF01EA
:10140000FF2793585F4F3AF09E3F510578F00C94B8
:10141000C50A0C94100B5F3FE4F3983ED4F3869515
:1014200077956795B795F7959F5FC9F7880F911DD9
:101430009695879597F90895E1E0660F771F881FC5
:10144000BB1F621773078407BA0720F0621B730B78
:10145000840BBA0BEE1F88F7E09508950E94350AB9
:101460006894B1110C94100B08950E94F50A88F04D
:101470009F5798F0B92F9927B751B0F0E1F0660F58
:10148000771F881F991F1AF0BA95C9F714C0B13099
:1014900091F00E940F0BB1E008950C940F0B672F91
:1014A000782F8827B85F39F0B93FCCF386957795C8
:1014B0006795B395D9F73EF49095809570956195B1
:1014C0007F4F8F4F9F4F0895E89409C097FB3EF4DC
:1014D00090958095709561957F4F8F4F9F4F992381
:1014E000A9F0F92F96E9BB279395F69587957795FF
:1014F0006795B795F111F8CFFAF4BB0F11F460FFBF
:101500001BC06F5F7F4F8F4F9F4F16C0882311F016
:1015100096E911C0772321F09EE8872F762F05C02A
:10152000662371F096E8862F70E060E02AF09A95C5
:10153000660F771F881FDAF7880F9695879597F9BA
:101540000895990F0008550FAA0BE0E8FEEF161654
:101550001706E807F907C0F012161306E407F507A7
:1015600098F0621B730B840B950B39F40A2661F01B
:10157000232B242B252B21F408950A2609F4A140BE
:10158000A6958FEF811D811D089597F99F6780E8CB
:1015900070E060E008959FEF80EC089500240A94C5
:1015A0001616170618060906089500240A9412163E
:1015B0001306140605060895092E0394000C11F471
:1015C000882352F0BB0F40F4BF2B11F460FF04C01E
:1015D0006F5F7F4F8F4F9F4F089557FD9058440F77
:1015E000551F59F05F3F71F04795880F97FB991F82
:1015F00061F09F3F79F0879508951216130614063F
:10160000551FF2CF4695F1DF08C0161617061806CB
:10161000991FF1CF86957105610508940895E894A6
:10162000BB2766277727CB0197F908950E94A10A67
:1016300008F48FEF08950E942E0B0C94DC0A0E9490
:10164000CE0A38F00E94D50A20F0952311F00C94B0
:10165000C50A0C94CB0A11240C94100B0E94ED0ABD
:1016600070F3959FC1F3950F50E0551F629FF001F5
:10167000729FBB27F00DB11D639FAA27F00DB11D0E
:10168000AA1F649F6627B00DA11D661F829F222797
:10169000B00DA11D621F739FB00DA11D621F839F1E
:1016A000A00D611D221F749F3327A00D611D231FF4
:1016B000849F600D211D822F762F6A2F11249F5742
:1016C00050409AF0F1F088234AF0EE0FFF1FBB1F45
:1016D000661F771F881F91505040A9F79E3F510504
:1016E00080F00C94C50A0C94100B5F3FE4F3983E15
:1016F000D4F3869577956795B795F795E7959F5FAE
:10170000C1F7FE2B880F911D9695879597F908953F
:10171000FA01EE0FFF1F309621053105A1F1611589
:10172000710561F48038BFE39B0749F168949038F4
:10173000810561F08038BFEF9B0741F099234AF59E
:10174000FF3FE1053105210519F1E8940894E7957B
:10175000D901AA2329F4AB2FBE2FF85FD0F310C014
:10176000FF5F70F4A695E0F7F73950F019F0FF3AF3
:1017700038F49F779F930DD00F9007FC90580895F1
:1017800046F00C94CB0A60E070E080E89FE3089597
:101790004FE79F775F934F933F932F930E94830C64
:1017A0002F913F914F915F910E941B0B0C94E00B86
:1017B00029F416F00C94C50A0C940F0B0C94CB0A68
:1017C0000E94F50AA8F39638A0F707F80F92E8945C
:1017D0002BE33AEA48EB5FE70E94310B0F920F923E
:1017E0000F924DB75EB70F920E94CB0CE8E6F0E087
:1017F0000E94120C4F915F91EF91FF91E595EE1FC2
:10180000FF1F49F0FE57E0684427EE0F441FFA958A
:10181000E1F74195550B0E94450C0F9007FE0C9483
:10182000390C0895DF93CF931F930F93FF92EF929C
:10183000DF927B018C01689406C0DA2EEF010E94D2
:101840002E0BFE01E894A591259135914591559176
:10185000A6F3EF010E946209FE019701A801DA9444
:1018600069F7DF90EF90FF900F911F91CF91DF917B
:1018700008959B01AC0160E070E080E89FE30C9468
:10188000BC090C94C50A0C94FF0C0E94F50AD8F30D
:101890009923C9F3940F511DA3F39150504094F034
:1018A00059F0882332F0660F771F881F91505040FF
:1018B000C1F79E3F51052CF7880F911D969587958E
:1018C00097F908955F3FACF0983E9CF0BB27869552
:1018D00077956795B79508F4B1609395C1F7BB0FFD
:1018E00058F711F460FFE8CF6F5F7F4F8F4F9F4F26
:1018F000E3CF0C94100B16F00C94FF0C0C94CB0A55
:1019000068940C94C50A0E94F50AA8F39923C1F3C0
:10191000AEF3DF93CF931F930F93FF92C92FDD2771
:1019200088232AF02197660F771F881FDAF720E0B7
:1019300030E040E85FEB9FE3883920F0803E38F0EC
:1019400021968F770E944B09E0E9F0E004C00E94E5
:101950004B09EDEBF0E00E94120C8B01BE01EC0193
:10196000FB2E6F5771097595771F880B990B0E9495
:10197000660A28E132E741E35FE30E942E0BAF2DB8
:101980009801AE01FF900F911F91CF91DF910E94BE
:1019900062090C94DC0AFA01DC01AA0FBB1F9B014F
:1019A000AC01BF5728F4222733274427507820C0A2
:1019B000B75190F4AB2F0024469537952795011C1D
:1019C000A395D2F3002071F0220F331F441FB3956B
:1019D000DAF30ED00C944A0961307105A0E88A0749
:1019E000B94630F49B01AC016627772788279078A9
:1019F000309621F0208331834283538308959F3FA3
:101A000031F0915020F4879577956795B795880FB9
:101A1000911D9695879597F9089597FB072E16F4D3
:101A2000009407D077FD09D00E94280D07FC05D04F
:101A30003EF4909581959F4F0895709561957F4FE5
:101A400008950E943B09B7FF0895821B930B0895E8
:101A5000AA1BBB1B51E107C0AA1FBB1FA617B707D4
:101A600010F0A61BB70B881F991F5A95A9F78095F0
:0C1A70009095BC01CD010895F894FFCFC3
:101A7C00FF00280001000000080009000A000B000C
:101A8C000C000D000E000F001000120014001600C8
:101A9C0018001A001C001E002100240028002E0033
:101AAC0034003A00400046004C0052005A006200DC
:101ABC006E007A008800940005000C0015002100CF
:101ACC00300043005A0076009700BD00E800170173
:101ADC004B018201BB01F5012F0268029F02D30268
:101AEC0002032D03530374039003A703BA03C90322
:081AFC00D503DE03E503E80356
:00000001FF
