:100000000C94A2000C94BF000C94BF000C94BF0091
:100010000C94BF000C94BF000C94BF000C94BF0064
:100020000C94BF000C94BF000C94BF000C94BF0054
:100030000C94BF000C94BF000C94BF000C94BF0044
:100040000C94E0010C94BF000C94BF000C94BF0012
:100050000C94BF000C94BF000C94BF000C94BF0024
:100060000C94BF000C94BF0007634236B79BD8A71F
:100070001A39685618AEBAAB558C1D3CB7CC5763CD
:10008000BD6DEDFD753EF6177231BF000000803F7B
:1000900008000000BE922449123EABAAAA2ABECD97
:1000A000CCCC4C3E00000080BEABAAAAAA3E000009
:1000B0000000BF000000803F000000000008417801
:1000C000D3BB4387D1133D190E3CC3BD4282AD2B38
:1000D0003E68EC8276BED98FE1A93E4C80EFFFBE30
:1000E00001C4FF7F3F00000000000000000023006B
:1000F0002600290000000000240027002A0000003C
:100100000000250028002B00040404040404040457
:1001100002020202020203030303030301020408B2
:100120001020408001020408102001020408102061
:1001300000000008000201000003040700000000A6
:100140000000000011241FBECFEFD8E0DEBFCDBFFE
:1001500011E0A0E0B1E0E6EAF3E102C005900D9203
:10016000AC30B107D9F721E0ACE0B1E001C01D929D
:10017000A632B207E1F70E942A020C94D1090C942E
:100180000000833081F028F4813099F08230A9F0AA
:1001900008958730A9F08830C9F08430B1F4809197
:1001A00080008F7D03C0809180008F7780938000D6
:1001B000089584B58F7784BD089584B58F7DFBCF76
:1001C0008091B0008F778093B00008958091B00047
:1001D0008F7DF9CF1F93CF93DF93282F30E0F90164
:1001E000E05DFE4F8491F901E45EFE4FD491F90188
:1001F000E85FFE4FC491CC23A9F0162F81110E9415
:10020000C100EC2FF0E0EE0FFF1FE250FF4FA59171
:10021000B4918FB7F894EC91111108C0D095DE23FA
:10022000DC938FBFDF91CF911F910895DE2BF8CF24
:10023000CF93DF9390E0FC01E45EFE4F2491885F52
:100240009E4FFC0184918823D1F090E0880F991F84
:10025000FC01EC50FF4FA591B491FC01E250FF4F1F
:10026000C591D491623071F49FB7F8943C91822F7C
:10027000809583238C93E8812E2B28839FBFDF9169
:10028000CF9108958FB7F894EC912E2B2C938FBFBC
:10029000F6CF1F93CF93DF93182FEB0161E00E94FD
:1002A0001801209739F460E0812FDF91CF911F91E1
:1002B0000C94EA00CF3FD10511F461E0F5CFE12FB6
:1002C000F0E0E05DFE4FE491E33031F140F4E130E5
:1002D000B1F0E230E1F0C038D1057CF7E4CFE7308F
:1002E00029F1E83059F1E430B1F780918000806263
:1002F00080938000D0938B00C0938A0004C084B5A3
:10030000806884BDC7BDDF91CF911F91089584B5EA
:10031000806284BDC8BDF7CF8091800080688093E3
:100320008000D0938900C0938800EDCF8091B00009
:1003300080688093B000C093B300E5CF8091B00097
:1003400080628093B000C093B400DDCF8E3008F09F
:100350008E508770806480937C0080917A008064E6
:1003600080937A0080917A0086FDFCCF809178009E
:100370009091790008953FB7F8948091220190916F
:100380002301A0912401B091250126B5A89B05C0A9
:100390002F3F19F00196A11DB11D3FBFBA2FA92F04
:1003A000982F8827BC01CD01620F711D811D911D01
:1003B00042E0660F771F881F991F4A95D1F708956D
:1003C0001F920F920FB60F9211242F933F938F938A
:1003D0009F93AF93BF9380911E0190911F01A091B5
:1003E0002001B091210130911D0123E0230F2D3711
:1003F00058F50196A11DB11D20931D0180931E018A
:1004000090931F01A0932001B093210180912201BC
:1004100090912301A0912401B09125010196A11D85
:10042000B11D8093220190932301A0932401B093E6
:100430002501BF91AF919F918F913F912F910F9087
:100440000FBE0F901F90189526E8230F0296A11D4E
:10045000B11DD2CFCF93DF9300D000D01F92CDB784
:10046000DEB7789484B5826084BD84B5816084BD34
:1004700085B5826085BD85B5816085BD80916E0042
:10048000816080936E001092810080918100826073
:1004900080938100809181008160809381008091B0
:1004A00080008160809380008091B100846080939F
:1004B000B1008091B00081608093B00080917A009B
:1004C000846080937A0080917A00826080937A00C1
:1004D00080917A00816080937A0080917A008068B0
:1004E00080937A001092C10061E08BE00E941801B5
:1004F00061E089E00E94180161E083E00E94180138
:1005000062E084E00E941801109280001092810045
:1005100080918000816A8093800080918100896051
:10052000809381001092B0001092B1008091B000D1
:10053000836A8093B0008091B10081608093B100A4
:100540008091100190911101A0911201B0911301BD
:1005500080930C0190930D01A0930E01B0930F01B5
:1005600004E311E040E0242E40E0342E8EE00E94AF
:10057000A601BC01990F880B990B0E942A0720E065
:1005800030EC4FE754E40E9480069B01AC0160E030
:1005900070E088EC92E40E944C082FE632E143E8D8
:1005A0005AE30E94DF074B015C01809204019092A4
:1005B0000501A0920601B092070180E10E94A60108
:1005C0006C0183E10E94A6017C01B601DD0C880B61
:1005D000990B0E942A0720E030EC4FE754E40E9478
:1005E00080062B013C01B701FF0C880B990B0E9480
:1005F0002A0720E030EC4FE754E40E9480069B017C
:10060000AC01C301B2010E940F066B017C0120E026
:1006100030E0A9010E947B0687FDB3C020E030E0F6
:1006200040E85FE3C701B6010E94DA0718160CF430
:10063000ACC0C0921901D0921A01E0921B01F09255
:100640001C018FE00E94A601BC01990F880B990B39
:100650000E942A0720E030EC4FE754E40E94800615
:100660002DEC3CEC4CE45FE30E94DF072DEC3CEC0E
:100670004CEC5EE30E940E06609315017093160128
:10068000809317019093180181E10E94A601BC019B
:10069000990F880B990B0E942A0720E030EC4FE756
:1006A00054E40E9480062FE832EC45E75CE30E94A8
:1006B000DF079B01AC016BE37FED8FE79FE30E94B7
:1006C0000E062B013C0128E431EE4AE75FE30E946D
:1006D0007B0687FD61C02BE33FED4FE75FE3C3017E
:1006E000B2010E94DA0718160CF45FC040920001B4
:1006F000509201016092020170920301F80184910D
:10070000E0E2F1E0F491FD83ECE0F1E0F491F983B3
:10071000F11154C08091140121E0822780931401CB
:100720000E94BB012B013C0188EC90E0A0E0B0E00E
:1007300089839A83AB83BC830E94BB0164197509CA
:1007400086099709683E734081059105A8F3898160
:100750009A81AB81BC810197A109B10989839A83F0
:10076000AB83BC8398EE490E93E0591E611C711C4B
:1007700089819A81AB81BC81892B8A2B8B2BE1F6F5
:100780002EC0C12CD12C760154CFC12CD12C30E8F5
:10079000E32E3FE3F32E4DCF28E4422E21EE522EDE
:1007A0002AE7622E2FE3722EA1CF9BE3492E9FED05
:1007B000592E9FE7692E9FE3792E98CF81110E94D1
:1007C000C1009981E92FF0E0EE0FFF1FE651FF4FC6
:1007D000A591B4918C91AD81A82309F49BCF809110
:1007E0001401882309F4ECC00E94530528EC30E082
:1007F00040E050E00E94AB056456710981099109FF
:100800000E942A0720E030E048EC52E40E94800673
:10081000A70196010E94DF07A50194010E94DF074E
:10082000209110013091110140911201509113015A
:100830000E940F0624EA30E74DE75FE30E94DF07DE
:100840006B017C0120E030E0A9010E947B0687FD5E
:1008500009C0C0921001D0921101E0921201F092F1
:10086000130108C010921001109211011092120190
:100870001092130120E030E040E85FE36091100146
:100880007091110180911201909113010E94DA0779
:10089000181664F480E090E0A0E8BFE380931001B4
:1008A00090931101A0931201B0931301C090000125
:1008B000D0900101E0900201F090030140901001FE
:1008C00050901101609012017090130120910C0161
:1008D00030910D0140910E0150910F01C701B601F9
:1008E0000E94DF074B015C01A701960160E070E008
:1008F00080E89FE30E940E06A30192010E94DF0799
:100900009B01AC01C501B4010E940F066B017C0183
:10091000C0920C01D0920D01E0920E01F0920F01F5
:100920008090150190901601A0901701B0901801C9
:10093000A5019401C301B2010E940F0620E030E03E
:100940004FE753E40E94DF070E94F2067A8369832F
:100950006F3F710529F024F08FEF90E09A8389832F
:10096000A981BA81B7FF02C01A82198269817A818E
:100970008BE00E944901A5019401C701B6010E94C4
:100980000F0620E030E04FE753E40E94DF070E94AB
:10099000F2066F3F710519F014F06FEF70E077FF0A
:1009A00002C070E060E089E00E944901B981B09323
:1009B000B4002114310409F4D9CD0E940000D6CD31
:1009C0000E94530528EC30E040E050E00E94AB0567
:1009D00064567109810991090E942A0720E030E0DC
:1009E00048EC52E40E948006A70196010E94DF07AE
:1009F000A50194010E94DF0720911001309111019F
:100A000040911201509113010E940F0619CF8F924D
:100A10009F92AF92BF92CF92DF92EF92FF92CF93CD
:100A2000DF93EC01688179818A819B816115710571
:100A30008105910521F464E279ED8BE597E02DE1E4
:100A400033EF41E050E00E94AB0549015A019B01A0
:100A5000AC01A7EAB1E40E94CA056B017C01ACEECF
:100A6000B4EFA50194010E94D805C60ED71EE81E5A
:100A7000F91EF7FE06C081E0C81AD108E10880E837
:100A8000F80AC882D982EA82FB82C701B6019F7741
:100A9000DF91CF91FF90EF90DF90CF90BF90AF901C
:100AA0009F908F9008958F929F92AF92BF92CF9216
:100AB000DF92EF92FF92609108017091090180919D
:100AC0000A0190910B01611571058105910521F4D1
:100AD00064E279ED8BE597E02DE133EF41E050E002
:100AE0000E94AB0549015A019B01AC01A7EAB1E4A0
:100AF0000E94CA056B017C01ACEEB4EFA501940124
:100B00000E94D805C60ED71EE81EF91EF7FE06C0C5
:100B100081E0C81AD108E10880E8F80AC09208010B
:100B2000D0920901E0920A01F0920B01C701B601CF
:100B30009F77FF90EF90DF90CF90BF90AF909F9006
:100B40008F900895609308017093090180930A01C2
:100B500090930B010895052E97FB1EF400940E94BC
:100B6000C20557FD07D00E94DD0507FC03D04EF4F7
:100B70000C94C20550954095309521953F4F4F4FAD
:100B80005F4F089590958095709561957F4F8F4F39
:100B90009F4F08950E94FF05A59F900DB49F900D53
:100BA000A49F800D911D11240895B7FF0C94CA05D0
:100BB0000E94CA05821B930B0895A1E21A2EAA1B5C
:100BC000BB1BFD010DC0AA1FBB1FEE1FFF1FA217FD
:100BD000B307E407F50720F0A21BB30BE40BF50BFA
:100BE000661F771F881F991F1A9469F76095709583
:100BF000809590959B01AC01BD01CF010895A29F06
:100C0000B001B39FC001A39F700D811D1124911DE0
:100C1000B29F700D811D1124911D08955058BB275E
:100C2000AA270E9426060C94A0070E94920738F07B
:100C30000E94990720F039F49F3F19F426F40C9490
:100C40008F070EF4E095E7FB0C948907E92F0E94CB
:100C5000B10758F3BA17620773078407950720F0A6
:100C600079F4A6F50C94D3070EF4E0950B2EBA2F69
:100C7000A02D0B01B90190010C01CA01A0011124A2
:100C8000FF27591B99F0593F50F4503E68F11A164E
:100C9000F040A22F232F342F4427585FF3CF4695DF
:100CA00037952795A795F0405395C9F77EF41F1601
:100CB000BA0B620B730B840BBAF09150A1F0FF0FCB
:100CC000BB1F661F771F881FC2F70EC0BA0F621FB7
:100CD000731F841F48F4879577956795B795F795A7
:100CE0009E3F08F0B0CF9395880F08F09927EE0F3C
:100CF0009795879508950E94650708F481E0089507
:100D00000E9494060C94A0070E94990758F00E9434
:100D1000920740F029F45F3F29F00C9489075111A4
:100D20000C94D4070C948F070E94B10768F39923A1
:100D3000B1F3552391F3951B550BBB27AA276217D7
:100D40007307840738F09F5F5F4F220F331F441FE4
:100D5000AA1FA9F335D00E2E3AF0E0E832D0915018
:100D60005040E695001CCAF72BD0FE2F29D0660F05
:100D7000771F881FBB1F261737074807AB07B0E848
:100D800009F0BB0B802DBF01FF2793585F4F3AF04E
:100D90009E3F510578F00C9489070C94D4075F3F6F
:100DA000E4F3983ED4F3869577956795B795F795D4
:100DB0009F5FC9F7880F911D9695879597F90895BC
:100DC000E1E0660F771F881FBB1F62177307840758
:100DD000BA0720F0621B730B840BBA0BEE1F88F767
:100DE000E09508950E94F9066894B1110C94D40717
:100DF00008950E94B90788F09F5798F0B92F992756
:100E0000B751B0F0E1F0660F771F881F991F1AF0F5
:100E1000BA95C9F714C0B13091F00E94D307B1E080
:100E200008950C94D307672F782F8827B85F39F07F
:100E3000B93FCCF3869577956795B395D9F73EF48E
:100E400090958095709561957F4F8F4F9F4F089536
:100E5000E89409C097FB3EF4909580957095619554
:100E60007F4F8F4F9F4F9923A9F0F92F96E9BB270A
:100E70009395F695879577956795B795F111F8CF86
:100E8000FAF4BB0F11F460FF1BC06F5F7F4F8F4FF1
:100E90009F4F16C0882311F096E911C0772321F0E7
:100EA0009EE8872F762F05C0662371F096E8862F7F
:100EB00070E060E02AF09A95660F771F881FDAF7D6
:100EC000880F9695879597F90895990F0008550F03
:100ED000AA0BE0E8FEEF16161706E807F907C0F0C0
:100EE00012161306E407F50798F0621B730B840BC8
:100EF000950B39F40A2661F0232B242B252B21F4A2
:100F000008950A2609F4A140A6958FEF811D811D41
:100F1000089597F99F6780E870E060E008959FEF7B
:100F200080EC089500240A94161617061806090680
:100F3000089500240A94121613061406050608954F
:100F4000092E0394000C11F4882352F0BB0F40F4D7
:100F5000BF2B11F460FF04C06F5F7F4F8F4F9F4F17
:100F6000089557FD9058440F551F59F05F3F71F099
:100F70004795880F97FB991F61F09F3F79F0879500
:100F80000895121613061406551FF2CF4695F1DF89
:100F900008C0161617061806991FF1CF8695710519
:100FA000610508940895E894BB2766277727CB014D
:100FB00097F908950E94650708F48FEF08950E943D
:100FC000F2070C94A0070E94920738F00E9499073C
:100FD00020F0952311F00C9489070C948F071124AD
:100FE0000C94D4070E94B10770F3959FC1F3950F3D
:100FF00050E0551F629FF001729FBB27F00DB11D9D
:10100000639FAA27F00DB11DAA1F649F6627B00D2C
:10101000A11D661F829F2227B00DA11D621F739F15
:10102000B00DA11D621F839FA00D611D221F749F23
:101030003327A00D611D231F849F600D211D822F6A
:10104000762F6A2F11249F5750409AF0F1F0882391
:101050004AF0EE0FFF1FBB1F661F771F881F9150BE
:101060005040A9F79E3F510580F00C9489070C94DD
:10107000D4075F3FE4F3983ED4F386957795679560
:10108000B795F795E7959F5FC1F7FE2B880F911DE8
:101090009695879597F90895FA01EE0FFF1F309600
:1010A00021053105A1F16115710561F48038BFE3B7
:1010B0009B0749F168949038810561F08038BFEF53
:1010C0009B0741F099234AF5FF3FE10531052105D2
:1010D00019F1E8940894E795D901AA2329F4AB2FD4
:1010E000BE2FF85FD0F310C0FF5F70F4A695E0F755
:1010F000F73950F019F0FF3A38F49F779F930DD0ED
:101100000F9007FC9058089546F00C948F0760E00C
:1011100070E080E89FE308954FE79F775F934F93D8
:101120003F932F930E9447092F913F914F915F91D9
:101130000E94DF070C94A40829F416F00C94890788
:101140000C94D3070C948F070E94B907A8F3963824
:10115000A0F707F80F92E8942BE33AEA48EB5FE731
:101160000E94F5070F920F920F924DB75EB70F9244
:101170000E948F09E8E6F0E00E94D6084F915F9147
:10118000EF91FF91E595EE1FFF1F49F0FE57E068D4
:101190004427EE0F441FFA95E1F74195550B0E9445
:1011A00009090F9007FE0C94FD080895DF93CF9373
:1011B0001F930F93FF92EF92DF927B018C01689453
:1011C00006C0DA2EEF010E94F207FE01E894A59115
:1011D0002591359145915591A6F3EF010E94260680
:1011E000FE019701A801DA9469F7DF90EF90FF9074
:1011F0000F911F91CF91DF9108959B01AC0160E0A9
:1012000070E080E89FE30C9480060C9489070C94AE
:10121000C3090E94B907D8F39923C9F3940F511D4C
:10122000A3F39150504094F059F0882332F0660FA8
:10123000771F881F91505040C1F79E3F51052CF7F2
:10124000880F911D9695879597F908955F3FACF0AB
:10125000983E9CF0BB27869577956795B79508F4DF
:10126000B1609395C1F7BB0F58F711F460FFE8CF59
:101270006F5F7F4F8F4F9F4FE3CF0C94D40716F0D3
:101280000C94C3090C948F0768940C9489070E94EE
:10129000B907A8F39923C1F3AEF3DF93CF931F935C
:1012A0000F93FF92C92FDD2788232AF02197660F1D
:1012B000771F881FDAF720E030E040E85FEB9FE31C
:1012C000883920F0803E38F021968F770E940F06F3
:1012D000E0E9F0E004C00E940F06EDEBF0E00E94B0
:1012E000D6088B01BE01EC01FB2E6F577109759575
:1012F000771F880B990B0E942A0728E132E741E308
:101300005FE30E94F207AF2D9801AE01FF900F91AD
:101310001F91CF91DF910E9426060C94A007FA013D
:10132000DC01AA0FBB1F9B01AC01BF5728F4222789
:1013300033274427507820C0B75190F4AB2F0024B6
:10134000469537952795011CA395D2F3002071F09F
:10135000220F331F441FB395DAF30ED00C940E0600
:1013600061307105A0E88A07B94630F49B01AC01F1
:101370006627772788279078309621F0208331835D
:101380004283538308959F3F31F0915020F4879515
:1013900077956795B795880F911D9695879597F9DD
:0613A0000895F894FFCF50
:0C13A6003BDF7F3F6F12833A0100000024
:00000001FF
